{
	"contracts/Array.sol": {
		"Array": {
			"abi": [
				{
					"inputs": [
						{
							"internalType": "uint256",
							"name": "",
							"type": "uint256"
						}
					],
					"name": "dinamica",
					"outputs": [
						{
							"internalType": "uint256",
							"name": "",
							"type": "uint256"
						}
					],
					"stateMutability": "view",
					"type": "function"
				},
				{
					"inputs": [
						{
							"internalType": "uint256",
							"name": "",
							"type": "uint256"
						}
					],
					"name": "meuInteiros",
					"outputs": [
						{
							"internalType": "uint256",
							"name": "",
							"type": "uint256"
						}
					],
					"stateMutability": "view",
					"type": "function"
				},
				{
					"inputs": [
						{
							"internalType": "uint256",
							"name": "",
							"type": "uint256"
						}
					],
					"name": "minhasStrings",
					"outputs": [
						{
							"internalType": "string",
							"name": "",
							"type": "string"
						}
					],
					"stateMutability": "view",
					"type": "function"
				},
				{
					"inputs": [
						{
							"internalType": "uint256",
							"name": "",
							"type": "uint256"
						}
					],
					"name": "valorPadrao",
					"outputs": [
						{
							"internalType": "uint256",
							"name": "",
							"type": "uint256"
						}
					],
					"stateMutability": "view",
					"type": "function"
				}
			],
			"devdoc": {
				"kind": "dev",
				"methods": {},
				"version": 1
			},
			"evm": {
				"assembly": "    /* \"contracts/Array.sol\":59:545  contract Array {\r... */\n  mstore(0x40, 0x80)\n    /* \"contracts/Array.sol\":83:119  uint[3] public meuInteiros = [1,5,9] */\n  mload(0x40)\n  dup1\n  0x60\n  add\n  0x40\n  mstore\n  dup1\n    /* \"contracts/Array.sol\":113:114  1 */\n  0x01\n    /* \"contracts/Array.sol\":83:119  uint[3] public meuInteiros = [1,5,9] */\n  0xff\n  and\n  dup2\n  mstore\n  0x20\n  add\n    /* \"contracts/Array.sol\":115:116  5 */\n  0x05\n    /* \"contracts/Array.sol\":83:119  uint[3] public meuInteiros = [1,5,9] */\n  0xff\n  and\n  dup2\n  mstore\n  0x20\n  add\n    /* \"contracts/Array.sol\":117:118  9 */\n  0x09\n    /* \"contracts/Array.sol\":83:119  uint[3] public meuInteiros = [1,5,9] */\n  0xff\n  and\n  dup2\n  mstore\n  pop\n  0x00\n  swap1\n  0x03\n  tag_1\n  swap3\n  swap2\n  swap1\n  tag_2\n  jump\t// in\ntag_1:\n  pop\n    /* \"contracts/Array.sol\":126:188  string[5] public minhasStrings = [\"oi\",\"tudo\",\"bem\",\"\",\"joao\"] */\n  mload(0x40)\n  dup1\n  0xa0\n  add\n  0x40\n  mstore\n  dup1\n  mload(0x40)\n  dup1\n  0x40\n  add\n  0x40\n  mstore\n  dup1\n  0x02\n  dup2\n  mstore\n  0x20\n  add\n  0x6f69000000000000000000000000000000000000000000000000000000000000\n  dup2\n  mstore\n  pop\n  dup2\n  mstore\n  0x20\n  add\n  mload(0x40)\n  dup1\n  0x40\n  add\n  0x40\n  mstore\n  dup1\n  0x04\n  dup2\n  mstore\n  0x20\n  add\n  0x7475646f00000000000000000000000000000000000000000000000000000000\n  dup2\n  mstore\n  pop\n  dup2\n  mstore\n  0x20\n  add\n  mload(0x40)\n  dup1\n  0x40\n  add\n  0x40\n  mstore\n  dup1\n  0x03\n  dup2\n  mstore\n  0x20\n  add\n  0x62656d0000000000000000000000000000000000000000000000000000000000\n  dup2\n  mstore\n  pop\n  dup2\n  mstore\n  0x20\n  add\n  mload(0x40)\n  dup1\n  0x20\n  add\n  0x40\n  mstore\n  dup1\n  0x00\n  dup2\n  mstore\n  pop\n  dup2\n  mstore\n  0x20\n  add\n  mload(0x40)\n  dup1\n  0x40\n  add\n  0x40\n  mstore\n  dup1\n  0x04\n  dup2\n  mstore\n  0x20\n  add\n  0x6a6f616f00000000000000000000000000000000000000000000000000000000\n  dup2\n  mstore\n  pop\n  dup2\n  mstore\n  pop\n  0x03\n  swap1\n  0x05\n  tag_3\n  swap3\n  swap2\n  swap1\n  tag_4\n  jump\t// in\ntag_3:\n  pop\n    /* \"contracts/Array.sol\":338:368  uint[] public dinamica = [8,7] */\n  mload(0x40)\n  dup1\n  0x40\n  add\n  0x40\n  mstore\n  dup1\n    /* \"contracts/Array.sol\":364:365  8 */\n  0x08\n    /* \"contracts/Array.sol\":338:368  uint[] public dinamica = [8,7] */\n  0xff\n  and\n  dup2\n  mstore\n  0x20\n  add\n    /* \"contracts/Array.sol\":366:367  7 */\n  0x07\n    /* \"contracts/Array.sol\":338:368  uint[] public dinamica = [8,7] */\n  0xff\n  and\n  dup2\n  mstore\n  pop\n  0x08\n  swap1\n  0x02\n  tag_5\n  swap3\n  swap2\n  swap1\n  tag_6\n  jump\t// in\ntag_5:\n  pop\n    /* \"contracts/Array.sol\":466:468  10 */\n  0x0a\n    /* \"contracts/Array.sol\":455:469  new uint[](10) */\n  0xffffffffffffffff\n  dup2\n  gt\n  iszero\n  tag_7\n  jumpi\n  tag_8\n  tag_9\n  jump\t// in\ntag_8:\ntag_7:\n  mload(0x40)\n  swap1\n  dup1\n  dup3\n  mstore\n  dup1\n  0x20\n  mul\n  0x20\n  add\n  dup3\n  add\n  0x40\n  mstore\n  dup1\n  iszero\n  tag_10\n  jumpi\n  dup2\n  0x20\n  add\n  0x20\n  dup3\n  mul\n  dup1\n  calldatasize\n  dup4\n  calldatacopy\n  dup1\n  dup3\n  add\n  swap2\n  pop\n  pop\n  swap1\n  pop\ntag_10:\n  pop\n    /* \"contracts/Array.sol\":427:469  uint[] public valorPadrao = new uint[](10) */\n  0x09\n  swap1\n  dup1\n  mload\n  swap1\n  0x20\n  add\n  swap1\n  tag_11\n  swap3\n  swap2\n  swap1\n  tag_12\n  jump\t// in\ntag_11:\n  pop\n    /* \"contracts/Array.sol\":59:545  contract Array {\r... */\n  callvalue\n  dup1\n  iszero\n  tag_13\n  jumpi\n  0x00\n  dup1\n  revert\ntag_13:\n  pop\n  jump(tag_14)\ntag_2:\n  dup3\n  0x03\n  dup2\n  add\n  swap3\n  dup3\n  iszero\n  tag_15\n  jumpi\n  swap2\n  0x20\n  mul\n  dup3\n  add\ntag_16:\n  dup3\n  dup2\n  gt\n  iszero\n  tag_17\n  jumpi\n  dup3\n  mload\n  dup3\n  swap1\n  0xff\n  and\n  swap1\n  sstore\n  swap2\n  0x20\n  add\n  swap2\n  swap1\n  0x01\n  add\n  swap1\n  jump(tag_16)\ntag_17:\ntag_15:\n  pop\n  swap1\n  pop\n  tag_18\n  swap2\n  swap1\n  tag_19\n  jump\t// in\ntag_18:\n  pop\n  swap1\n  jump\t// out\ntag_4:\n  dup3\n  0x05\n  dup2\n  add\n  swap3\n  dup3\n  iszero\n  tag_20\n  jumpi\n  swap2\n  0x20\n  mul\n  dup3\n  add\ntag_21:\n  dup3\n  dup2\n  gt\n  iszero\n  tag_22\n  jumpi\n  dup3\n  mload\n  dup3\n  swap1\n  dup1\n  mload\n  swap1\n  0x20\n  add\n  swap1\n  tag_23\n  swap3\n  swap2\n  swap1\n  tag_24\n  jump\t// in\ntag_23:\n  pop\n  swap2\n  0x20\n  add\n  swap2\n  swap1\n  0x01\n  add\n  swap1\n  jump(tag_21)\ntag_22:\ntag_20:\n  pop\n  swap1\n  pop\n  tag_25\n  swap2\n  swap1\n  tag_26\n  jump\t// in\ntag_25:\n  pop\n  swap1\n  jump\t// out\ntag_6:\n  dup3\n  dup1\n  sload\n  dup3\n  dup3\n  sstore\n  swap1\n  0x00\n  mstore\n  keccak256(0x00, 0x20)\n  swap1\n  dup2\n  add\n  swap3\n  dup3\n  iszero\n  tag_27\n  jumpi\n  swap2\n  0x20\n  mul\n  dup3\n  add\ntag_28:\n  dup3\n  dup2\n  gt\n  iszero\n  tag_29\n  jumpi\n  dup3\n  mload\n  dup3\n  swap1\n  0xff\n  and\n  swap1\n  sstore\n  swap2\n  0x20\n  add\n  swap2\n  swap1\n  0x01\n  add\n  swap1\n  jump(tag_28)\ntag_29:\ntag_27:\n  pop\n  swap1\n  pop\n  tag_30\n  swap2\n  swap1\n  tag_19\n  jump\t// in\ntag_30:\n  pop\n  swap1\n  jump\t// out\ntag_12:\n  dup3\n  dup1\n  sload\n  dup3\n  dup3\n  sstore\n  swap1\n  0x00\n  mstore\n  keccak256(0x00, 0x20)\n  swap1\n  dup2\n  add\n  swap3\n  dup3\n  iszero\n  tag_31\n  jumpi\n  swap2\n  0x20\n  mul\n  dup3\n  add\ntag_32:\n  dup3\n  dup2\n  gt\n  iszero\n  tag_33\n  jumpi\n  dup3\n  mload\n  dup3\n  sstore\n  swap2\n  0x20\n  add\n  swap2\n  swap1\n  0x01\n  add\n  swap1\n  jump(tag_32)\ntag_33:\ntag_31:\n  pop\n  swap1\n  pop\n  tag_34\n  swap2\n  swap1\n  tag_19\n  jump\t// in\ntag_34:\n  pop\n  swap1\n  jump\t// out\ntag_19:\ntag_35:\n  dup1\n  dup3\n  gt\n  iszero\n  tag_36\n  jumpi\n  0x00\n  dup2\n  0x00\n  swap1\n  sstore\n  pop\n  0x01\n  add\n  jump(tag_35)\ntag_36:\n  pop\n  swap1\n  jump\t// out\ntag_24:\n  dup3\n  dup1\n  sload\n  tag_37\n  swap1\n  tag_38\n  jump\t// in\ntag_37:\n  swap1\n  0x00\n  mstore\n  keccak256(0x00, 0x20)\n  swap1\n  0x1f\n  add\n  0x20\n  swap1\n  div\n  dup2\n  add\n  swap3\n  dup3\n  tag_40\n  jumpi\n  0x00\n  dup6\n  sstore\n  jump(tag_39)\ntag_40:\n  dup3\n  0x1f\n  lt\n  tag_41\n  jumpi\n  dup1\n  mload\n  not(0xff)\n  and\n  dup4\n  dup1\n  add\n  or\n  dup6\n  sstore\n  jump(tag_39)\ntag_41:\n  dup3\n  dup1\n  add\n  0x01\n  add\n  dup6\n  sstore\n  dup3\n  iszero\n  tag_39\n  jumpi\n  swap2\n  dup3\n  add\ntag_42:\n  dup3\n  dup2\n  gt\n  iszero\n  tag_43\n  jumpi\n  dup3\n  mload\n  dup3\n  sstore\n  swap2\n  0x20\n  add\n  swap2\n  swap1\n  0x01\n  add\n  swap1\n  jump(tag_42)\ntag_43:\ntag_39:\n  pop\n  swap1\n  pop\n  tag_44\n  swap2\n  swap1\n  tag_19\n  jump\t// in\ntag_44:\n  pop\n  swap1\n  jump\t// out\ntag_26:\ntag_45:\n  dup1\n  dup3\n  gt\n  iszero\n  tag_46\n  jumpi\n  0x00\n  dup2\n  dup2\n  tag_47\n  swap2\n  swap1\n  tag_48\n  jump\t// in\ntag_47:\n  pop\n  0x01\n  add\n  jump(tag_45)\ntag_46:\n  pop\n  swap1\n  jump\t// out\ntag_48:\n  pop\n  dup1\n  sload\n  tag_49\n  swap1\n  tag_38\n  jump\t// in\ntag_49:\n  0x00\n  dup3\n  sstore\n  dup1\n  0x1f\n  lt\n  tag_51\n  jumpi\n  pop\n  jump(tag_50)\ntag_51:\n  0x1f\n  add\n  0x20\n  swap1\n  div\n  swap1\n  0x00\n  mstore\n  keccak256(0x00, 0x20)\n  swap1\n  dup2\n  add\n  swap1\n  tag_52\n  swap2\n  swap1\n  tag_19\n  jump\t// in\ntag_52:\ntag_50:\n  pop\n  jump\t// out\n    /* \"#utility.yul\":7:327   */\ntag_38:\n    /* \"#utility.yul\":51:57   */\n  0x00\n    /* \"#utility.yul\":88:89   */\n  0x02\n    /* \"#utility.yul\":82:86   */\n  dup3\n    /* \"#utility.yul\":78:90   */\n  div\n    /* \"#utility.yul\":68:90   */\n  swap1\n  pop\n    /* \"#utility.yul\":135:136   */\n  0x01\n    /* \"#utility.yul\":129:133   */\n  dup3\n    /* \"#utility.yul\":125:137   */\n  and\n    /* \"#utility.yul\":156:174   */\n  dup1\n    /* \"#utility.yul\":146:227   */\n  tag_55\n  jumpi\n    /* \"#utility.yul\":212:216   */\n  0x7f\n    /* \"#utility.yul\":204:210   */\n  dup3\n    /* \"#utility.yul\":200:217   */\n  and\n    /* \"#utility.yul\":190:217   */\n  swap2\n  pop\n    /* \"#utility.yul\":146:227   */\ntag_55:\n    /* \"#utility.yul\":274:276   */\n  0x20\n    /* \"#utility.yul\":266:272   */\n  dup3\n    /* \"#utility.yul\":263:277   */\n  lt\n    /* \"#utility.yul\":243:261   */\n  dup2\n    /* \"#utility.yul\":240:278   */\n  eq\n    /* \"#utility.yul\":237:321   */\n  iszero\n  tag_56\n  jumpi\n    /* \"#utility.yul\":293:311   */\n  tag_57\n  tag_58\n  jump\t// in\ntag_57:\n    /* \"#utility.yul\":237:321   */\ntag_56:\n    /* \"#utility.yul\":58:327   */\n  pop\n    /* \"#utility.yul\":7:327   */\n  swap2\n  swap1\n  pop\n  jump\t// out\n    /* \"#utility.yul\":333:513   */\ntag_58:\n    /* \"#utility.yul\":381:458   */\n  0x4e487b7100000000000000000000000000000000000000000000000000000000\n    /* \"#utility.yul\":378:379   */\n  0x00\n    /* \"#utility.yul\":371:459   */\n  mstore\n    /* \"#utility.yul\":478:482   */\n  0x22\n    /* \"#utility.yul\":475:476   */\n  0x04\n    /* \"#utility.yul\":468:483   */\n  mstore\n    /* \"#utility.yul\":502:506   */\n  0x24\n    /* \"#utility.yul\":499:500   */\n  0x00\n    /* \"#utility.yul\":492:507   */\n  revert\n    /* \"#utility.yul\":519:699   */\ntag_9:\n    /* \"#utility.yul\":567:644   */\n  0x4e487b7100000000000000000000000000000000000000000000000000000000\n    /* \"#utility.yul\":564:565   */\n  0x00\n    /* \"#utility.yul\":557:645   */\n  mstore\n    /* \"#utility.yul\":664:668   */\n  0x41\n    /* \"#utility.yul\":661:662   */\n  0x04\n    /* \"#utility.yul\":654:669   */\n  mstore\n    /* \"#utility.yul\":688:692   */\n  0x24\n    /* \"#utility.yul\":685:686   */\n  0x00\n    /* \"#utility.yul\":678:693   */\n  revert\n    /* \"contracts/Array.sol\":59:545  contract Array {\r... */\ntag_14:\n  dataSize(sub_0)\n  dup1\n  dataOffset(sub_0)\n  0x00\n  codecopy\n  0x00\n  return\nstop\n\nsub_0: assembly {\n        /* \"contracts/Array.sol\":59:545  contract Array {\r... */\n      mstore(0x40, 0x80)\n      callvalue\n      dup1\n      iszero\n      tag_1\n      jumpi\n      0x00\n      dup1\n      revert\n    tag_1:\n      pop\n      jumpi(tag_2, lt(calldatasize, 0x04))\n      shr(0xe0, calldataload(0x00))\n      dup1\n      0x0320021a\n      eq\n      tag_3\n      jumpi\n      dup1\n      0x1973b266\n      eq\n      tag_4\n      jumpi\n      dup1\n      0x1a22221f\n      eq\n      tag_5\n      jumpi\n      dup1\n      0xe4c8b417\n      eq\n      tag_6\n      jumpi\n    tag_2:\n      0x00\n      dup1\n      revert\n        /* \"contracts/Array.sol\":126:188  string[5] public minhasStrings = [\"oi\",\"tudo\",\"bem\",\"\",\"joao\"] */\n    tag_3:\n      tag_7\n      0x04\n      dup1\n      calldatasize\n      sub\n      dup2\n      add\n      swap1\n      tag_8\n      swap2\n      swap1\n      tag_9\n      jump\t// in\n    tag_8:\n      tag_10\n      jump\t// in\n    tag_7:\n      mload(0x40)\n      tag_11\n      swap2\n      swap1\n      tag_12\n      jump\t// in\n    tag_11:\n      mload(0x40)\n      dup1\n      swap2\n      sub\n      swap1\n      return\n        /* \"contracts/Array.sol\":338:368  uint[] public dinamica = [8,7] */\n    tag_4:\n      tag_13\n      0x04\n      dup1\n      calldatasize\n      sub\n      dup2\n      add\n      swap1\n      tag_14\n      swap2\n      swap1\n      tag_9\n      jump\t// in\n    tag_14:\n      tag_15\n      jump\t// in\n    tag_13:\n      mload(0x40)\n      tag_16\n      swap2\n      swap1\n      tag_17\n      jump\t// in\n    tag_16:\n      mload(0x40)\n      dup1\n      swap2\n      sub\n      swap1\n      return\n        /* \"contracts/Array.sol\":427:469  uint[] public valorPadrao = new uint[](10) */\n    tag_5:\n      tag_18\n      0x04\n      dup1\n      calldatasize\n      sub\n      dup2\n      add\n      swap1\n      tag_19\n      swap2\n      swap1\n      tag_9\n      jump\t// in\n    tag_19:\n      tag_20\n      jump\t// in\n    tag_18:\n      mload(0x40)\n      tag_21\n      swap2\n      swap1\n      tag_17\n      jump\t// in\n    tag_21:\n      mload(0x40)\n      dup1\n      swap2\n      sub\n      swap1\n      return\n        /* \"contracts/Array.sol\":83:119  uint[3] public meuInteiros = [1,5,9] */\n    tag_6:\n      tag_22\n      0x04\n      dup1\n      calldatasize\n      sub\n      dup2\n      add\n      swap1\n      tag_23\n      swap2\n      swap1\n      tag_9\n      jump\t// in\n    tag_23:\n      tag_24\n      jump\t// in\n    tag_22:\n      mload(0x40)\n      tag_25\n      swap2\n      swap1\n      tag_17\n      jump\t// in\n    tag_25:\n      mload(0x40)\n      dup1\n      swap2\n      sub\n      swap1\n      return\n        /* \"contracts/Array.sol\":126:188  string[5] public minhasStrings = [\"oi\",\"tudo\",\"bem\",\"\",\"joao\"] */\n    tag_10:\n      0x03\n      dup2\n      0x05\n      dup2\n      lt\n      tag_26\n      jumpi\n      0x00\n      dup1\n      revert\n    tag_26:\n      add\n      0x00\n      swap2\n      pop\n      swap1\n      pop\n      dup1\n      sload\n      tag_28\n      swap1\n      tag_29\n      jump\t// in\n    tag_28:\n      dup1\n      0x1f\n      add\n      0x20\n      dup1\n      swap2\n      div\n      mul\n      0x20\n      add\n      mload(0x40)\n      swap1\n      dup2\n      add\n      0x40\n      mstore\n      dup1\n      swap3\n      swap2\n      swap1\n      dup2\n      dup2\n      mstore\n      0x20\n      add\n      dup3\n      dup1\n      sload\n      tag_30\n      swap1\n      tag_29\n      jump\t// in\n    tag_30:\n      dup1\n      iszero\n      tag_31\n      jumpi\n      dup1\n      0x1f\n      lt\n      tag_32\n      jumpi\n      0x0100\n      dup1\n      dup4\n      sload\n      div\n      mul\n      dup4\n      mstore\n      swap2\n      0x20\n      add\n      swap2\n      jump(tag_31)\n    tag_32:\n      dup3\n      add\n      swap2\n      swap1\n      0x00\n      mstore\n      keccak256(0x00, 0x20)\n      swap1\n    tag_33:\n      dup2\n      sload\n      dup2\n      mstore\n      swap1\n      0x01\n      add\n      swap1\n      0x20\n      add\n      dup1\n      dup4\n      gt\n      tag_33\n      jumpi\n      dup3\n      swap1\n      sub\n      0x1f\n      and\n      dup3\n      add\n      swap2\n    tag_31:\n      pop\n      pop\n      pop\n      pop\n      pop\n      dup2\n      jump\t// out\n        /* \"contracts/Array.sol\":338:368  uint[] public dinamica = [8,7] */\n    tag_15:\n      0x08\n      dup2\n      dup2\n      sload\n      dup2\n      lt\n      tag_34\n      jumpi\n      0x00\n      dup1\n      revert\n    tag_34:\n      swap1\n      0x00\n      mstore\n      keccak256(0x00, 0x20)\n      add\n      0x00\n      swap2\n      pop\n      swap1\n      pop\n      sload\n      dup2\n      jump\t// out\n        /* \"contracts/Array.sol\":427:469  uint[] public valorPadrao = new uint[](10) */\n    tag_20:\n      0x09\n      dup2\n      dup2\n      sload\n      dup2\n      lt\n      tag_36\n      jumpi\n      0x00\n      dup1\n      revert\n    tag_36:\n      swap1\n      0x00\n      mstore\n      keccak256(0x00, 0x20)\n      add\n      0x00\n      swap2\n      pop\n      swap1\n      pop\n      sload\n      dup2\n      jump\t// out\n        /* \"contracts/Array.sol\":83:119  uint[3] public meuInteiros = [1,5,9] */\n    tag_24:\n      0x00\n      dup2\n      0x03\n      dup2\n      lt\n      tag_38\n      jumpi\n      0x00\n      dup1\n      revert\n    tag_38:\n      add\n      0x00\n      swap2\n      pop\n      swap1\n      pop\n      sload\n      dup2\n      jump\t// out\n        /* \"#utility.yul\":7:146   */\n    tag_41:\n        /* \"#utility.yul\":53:58   */\n      0x00\n        /* \"#utility.yul\":91:97   */\n      dup2\n        /* \"#utility.yul\":78:98   */\n      calldataload\n        /* \"#utility.yul\":69:98   */\n      swap1\n      pop\n        /* \"#utility.yul\":107:140   */\n      tag_43\n        /* \"#utility.yul\":134:139   */\n      dup2\n        /* \"#utility.yul\":107:140   */\n      tag_44\n      jump\t// in\n    tag_43:\n        /* \"#utility.yul\":7:146   */\n      swap3\n      swap2\n      pop\n      pop\n      jump\t// out\n        /* \"#utility.yul\":152:481   */\n    tag_9:\n        /* \"#utility.yul\":211:217   */\n      0x00\n        /* \"#utility.yul\":260:262   */\n      0x20\n        /* \"#utility.yul\":248:257   */\n      dup3\n        /* \"#utility.yul\":239:246   */\n      dup5\n        /* \"#utility.yul\":235:258   */\n      sub\n        /* \"#utility.yul\":231:263   */\n      slt\n        /* \"#utility.yul\":228:347   */\n      iszero\n      tag_46\n      jumpi\n        /* \"#utility.yul\":266:345   */\n      tag_47\n      tag_48\n      jump\t// in\n    tag_47:\n        /* \"#utility.yul\":228:347   */\n    tag_46:\n        /* \"#utility.yul\":386:387   */\n      0x00\n        /* \"#utility.yul\":411:464   */\n      tag_49\n        /* \"#utility.yul\":456:463   */\n      dup5\n        /* \"#utility.yul\":447:453   */\n      dup3\n        /* \"#utility.yul\":436:445   */\n      dup6\n        /* \"#utility.yul\":432:454   */\n      add\n        /* \"#utility.yul\":411:464   */\n      tag_41\n      jump\t// in\n    tag_49:\n        /* \"#utility.yul\":401:464   */\n      swap2\n      pop\n        /* \"#utility.yul\":357:474   */\n      pop\n        /* \"#utility.yul\":152:481   */\n      swap3\n      swap2\n      pop\n      pop\n      jump\t// out\n        /* \"#utility.yul\":487:851   */\n    tag_50:\n        /* \"#utility.yul\":575:578   */\n      0x00\n        /* \"#utility.yul\":603:642   */\n      tag_52\n        /* \"#utility.yul\":636:641   */\n      dup3\n        /* \"#utility.yul\":603:642   */\n      tag_53\n      jump\t// in\n    tag_52:\n        /* \"#utility.yul\":658:729   */\n      tag_54\n        /* \"#utility.yul\":722:728   */\n      dup2\n        /* \"#utility.yul\":717:720   */\n      dup6\n        /* \"#utility.yul\":658:729   */\n      tag_55\n      jump\t// in\n    tag_54:\n        /* \"#utility.yul\":651:729   */\n      swap4\n      pop\n        /* \"#utility.yul\":738:790   */\n      tag_56\n        /* \"#utility.yul\":783:789   */\n      dup2\n        /* \"#utility.yul\":778:781   */\n      dup6\n        /* \"#utility.yul\":771:775   */\n      0x20\n        /* \"#utility.yul\":764:769   */\n      dup7\n        /* \"#utility.yul\":760:776   */\n      add\n        /* \"#utility.yul\":738:790   */\n      tag_57\n      jump\t// in\n    tag_56:\n        /* \"#utility.yul\":815:844   */\n      tag_58\n        /* \"#utility.yul\":837:843   */\n      dup2\n        /* \"#utility.yul\":815:844   */\n      tag_59\n      jump\t// in\n    tag_58:\n        /* \"#utility.yul\":810:813   */\n      dup5\n        /* \"#utility.yul\":806:845   */\n      add\n        /* \"#utility.yul\":799:845   */\n      swap2\n      pop\n        /* \"#utility.yul\":579:851   */\n      pop\n        /* \"#utility.yul\":487:851   */\n      swap3\n      swap2\n      pop\n      pop\n      jump\t// out\n        /* \"#utility.yul\":857:975   */\n    tag_60:\n        /* \"#utility.yul\":944:968   */\n      tag_62\n        /* \"#utility.yul\":962:967   */\n      dup2\n        /* \"#utility.yul\":944:968   */\n      tag_63\n      jump\t// in\n    tag_62:\n        /* \"#utility.yul\":939:942   */\n      dup3\n        /* \"#utility.yul\":932:969   */\n      mstore\n        /* \"#utility.yul\":857:975   */\n      pop\n      pop\n      jump\t// out\n        /* \"#utility.yul\":981:1294   */\n    tag_12:\n        /* \"#utility.yul\":1094:1098   */\n      0x00\n        /* \"#utility.yul\":1132:1134   */\n      0x20\n        /* \"#utility.yul\":1121:1130   */\n      dup3\n        /* \"#utility.yul\":1117:1135   */\n      add\n        /* \"#utility.yul\":1109:1135   */\n      swap1\n      pop\n        /* \"#utility.yul\":1181:1190   */\n      dup2\n        /* \"#utility.yul\":1175:1179   */\n      dup2\n        /* \"#utility.yul\":1171:1191   */\n      sub\n        /* \"#utility.yul\":1167:1168   */\n      0x00\n        /* \"#utility.yul\":1156:1165   */\n      dup4\n        /* \"#utility.yul\":1152:1169   */\n      add\n        /* \"#utility.yul\":1145:1192   */\n      mstore\n        /* \"#utility.yul\":1209:1287   */\n      tag_65\n        /* \"#utility.yul\":1282:1286   */\n      dup2\n        /* \"#utility.yul\":1273:1279   */\n      dup5\n        /* \"#utility.yul\":1209:1287   */\n      tag_50\n      jump\t// in\n    tag_65:\n        /* \"#utility.yul\":1201:1287   */\n      swap1\n      pop\n        /* \"#utility.yul\":981:1294   */\n      swap3\n      swap2\n      pop\n      pop\n      jump\t// out\n        /* \"#utility.yul\":1300:1522   */\n    tag_17:\n        /* \"#utility.yul\":1393:1397   */\n      0x00\n        /* \"#utility.yul\":1431:1433   */\n      0x20\n        /* \"#utility.yul\":1420:1429   */\n      dup3\n        /* \"#utility.yul\":1416:1434   */\n      add\n        /* \"#utility.yul\":1408:1434   */\n      swap1\n      pop\n        /* \"#utility.yul\":1444:1515   */\n      tag_67\n        /* \"#utility.yul\":1512:1513   */\n      0x00\n        /* \"#utility.yul\":1501:1510   */\n      dup4\n        /* \"#utility.yul\":1497:1514   */\n      add\n        /* \"#utility.yul\":1488:1494   */\n      dup5\n        /* \"#utility.yul\":1444:1515   */\n      tag_60\n      jump\t// in\n    tag_67:\n        /* \"#utility.yul\":1300:1522   */\n      swap3\n      swap2\n      pop\n      pop\n      jump\t// out\n        /* \"#utility.yul\":1609:1708   */\n    tag_53:\n        /* \"#utility.yul\":1661:1667   */\n      0x00\n        /* \"#utility.yul\":1695:1700   */\n      dup2\n        /* \"#utility.yul\":1689:1701   */\n      mload\n        /* \"#utility.yul\":1679:1701   */\n      swap1\n      pop\n        /* \"#utility.yul\":1609:1708   */\n      swap2\n      swap1\n      pop\n      jump\t// out\n        /* \"#utility.yul\":1714:1883   */\n    tag_55:\n        /* \"#utility.yul\":1798:1809   */\n      0x00\n        /* \"#utility.yul\":1832:1838   */\n      dup3\n        /* \"#utility.yul\":1827:1830   */\n      dup3\n        /* \"#utility.yul\":1820:1839   */\n      mstore\n        /* \"#utility.yul\":1872:1876   */\n      0x20\n        /* \"#utility.yul\":1867:1870   */\n      dup3\n        /* \"#utility.yul\":1863:1877   */\n      add\n        /* \"#utility.yul\":1848:1877   */\n      swap1\n      pop\n        /* \"#utility.yul\":1714:1883   */\n      swap3\n      swap2\n      pop\n      pop\n      jump\t// out\n        /* \"#utility.yul\":1889:1966   */\n    tag_63:\n        /* \"#utility.yul\":1926:1933   */\n      0x00\n        /* \"#utility.yul\":1955:1960   */\n      dup2\n        /* \"#utility.yul\":1944:1960   */\n      swap1\n      pop\n        /* \"#utility.yul\":1889:1966   */\n      swap2\n      swap1\n      pop\n      jump\t// out\n        /* \"#utility.yul\":1972:2279   */\n    tag_57:\n        /* \"#utility.yul\":2040:2041   */\n      0x00\n        /* \"#utility.yul\":2050:2163   */\n    tag_74:\n        /* \"#utility.yul\":2064:2070   */\n      dup4\n        /* \"#utility.yul\":2061:2062   */\n      dup2\n        /* \"#utility.yul\":2058:2071   */\n      lt\n        /* \"#utility.yul\":2050:2163   */\n      iszero\n      tag_76\n      jumpi\n        /* \"#utility.yul\":2149:2150   */\n      dup1\n        /* \"#utility.yul\":2144:2147   */\n      dup3\n        /* \"#utility.yul\":2140:2151   */\n      add\n        /* \"#utility.yul\":2134:2152   */\n      mload\n        /* \"#utility.yul\":2130:2131   */\n      dup2\n        /* \"#utility.yul\":2125:2128   */\n      dup5\n        /* \"#utility.yul\":2121:2132   */\n      add\n        /* \"#utility.yul\":2114:2153   */\n      mstore\n        /* \"#utility.yul\":2086:2088   */\n      0x20\n        /* \"#utility.yul\":2083:2084   */\n      dup2\n        /* \"#utility.yul\":2079:2089   */\n      add\n        /* \"#utility.yul\":2074:2089   */\n      swap1\n      pop\n        /* \"#utility.yul\":2050:2163   */\n      jump(tag_74)\n    tag_76:\n        /* \"#utility.yul\":2181:2187   */\n      dup4\n        /* \"#utility.yul\":2178:2179   */\n      dup2\n        /* \"#utility.yul\":2175:2188   */\n      gt\n        /* \"#utility.yul\":2172:2273   */\n      iszero\n      tag_77\n      jumpi\n        /* \"#utility.yul\":2261:2262   */\n      0x00\n        /* \"#utility.yul\":2252:2258   */\n      dup5\n        /* \"#utility.yul\":2247:2250   */\n      dup5\n        /* \"#utility.yul\":2243:2259   */\n      add\n        /* \"#utility.yul\":2236:2263   */\n      mstore\n        /* \"#utility.yul\":2172:2273   */\n    tag_77:\n        /* \"#utility.yul\":2021:2279   */\n      pop\n        /* \"#utility.yul\":1972:2279   */\n      pop\n      pop\n      pop\n      jump\t// out\n        /* \"#utility.yul\":2285:2605   */\n    tag_29:\n        /* \"#utility.yul\":2329:2335   */\n      0x00\n        /* \"#utility.yul\":2366:2367   */\n      0x02\n        /* \"#utility.yul\":2360:2364   */\n      dup3\n        /* \"#utility.yul\":2356:2368   */\n      div\n        /* \"#utility.yul\":2346:2368   */\n      swap1\n      pop\n        /* \"#utility.yul\":2413:2414   */\n      0x01\n        /* \"#utility.yul\":2407:2411   */\n      dup3\n        /* \"#utility.yul\":2403:2415   */\n      and\n        /* \"#utility.yul\":2434:2452   */\n      dup1\n        /* \"#utility.yul\":2424:2505   */\n      tag_79\n      jumpi\n        /* \"#utility.yul\":2490:2494   */\n      0x7f\n        /* \"#utility.yul\":2482:2488   */\n      dup3\n        /* \"#utility.yul\":2478:2495   */\n      and\n        /* \"#utility.yul\":2468:2495   */\n      swap2\n      pop\n        /* \"#utility.yul\":2424:2505   */\n    tag_79:\n        /* \"#utility.yul\":2552:2554   */\n      0x20\n        /* \"#utility.yul\":2544:2550   */\n      dup3\n        /* \"#utility.yul\":2541:2555   */\n      lt\n        /* \"#utility.yul\":2521:2539   */\n      dup2\n        /* \"#utility.yul\":2518:2556   */\n      eq\n        /* \"#utility.yul\":2515:2599   */\n      iszero\n      tag_80\n      jumpi\n        /* \"#utility.yul\":2571:2589   */\n      tag_81\n      tag_82\n      jump\t// in\n    tag_81:\n        /* \"#utility.yul\":2515:2599   */\n    tag_80:\n        /* \"#utility.yul\":2336:2605   */\n      pop\n        /* \"#utility.yul\":2285:2605   */\n      swap2\n      swap1\n      pop\n      jump\t// out\n        /* \"#utility.yul\":2611:2791   */\n    tag_82:\n        /* \"#utility.yul\":2659:2736   */\n      0x4e487b7100000000000000000000000000000000000000000000000000000000\n        /* \"#utility.yul\":2656:2657   */\n      0x00\n        /* \"#utility.yul\":2649:2737   */\n      mstore\n        /* \"#utility.yul\":2756:2760   */\n      0x22\n        /* \"#utility.yul\":2753:2754   */\n      0x04\n        /* \"#utility.yul\":2746:2761   */\n      mstore\n        /* \"#utility.yul\":2780:2784   */\n      0x24\n        /* \"#utility.yul\":2777:2778   */\n      0x00\n        /* \"#utility.yul\":2770:2785   */\n      revert\n        /* \"#utility.yul\":2920:3037   */\n    tag_48:\n        /* \"#utility.yul\":3029:3030   */\n      0x00\n        /* \"#utility.yul\":3026:3027   */\n      dup1\n        /* \"#utility.yul\":3019:3031   */\n      revert\n        /* \"#utility.yul\":3043:3145   */\n    tag_59:\n        /* \"#utility.yul\":3084:3090   */\n      0x00\n        /* \"#utility.yul\":3135:3137   */\n      0x1f\n        /* \"#utility.yul\":3131:3138   */\n      not\n        /* \"#utility.yul\":3126:3128   */\n      0x1f\n        /* \"#utility.yul\":3119:3124   */\n      dup4\n        /* \"#utility.yul\":3115:3129   */\n      add\n        /* \"#utility.yul\":3111:3139   */\n      and\n        /* \"#utility.yul\":3101:3139   */\n      swap1\n      pop\n        /* \"#utility.yul\":3043:3145   */\n      swap2\n      swap1\n      pop\n      jump\t// out\n        /* \"#utility.yul\":3151:3273   */\n    tag_44:\n        /* \"#utility.yul\":3224:3248   */\n      tag_89\n        /* \"#utility.yul\":3242:3247   */\n      dup2\n        /* \"#utility.yul\":3224:3248   */\n      tag_63\n      jump\t// in\n    tag_89:\n        /* \"#utility.yul\":3217:3222   */\n      dup2\n        /* \"#utility.yul\":3214:3249   */\n      eq\n        /* \"#utility.yul\":3204:3267   */\n      tag_90\n      jumpi\n        /* \"#utility.yul\":3263:3264   */\n      0x00\n        /* \"#utility.yul\":3260:3261   */\n      dup1\n        /* \"#utility.yul\":3253:3265   */\n      revert\n        /* \"#utility.yul\":3204:3267   */\n    tag_90:\n        /* \"#utility.yul\":3151:3273   */\n      pop\n      jump\t// out\n\n    auxdata: 0xa26469706673582212209b4a292edaae8d404fb716c123be7dc8c9ab813785313ed030e7815116493a2764736f6c63430008070033\n}\n",
				"bytecode": {
					"linkReferences": {},
					"object": "60806040526040518060600160405280600160ff168152602001600560ff168152602001600960ff16815250600090600361003b9291906101f7565b506040518060a001604052806040518060400160405280600281526020017f6f6900000000000000000000000000000000000000000000000000000000000081525081526020016040518060400160405280600481526020017f7475646f0000000000000000000000000000000000000000000000000000000081525081526020016040518060400160405280600381526020017f62656d000000000000000000000000000000000000000000000000000000000081525081526020016040518060200160405280600081525081526020016040518060400160405280600481526020017f6a6f616f00000000000000000000000000000000000000000000000000000000815250815250600390600561015692919061023c565b506040518060400160405280600860ff168152602001600760ff16815250600890600261018492919061028f565b50600a67ffffffffffffffff8111156101a05761019f610496565b5b6040519080825280602002602001820160405280156101ce5781602001602082028036833780820191505090505b50600990805190602001906101e49291906102e1565b503480156101f157600080fd5b506104c5565b826003810192821561022b579160200282015b8281111561022a578251829060ff1690559160200191906001019061020a565b5b509050610238919061032e565b5090565b826005810192821561027e579160200282015b8281111561027d57825182908051906020019061026d92919061034b565b509160200191906001019061024f565b5b50905061028b91906103d1565b5090565b8280548282559060005260206000209081019282156102d0579160200282015b828111156102cf578251829060ff169055916020019190600101906102af565b5b5090506102dd919061032e565b5090565b82805482825590600052602060002090810192821561031d579160200282015b8281111561031c578251825591602001919060010190610301565b5b50905061032a919061032e565b5090565b5b8082111561034757600081600090555060010161032f565b5090565b82805461035790610435565b90600052602060002090601f01602090048101928261037957600085556103c0565b82601f1061039257805160ff19168380011785556103c0565b828001600101855582156103c0579182015b828111156103bf5782518255916020019190600101906103a4565b5b5090506103cd919061032e565b5090565b5b808211156103f157600081816103e891906103f5565b506001016103d2565b5090565b50805461040190610435565b6000825580601f106104135750610432565b601f016020900490600052602060002090810190610431919061032e565b5b50565b6000600282049050600182168061044d57607f821691505b6020821081141561046157610460610467565b5b50919050565b7f4e487b7100000000000000000000000000000000000000000000000000000000600052602260045260246000fd5b7f4e487b7100000000000000000000000000000000000000000000000000000000600052604160045260246000fd5b6103fb806104d46000396000f3fe608060405234801561001057600080fd5b506004361061004c5760003560e01c80630320021a146100515780631973b266146100815780631a22221f146100b1578063e4c8b417146100e1575b600080fd5b61006b6004803603810190610066919061022c565b610111565b60405161007891906102a1565b60405180910390f35b61009b6004803603810190610096919061022c565b6101b4565b6040516100a891906102c3565b60405180910390f35b6100cb60048036038101906100c6919061022c565b6101d8565b6040516100d891906102c3565b60405180910390f35b6100fb60048036038101906100f6919061022c565b6101fc565b60405161010891906102c3565b60405180910390f35b6003816005811061012157600080fd5b01600091509050805461013390610337565b80601f016020809104026020016040519081016040528092919081815260200182805461015f90610337565b80156101ac5780601f10610181576101008083540402835291602001916101ac565b820191906000526020600020905b81548152906001019060200180831161018f57829003601f168201915b505050505081565b600881815481106101c457600080fd5b906000526020600020016000915090505481565b600981815481106101e857600080fd5b906000526020600020016000915090505481565b6000816003811061020c57600080fd5b016000915090505481565b600081359050610226816103ae565b92915050565b60006020828403121561024257610241610398565b5b600061025084828501610217565b91505092915050565b6000610264826102de565b61026e81856102e9565b935061027e818560208601610304565b6102878161039d565b840191505092915050565b61029b816102fa565b82525050565b600060208201905081810360008301526102bb8184610259565b905092915050565b60006020820190506102d86000830184610292565b92915050565b600081519050919050565b600082825260208201905092915050565b6000819050919050565b60005b83811015610322578082015181840152602081019050610307565b83811115610331576000848401525b50505050565b6000600282049050600182168061034f57607f821691505b6020821081141561036357610362610369565b5b50919050565b7f4e487b7100000000000000000000000000000000000000000000000000000000600052602260045260246000fd5b600080fd5b6000601f19601f8301169050919050565b6103b7816102fa565b81146103c257600080fd5b5056fea26469706673582212209b4a292edaae8d404fb716c123be7dc8c9ab813785313ed030e7815116493a2764736f6c63430008070033",
					"opcodes": "PUSH1 0x80 PUSH1 0x40 MSTORE PUSH1 0x40 MLOAD DUP1 PUSH1 0x60 ADD PUSH1 0x40 MSTORE DUP1 PUSH1 0x1 PUSH1 0xFF AND DUP2 MSTORE PUSH1 0x20 ADD PUSH1 0x5 PUSH1 0xFF AND DUP2 MSTORE PUSH1 0x20 ADD PUSH1 0x9 PUSH1 0xFF AND DUP2 MSTORE POP PUSH1 0x0 SWAP1 PUSH1 0x3 PUSH2 0x3B SWAP3 SWAP2 SWAP1 PUSH2 0x1F7 JUMP JUMPDEST POP PUSH1 0x40 MLOAD DUP1 PUSH1 0xA0 ADD PUSH1 0x40 MSTORE DUP1 PUSH1 0x40 MLOAD DUP1 PUSH1 0x40 ADD PUSH1 0x40 MSTORE DUP1 PUSH1 0x2 DUP2 MSTORE PUSH1 0x20 ADD PUSH32 0x6F69000000000000000000000000000000000000000000000000000000000000 DUP2 MSTORE POP DUP2 MSTORE PUSH1 0x20 ADD PUSH1 0x40 MLOAD DUP1 PUSH1 0x40 ADD PUSH1 0x40 MSTORE DUP1 PUSH1 0x4 DUP2 MSTORE PUSH1 0x20 ADD PUSH32 0x7475646F00000000000000000000000000000000000000000000000000000000 DUP2 MSTORE POP DUP2 MSTORE PUSH1 0x20 ADD PUSH1 0x40 MLOAD DUP1 PUSH1 0x40 ADD PUSH1 0x40 MSTORE DUP1 PUSH1 0x3 DUP2 MSTORE PUSH1 0x20 ADD PUSH32 0x62656D0000000000000000000000000000000000000000000000000000000000 DUP2 MSTORE POP DUP2 MSTORE PUSH1 0x20 ADD PUSH1 0x40 MLOAD DUP1 PUSH1 0x20 ADD PUSH1 0x40 MSTORE DUP1 PUSH1 0x0 DUP2 MSTORE POP DUP2 MSTORE PUSH1 0x20 ADD PUSH1 0x40 MLOAD DUP1 PUSH1 0x40 ADD PUSH1 0x40 MSTORE DUP1 PUSH1 0x4 DUP2 MSTORE PUSH1 0x20 ADD PUSH32 0x6A6F616F00000000000000000000000000000000000000000000000000000000 DUP2 MSTORE POP DUP2 MSTORE POP PUSH1 0x3 SWAP1 PUSH1 0x5 PUSH2 0x156 SWAP3 SWAP2 SWAP1 PUSH2 0x23C JUMP JUMPDEST POP PUSH1 0x40 MLOAD DUP1 PUSH1 0x40 ADD PUSH1 0x40 MSTORE DUP1 PUSH1 0x8 PUSH1 0xFF AND DUP2 MSTORE PUSH1 0x20 ADD PUSH1 0x7 PUSH1 0xFF AND DUP2 MSTORE POP PUSH1 0x8 SWAP1 PUSH1 0x2 PUSH2 0x184 SWAP3 SWAP2 SWAP1 PUSH2 0x28F JUMP JUMPDEST POP PUSH1 0xA PUSH8 0xFFFFFFFFFFFFFFFF DUP2 GT ISZERO PUSH2 0x1A0 JUMPI PUSH2 0x19F PUSH2 0x496 JUMP JUMPDEST JUMPDEST PUSH1 0x40 MLOAD SWAP1 DUP1 DUP3 MSTORE DUP1 PUSH1 0x20 MUL PUSH1 0x20 ADD DUP3 ADD PUSH1 0x40 MSTORE DUP1 ISZERO PUSH2 0x1CE JUMPI DUP2 PUSH1 0x20 ADD PUSH1 0x20 DUP3 MUL DUP1 CALLDATASIZE DUP4 CALLDATACOPY DUP1 DUP3 ADD SWAP2 POP POP SWAP1 POP JUMPDEST POP PUSH1 0x9 SWAP1 DUP1 MLOAD SWAP1 PUSH1 0x20 ADD SWAP1 PUSH2 0x1E4 SWAP3 SWAP2 SWAP1 PUSH2 0x2E1 JUMP JUMPDEST POP CALLVALUE DUP1 ISZERO PUSH2 0x1F1 JUMPI PUSH1 0x0 DUP1 REVERT JUMPDEST POP PUSH2 0x4C5 JUMP JUMPDEST DUP3 PUSH1 0x3 DUP2 ADD SWAP3 DUP3 ISZERO PUSH2 0x22B JUMPI SWAP2 PUSH1 0x20 MUL DUP3 ADD JUMPDEST DUP3 DUP2 GT ISZERO PUSH2 0x22A JUMPI DUP3 MLOAD DUP3 SWAP1 PUSH1 0xFF AND SWAP1 SSTORE SWAP2 PUSH1 0x20 ADD SWAP2 SWAP1 PUSH1 0x1 ADD SWAP1 PUSH2 0x20A JUMP JUMPDEST JUMPDEST POP SWAP1 POP PUSH2 0x238 SWAP2 SWAP1 PUSH2 0x32E JUMP JUMPDEST POP SWAP1 JUMP JUMPDEST DUP3 PUSH1 0x5 DUP2 ADD SWAP3 DUP3 ISZERO PUSH2 0x27E JUMPI SWAP2 PUSH1 0x20 MUL DUP3 ADD JUMPDEST DUP3 DUP2 GT ISZERO PUSH2 0x27D JUMPI DUP3 MLOAD DUP3 SWAP1 DUP1 MLOAD SWAP1 PUSH1 0x20 ADD SWAP1 PUSH2 0x26D SWAP3 SWAP2 SWAP1 PUSH2 0x34B JUMP JUMPDEST POP SWAP2 PUSH1 0x20 ADD SWAP2 SWAP1 PUSH1 0x1 ADD SWAP1 PUSH2 0x24F JUMP JUMPDEST JUMPDEST POP SWAP1 POP PUSH2 0x28B SWAP2 SWAP1 PUSH2 0x3D1 JUMP JUMPDEST POP SWAP1 JUMP JUMPDEST DUP3 DUP1 SLOAD DUP3 DUP3 SSTORE SWAP1 PUSH1 0x0 MSTORE PUSH1 0x20 PUSH1 0x0 KECCAK256 SWAP1 DUP2 ADD SWAP3 DUP3 ISZERO PUSH2 0x2D0 JUMPI SWAP2 PUSH1 0x20 MUL DUP3 ADD JUMPDEST DUP3 DUP2 GT ISZERO PUSH2 0x2CF JUMPI DUP3 MLOAD DUP3 SWAP1 PUSH1 0xFF AND SWAP1 SSTORE SWAP2 PUSH1 0x20 ADD SWAP2 SWAP1 PUSH1 0x1 ADD SWAP1 PUSH2 0x2AF JUMP JUMPDEST JUMPDEST POP SWAP1 POP PUSH2 0x2DD SWAP2 SWAP1 PUSH2 0x32E JUMP JUMPDEST POP SWAP1 JUMP JUMPDEST DUP3 DUP1 SLOAD DUP3 DUP3 SSTORE SWAP1 PUSH1 0x0 MSTORE PUSH1 0x20 PUSH1 0x0 KECCAK256 SWAP1 DUP2 ADD SWAP3 DUP3 ISZERO PUSH2 0x31D JUMPI SWAP2 PUSH1 0x20 MUL DUP3 ADD JUMPDEST DUP3 DUP2 GT ISZERO PUSH2 0x31C JUMPI DUP3 MLOAD DUP3 SSTORE SWAP2 PUSH1 0x20 ADD SWAP2 SWAP1 PUSH1 0x1 ADD SWAP1 PUSH2 0x301 JUMP JUMPDEST JUMPDEST POP SWAP1 POP PUSH2 0x32A SWAP2 SWAP1 PUSH2 0x32E JUMP JUMPDEST POP SWAP1 JUMP JUMPDEST JUMPDEST DUP1 DUP3 GT ISZERO PUSH2 0x347 JUMPI PUSH1 0x0 DUP2 PUSH1 0x0 SWAP1 SSTORE POP PUSH1 0x1 ADD PUSH2 0x32F JUMP JUMPDEST POP SWAP1 JUMP JUMPDEST DUP3 DUP1 SLOAD PUSH2 0x357 SWAP1 PUSH2 0x435 JUMP JUMPDEST SWAP1 PUSH1 0x0 MSTORE PUSH1 0x20 PUSH1 0x0 KECCAK256 SWAP1 PUSH1 0x1F ADD PUSH1 0x20 SWAP1 DIV DUP2 ADD SWAP3 DUP3 PUSH2 0x379 JUMPI PUSH1 0x0 DUP6 SSTORE PUSH2 0x3C0 JUMP JUMPDEST DUP3 PUSH1 0x1F LT PUSH2 0x392 JUMPI DUP1 MLOAD PUSH1 0xFF NOT AND DUP4 DUP1 ADD OR DUP6 SSTORE PUSH2 0x3C0 JUMP JUMPDEST DUP3 DUP1 ADD PUSH1 0x1 ADD DUP6 SSTORE DUP3 ISZERO PUSH2 0x3C0 JUMPI SWAP2 DUP3 ADD JUMPDEST DUP3 DUP2 GT ISZERO PUSH2 0x3BF JUMPI DUP3 MLOAD DUP3 SSTORE SWAP2 PUSH1 0x20 ADD SWAP2 SWAP1 PUSH1 0x1 ADD SWAP1 PUSH2 0x3A4 JUMP JUMPDEST JUMPDEST POP SWAP1 POP PUSH2 0x3CD SWAP2 SWAP1 PUSH2 0x32E JUMP JUMPDEST POP SWAP1 JUMP JUMPDEST JUMPDEST DUP1 DUP3 GT ISZERO PUSH2 0x3F1 JUMPI PUSH1 0x0 DUP2 DUP2 PUSH2 0x3E8 SWAP2 SWAP1 PUSH2 0x3F5 JUMP JUMPDEST POP PUSH1 0x1 ADD PUSH2 0x3D2 JUMP JUMPDEST POP SWAP1 JUMP JUMPDEST POP DUP1 SLOAD PUSH2 0x401 SWAP1 PUSH2 0x435 JUMP JUMPDEST PUSH1 0x0 DUP3 SSTORE DUP1 PUSH1 0x1F LT PUSH2 0x413 JUMPI POP PUSH2 0x432 JUMP JUMPDEST PUSH1 0x1F ADD PUSH1 0x20 SWAP1 DIV SWAP1 PUSH1 0x0 MSTORE PUSH1 0x20 PUSH1 0x0 KECCAK256 SWAP1 DUP2 ADD SWAP1 PUSH2 0x431 SWAP2 SWAP1 PUSH2 0x32E JUMP JUMPDEST JUMPDEST POP JUMP JUMPDEST PUSH1 0x0 PUSH1 0x2 DUP3 DIV SWAP1 POP PUSH1 0x1 DUP3 AND DUP1 PUSH2 0x44D JUMPI PUSH1 0x7F DUP3 AND SWAP2 POP JUMPDEST PUSH1 0x20 DUP3 LT DUP2 EQ ISZERO PUSH2 0x461 JUMPI PUSH2 0x460 PUSH2 0x467 JUMP JUMPDEST JUMPDEST POP SWAP2 SWAP1 POP JUMP JUMPDEST PUSH32 0x4E487B7100000000000000000000000000000000000000000000000000000000 PUSH1 0x0 MSTORE PUSH1 0x22 PUSH1 0x4 MSTORE PUSH1 0x24 PUSH1 0x0 REVERT JUMPDEST PUSH32 0x4E487B7100000000000000000000000000000000000000000000000000000000 PUSH1 0x0 MSTORE PUSH1 0x41 PUSH1 0x4 MSTORE PUSH1 0x24 PUSH1 0x0 REVERT JUMPDEST PUSH2 0x3FB DUP1 PUSH2 0x4D4 PUSH1 0x0 CODECOPY PUSH1 0x0 RETURN INVALID PUSH1 0x80 PUSH1 0x40 MSTORE CALLVALUE DUP1 ISZERO PUSH2 0x10 JUMPI PUSH1 0x0 DUP1 REVERT JUMPDEST POP PUSH1 0x4 CALLDATASIZE LT PUSH2 0x4C JUMPI PUSH1 0x0 CALLDATALOAD PUSH1 0xE0 SHR DUP1 PUSH4 0x320021A EQ PUSH2 0x51 JUMPI DUP1 PUSH4 0x1973B266 EQ PUSH2 0x81 JUMPI DUP1 PUSH4 0x1A22221F EQ PUSH2 0xB1 JUMPI DUP1 PUSH4 0xE4C8B417 EQ PUSH2 0xE1 JUMPI JUMPDEST PUSH1 0x0 DUP1 REVERT JUMPDEST PUSH2 0x6B PUSH1 0x4 DUP1 CALLDATASIZE SUB DUP2 ADD SWAP1 PUSH2 0x66 SWAP2 SWAP1 PUSH2 0x22C JUMP JUMPDEST PUSH2 0x111 JUMP JUMPDEST PUSH1 0x40 MLOAD PUSH2 0x78 SWAP2 SWAP1 PUSH2 0x2A1 JUMP JUMPDEST PUSH1 0x40 MLOAD DUP1 SWAP2 SUB SWAP1 RETURN JUMPDEST PUSH2 0x9B PUSH1 0x4 DUP1 CALLDATASIZE SUB DUP2 ADD SWAP1 PUSH2 0x96 SWAP2 SWAP1 PUSH2 0x22C JUMP JUMPDEST PUSH2 0x1B4 JUMP JUMPDEST PUSH1 0x40 MLOAD PUSH2 0xA8 SWAP2 SWAP1 PUSH2 0x2C3 JUMP JUMPDEST PUSH1 0x40 MLOAD DUP1 SWAP2 SUB SWAP1 RETURN JUMPDEST PUSH2 0xCB PUSH1 0x4 DUP1 CALLDATASIZE SUB DUP2 ADD SWAP1 PUSH2 0xC6 SWAP2 SWAP1 PUSH2 0x22C JUMP JUMPDEST PUSH2 0x1D8 JUMP JUMPDEST PUSH1 0x40 MLOAD PUSH2 0xD8 SWAP2 SWAP1 PUSH2 0x2C3 JUMP JUMPDEST PUSH1 0x40 MLOAD DUP1 SWAP2 SUB SWAP1 RETURN JUMPDEST PUSH2 0xFB PUSH1 0x4 DUP1 CALLDATASIZE SUB DUP2 ADD SWAP1 PUSH2 0xF6 SWAP2 SWAP1 PUSH2 0x22C JUMP JUMPDEST PUSH2 0x1FC JUMP JUMPDEST PUSH1 0x40 MLOAD PUSH2 0x108 SWAP2 SWAP1 PUSH2 0x2C3 JUMP JUMPDEST PUSH1 0x40 MLOAD DUP1 SWAP2 SUB SWAP1 RETURN JUMPDEST PUSH1 0x3 DUP2 PUSH1 0x5 DUP2 LT PUSH2 0x121 JUMPI PUSH1 0x0 DUP1 REVERT JUMPDEST ADD PUSH1 0x0 SWAP2 POP SWAP1 POP DUP1 SLOAD PUSH2 0x133 SWAP1 PUSH2 0x337 JUMP JUMPDEST DUP1 PUSH1 0x1F ADD PUSH1 0x20 DUP1 SWAP2 DIV MUL PUSH1 0x20 ADD PUSH1 0x40 MLOAD SWAP1 DUP2 ADD PUSH1 0x40 MSTORE DUP1 SWAP3 SWAP2 SWAP1 DUP2 DUP2 MSTORE PUSH1 0x20 ADD DUP3 DUP1 SLOAD PUSH2 0x15F SWAP1 PUSH2 0x337 JUMP JUMPDEST DUP1 ISZERO PUSH2 0x1AC JUMPI DUP1 PUSH1 0x1F LT PUSH2 0x181 JUMPI PUSH2 0x100 DUP1 DUP4 SLOAD DIV MUL DUP4 MSTORE SWAP2 PUSH1 0x20 ADD SWAP2 PUSH2 0x1AC JUMP JUMPDEST DUP3 ADD SWAP2 SWAP1 PUSH1 0x0 MSTORE PUSH1 0x20 PUSH1 0x0 KECCAK256 SWAP1 JUMPDEST DUP2 SLOAD DUP2 MSTORE SWAP1 PUSH1 0x1 ADD SWAP1 PUSH1 0x20 ADD DUP1 DUP4 GT PUSH2 0x18F JUMPI DUP3 SWAP1 SUB PUSH1 0x1F AND DUP3 ADD SWAP2 JUMPDEST POP POP POP POP POP DUP2 JUMP JUMPDEST PUSH1 0x8 DUP2 DUP2 SLOAD DUP2 LT PUSH2 0x1C4 JUMPI PUSH1 0x0 DUP1 REVERT JUMPDEST SWAP1 PUSH1 0x0 MSTORE PUSH1 0x20 PUSH1 0x0 KECCAK256 ADD PUSH1 0x0 SWAP2 POP SWAP1 POP SLOAD DUP2 JUMP JUMPDEST PUSH1 0x9 DUP2 DUP2 SLOAD DUP2 LT PUSH2 0x1E8 JUMPI PUSH1 0x0 DUP1 REVERT JUMPDEST SWAP1 PUSH1 0x0 MSTORE PUSH1 0x20 PUSH1 0x0 KECCAK256 ADD PUSH1 0x0 SWAP2 POP SWAP1 POP SLOAD DUP2 JUMP JUMPDEST PUSH1 0x0 DUP2 PUSH1 0x3 DUP2 LT PUSH2 0x20C JUMPI PUSH1 0x0 DUP1 REVERT JUMPDEST ADD PUSH1 0x0 SWAP2 POP SWAP1 POP SLOAD DUP2 JUMP JUMPDEST PUSH1 0x0 DUP2 CALLDATALOAD SWAP1 POP PUSH2 0x226 DUP2 PUSH2 0x3AE JUMP JUMPDEST SWAP3 SWAP2 POP POP JUMP JUMPDEST PUSH1 0x0 PUSH1 0x20 DUP3 DUP5 SUB SLT ISZERO PUSH2 0x242 JUMPI PUSH2 0x241 PUSH2 0x398 JUMP JUMPDEST JUMPDEST PUSH1 0x0 PUSH2 0x250 DUP5 DUP3 DUP6 ADD PUSH2 0x217 JUMP JUMPDEST SWAP2 POP POP SWAP3 SWAP2 POP POP JUMP JUMPDEST PUSH1 0x0 PUSH2 0x264 DUP3 PUSH2 0x2DE JUMP JUMPDEST PUSH2 0x26E DUP2 DUP6 PUSH2 0x2E9 JUMP JUMPDEST SWAP4 POP PUSH2 0x27E DUP2 DUP6 PUSH1 0x20 DUP7 ADD PUSH2 0x304 JUMP JUMPDEST PUSH2 0x287 DUP2 PUSH2 0x39D JUMP JUMPDEST DUP5 ADD SWAP2 POP POP SWAP3 SWAP2 POP POP JUMP JUMPDEST PUSH2 0x29B DUP2 PUSH2 0x2FA JUMP JUMPDEST DUP3 MSTORE POP POP JUMP JUMPDEST PUSH1 0x0 PUSH1 0x20 DUP3 ADD SWAP1 POP DUP2 DUP2 SUB PUSH1 0x0 DUP4 ADD MSTORE PUSH2 0x2BB DUP2 DUP5 PUSH2 0x259 JUMP JUMPDEST SWAP1 POP SWAP3 SWAP2 POP POP JUMP JUMPDEST PUSH1 0x0 PUSH1 0x20 DUP3 ADD SWAP1 POP PUSH2 0x2D8 PUSH1 0x0 DUP4 ADD DUP5 PUSH2 0x292 JUMP JUMPDEST SWAP3 SWAP2 POP POP JUMP JUMPDEST PUSH1 0x0 DUP2 MLOAD SWAP1 POP SWAP2 SWAP1 POP JUMP JUMPDEST PUSH1 0x0 DUP3 DUP3 MSTORE PUSH1 0x20 DUP3 ADD SWAP1 POP SWAP3 SWAP2 POP POP JUMP JUMPDEST PUSH1 0x0 DUP2 SWAP1 POP SWAP2 SWAP1 POP JUMP JUMPDEST PUSH1 0x0 JUMPDEST DUP4 DUP2 LT ISZERO PUSH2 0x322 JUMPI DUP1 DUP3 ADD MLOAD DUP2 DUP5 ADD MSTORE PUSH1 0x20 DUP2 ADD SWAP1 POP PUSH2 0x307 JUMP JUMPDEST DUP4 DUP2 GT ISZERO PUSH2 0x331 JUMPI PUSH1 0x0 DUP5 DUP5 ADD MSTORE JUMPDEST POP POP POP POP JUMP JUMPDEST PUSH1 0x0 PUSH1 0x2 DUP3 DIV SWAP1 POP PUSH1 0x1 DUP3 AND DUP1 PUSH2 0x34F JUMPI PUSH1 0x7F DUP3 AND SWAP2 POP JUMPDEST PUSH1 0x20 DUP3 LT DUP2 EQ ISZERO PUSH2 0x363 JUMPI PUSH2 0x362 PUSH2 0x369 JUMP JUMPDEST JUMPDEST POP SWAP2 SWAP1 POP JUMP JUMPDEST PUSH32 0x4E487B7100000000000000000000000000000000000000000000000000000000 PUSH1 0x0 MSTORE PUSH1 0x22 PUSH1 0x4 MSTORE PUSH1 0x24 PUSH1 0x0 REVERT JUMPDEST PUSH1 0x0 DUP1 REVERT JUMPDEST PUSH1 0x0 PUSH1 0x1F NOT PUSH1 0x1F DUP4 ADD AND SWAP1 POP SWAP2 SWAP1 POP JUMP JUMPDEST PUSH2 0x3B7 DUP2 PUSH2 0x2FA JUMP JUMPDEST DUP2 EQ PUSH2 0x3C2 JUMPI PUSH1 0x0 DUP1 REVERT JUMPDEST POP JUMP INVALID LOG2 PUSH5 0x6970667358 0x22 SLT KECCAK256 SWAP12 0x4A 0x29 0x2E 0xDA 0xAE DUP14 BLOCKHASH 0x4F 0xB7 AND 0xC1 0x23 0xBE PUSH30 0xC8C9AB813785313ED030E7815116493A2764736F6C634300080700330000 "
				},
				"gasEstimates": {
					"creation": {
						"codeDepositCost": "203800",
						"executionCost": "infinite",
						"totalCost": "infinite"
					},
					"external": {
						"dinamica(uint256)": "infinite",
						"meuInteiros(uint256)": "infinite",
						"minhasStrings(uint256)": "infinite",
						"valorPadrao(uint256)": "infinite"
					}
				},
				"methodIdentifiers": {
					"dinamica(uint256)": "1973b266",
					"meuInteiros(uint256)": "e4c8b417",
					"minhasStrings(uint256)": "0320021a",
					"valorPadrao(uint256)": "1a22221f"
				}
			},
			"storageLayout": {
				"storage": [
					{
						"astId": 9,
						"contract": "contracts/Array.sol:Array",
						"label": "meuInteiros",
						"offset": 0,
						"slot": "0",
						"type": "t_array(t_uint256)3_storage"
					},
					{
						"astId": 19,
						"contract": "contracts/Array.sol:Array",
						"label": "minhasStrings",
						"offset": 0,
						"slot": "3",
						"type": "t_array(t_string_storage)5_storage"
					},
					{
						"astId": 25,
						"contract": "contracts/Array.sol:Array",
						"label": "dinamica",
						"offset": 0,
						"slot": "8",
						"type": "t_array(t_uint256)dyn_storage"
					},
					{
						"astId": 33,
						"contract": "contracts/Array.sol:Array",
						"label": "valorPadrao",
						"offset": 0,
						"slot": "9",
						"type": "t_array(t_uint256)dyn_storage"
					}
				],
				"types": {
					"t_array(t_string_storage)5_storage": {
						"base": "t_string_storage",
						"encoding": "inplace",
						"label": "string[5]",
						"numberOfBytes": "160"
					},
					"t_array(t_uint256)3_storage": {
						"base": "t_uint256",
						"encoding": "inplace",
						"label": "uint256[3]",
						"numberOfBytes": "96"
					},
					"t_array(t_uint256)dyn_storage": {
						"base": "t_uint256",
						"encoding": "dynamic_array",
						"label": "uint256[]",
						"numberOfBytes": "32"
					},
					"t_string_storage": {
						"encoding": "bytes",
						"label": "string",
						"numberOfBytes": "32"
					},
					"t_uint256": {
						"encoding": "inplace",
						"label": "uint256",
						"numberOfBytes": "32"
					}
				}
			},
			"userdoc": {
				"kind": "user",
				"methods": {},
				"version": 1
			}
		}
	}
}