{
	"contracts/VisibilidadeFunc.sol": {
		"visibilidadeFunc": {
			"abi": [
				{
					"inputs": [],
					"name": "incrementa",
					"outputs": [],
					"stateMutability": "nonpayable",
					"type": "function"
				},
				{
					"inputs": [],
					"name": "incrementaExterno",
					"outputs": [],
					"stateMutability": "nonpayable",
					"type": "function"
				},
				{
					"inputs": [],
					"name": "numero",
					"outputs": [
						{
							"internalType": "int256",
							"name": "",
							"type": "int256"
						}
					],
					"stateMutability": "view",
					"type": "function"
				}
			],
			"devdoc": {
				"kind": "dev",
				"methods": {},
				"version": 1
			},
			"evm": {
				"assembly": "    /* \"contracts/VisibilidadeFunc.sol\":125:511  contract visibilidadeFunc {\r... */\n  mstore(0x40, 0x80)\n    /* \"contracts/VisibilidadeFunc.sol\":180:181  0 */\n  0x00\n    /* \"contracts/VisibilidadeFunc.sol\":160:181  int public numero = 0 */\n  dup1\n  sstore\n    /* \"contracts/VisibilidadeFunc.sol\":125:511  contract visibilidadeFunc {\r... */\n  callvalue\n  dup1\n  iszero\n  tag_1\n  jumpi\n  0x00\n  dup1\n  revert\ntag_1:\n  pop\n  dataSize(sub_0)\n  dup1\n  dataOffset(sub_0)\n  0x00\n  codecopy\n  0x00\n  return\nstop\n\nsub_0: assembly {\n        /* \"contracts/VisibilidadeFunc.sol\":125:511  contract visibilidadeFunc {\r... */\n      mstore(0x40, 0x80)\n      callvalue\n      dup1\n      iszero\n      tag_1\n      jumpi\n      0x00\n      dup1\n      revert\n    tag_1:\n      pop\n      jumpi(tag_2, lt(calldatasize, 0x04))\n      shr(0xe0, calldataload(0x00))\n      dup1\n      0x7e438072\n      eq\n      tag_3\n      jumpi\n      dup1\n      0x91f5de38\n      eq\n      tag_4\n      jumpi\n      dup1\n      0xa72548b4\n      eq\n      tag_5\n      jumpi\n    tag_2:\n      0x00\n      dup1\n      revert\n        /* \"contracts/VisibilidadeFunc.sol\":265:341  function incrementaExterno() external {\r... */\n    tag_3:\n      tag_6\n      tag_7\n      jump\t// in\n    tag_6:\n      stop\n        /* \"contracts/VisibilidadeFunc.sol\":160:181  int public numero = 0 */\n    tag_4:\n      tag_8\n      tag_9\n      jump\t// in\n    tag_8:\n      mload(0x40)\n      tag_10\n      swap2\n      swap1\n      tag_11\n      jump\t// in\n    tag_10:\n      mload(0x40)\n      dup1\n      swap2\n      sub\n      swap1\n      return\n        /* \"contracts/VisibilidadeFunc.sol\":190:257  function incrementa() public {\r... */\n    tag_5:\n      tag_12\n      tag_13\n      jump\t// in\n    tag_12:\n      stop\n        /* \"contracts/VisibilidadeFunc.sol\":265:341  function incrementaExterno() external {\r... */\n    tag_7:\n        /* \"contracts/VisibilidadeFunc.sol\":332:333  1 */\n      0x01\n        /* \"contracts/VisibilidadeFunc.sol\":323:329  numero */\n      sload(0x00)\n        /* \"contracts/VisibilidadeFunc.sol\":323:333  numero + 1 */\n      tag_15\n      swap2\n      swap1\n      tag_16\n      jump\t// in\n    tag_15:\n        /* \"contracts/VisibilidadeFunc.sol\":314:320  numero */\n      0x00\n        /* \"contracts/VisibilidadeFunc.sol\":314:333  numero = numero + 1 */\n      dup2\n      swap1\n      sstore\n      pop\n        /* \"contracts/VisibilidadeFunc.sol\":265:341  function incrementaExterno() external {\r... */\n      jump\t// out\n        /* \"contracts/VisibilidadeFunc.sol\":160:181  int public numero = 0 */\n    tag_9:\n      sload(0x00)\n      dup2\n      jump\t// out\n        /* \"contracts/VisibilidadeFunc.sol\":190:257  function incrementa() public {\r... */\n    tag_13:\n        /* \"contracts/VisibilidadeFunc.sol\":248:249  1 */\n      0x01\n        /* \"contracts/VisibilidadeFunc.sol\":239:245  numero */\n      sload(0x00)\n        /* \"contracts/VisibilidadeFunc.sol\":239:249  numero + 1 */\n      tag_18\n      swap2\n      swap1\n      tag_16\n      jump\t// in\n    tag_18:\n        /* \"contracts/VisibilidadeFunc.sol\":230:236  numero */\n      0x00\n        /* \"contracts/VisibilidadeFunc.sol\":230:249  numero = numero + 1 */\n      dup2\n      swap1\n      sstore\n      pop\n        /* \"contracts/VisibilidadeFunc.sol\":190:257  function incrementa() public {\r... */\n      jump\t// out\n        /* \"#utility.yul\":7:122   */\n    tag_20:\n        /* \"#utility.yul\":92:115   */\n      tag_22\n        /* \"#utility.yul\":109:114   */\n      dup2\n        /* \"#utility.yul\":92:115   */\n      tag_23\n      jump\t// in\n    tag_22:\n        /* \"#utility.yul\":87:90   */\n      dup3\n        /* \"#utility.yul\":80:116   */\n      mstore\n        /* \"#utility.yul\":7:122   */\n      pop\n      pop\n      jump\t// out\n        /* \"#utility.yul\":128:346   */\n    tag_11:\n        /* \"#utility.yul\":219:223   */\n      0x00\n        /* \"#utility.yul\":257:259   */\n      0x20\n        /* \"#utility.yul\":246:255   */\n      dup3\n        /* \"#utility.yul\":242:260   */\n      add\n        /* \"#utility.yul\":234:260   */\n      swap1\n      pop\n        /* \"#utility.yul\":270:339   */\n      tag_25\n        /* \"#utility.yul\":336:337   */\n      0x00\n        /* \"#utility.yul\":325:334   */\n      dup4\n        /* \"#utility.yul\":321:338   */\n      add\n        /* \"#utility.yul\":312:318   */\n      dup5\n        /* \"#utility.yul\":270:339   */\n      tag_20\n      jump\t// in\n    tag_25:\n        /* \"#utility.yul\":128:346   */\n      swap3\n      swap2\n      pop\n      pop\n      jump\t// out\n        /* \"#utility.yul\":352:877   */\n    tag_16:\n        /* \"#utility.yul\":391:394   */\n      0x00\n        /* \"#utility.yul\":410:429   */\n      tag_27\n        /* \"#utility.yul\":427:428   */\n      dup3\n        /* \"#utility.yul\":410:429   */\n      tag_23\n      jump\t// in\n    tag_27:\n        /* \"#utility.yul\":405:429   */\n      swap2\n      pop\n        /* \"#utility.yul\":443:462   */\n      tag_28\n        /* \"#utility.yul\":460:461   */\n      dup4\n        /* \"#utility.yul\":443:462   */\n      tag_23\n      jump\t// in\n    tag_28:\n        /* \"#utility.yul\":438:462   */\n      swap3\n      pop\n        /* \"#utility.yul\":631:632   */\n      dup2\n        /* \"#utility.yul\":563:629   */\n      0x7fffffffffffffffffffffffffffffffffffffffffffffffffffffffffffffff\n        /* \"#utility.yul\":559:633   */\n      sub\n        /* \"#utility.yul\":556:557   */\n      dup4\n        /* \"#utility.yul\":552:634   */\n      sgt\n        /* \"#utility.yul\":547:548   */\n      0x00\n        /* \"#utility.yul\":544:545   */\n      dup4\n        /* \"#utility.yul\":540:549   */\n      slt\n        /* \"#utility.yul\":533:550   */\n      iszero\n        /* \"#utility.yul\":529:635   */\n      and\n        /* \"#utility.yul\":526:658   */\n      iszero\n      tag_29\n      jumpi\n        /* \"#utility.yul\":638:656   */\n      tag_30\n      tag_31\n      jump\t// in\n    tag_30:\n        /* \"#utility.yul\":526:658   */\n    tag_29:\n        /* \"#utility.yul\":818:819   */\n      dup2\n        /* \"#utility.yul\":750:816   */\n      0x8000000000000000000000000000000000000000000000000000000000000000\n        /* \"#utility.yul\":746:820   */\n      sub\n        /* \"#utility.yul\":743:744   */\n      dup4\n        /* \"#utility.yul\":739:821   */\n      slt\n        /* \"#utility.yul\":735:736   */\n      0x00\n        /* \"#utility.yul\":732:733   */\n      dup4\n        /* \"#utility.yul\":728:737   */\n      slt\n        /* \"#utility.yul\":724:822   */\n      and\n        /* \"#utility.yul\":721:845   */\n      iszero\n      tag_32\n      jumpi\n        /* \"#utility.yul\":825:843   */\n      tag_33\n      tag_31\n      jump\t// in\n    tag_33:\n        /* \"#utility.yul\":721:845   */\n    tag_32:\n        /* \"#utility.yul\":869:870   */\n      dup3\n        /* \"#utility.yul\":866:867   */\n      dup3\n        /* \"#utility.yul\":862:871   */\n      add\n        /* \"#utility.yul\":855:871   */\n      swap1\n      pop\n        /* \"#utility.yul\":352:877   */\n      swap3\n      swap2\n      pop\n      pop\n      jump\t// out\n        /* \"#utility.yul\":883:959   */\n    tag_23:\n        /* \"#utility.yul\":919:926   */\n      0x00\n        /* \"#utility.yul\":948:953   */\n      dup2\n        /* \"#utility.yul\":937:953   */\n      swap1\n      pop\n        /* \"#utility.yul\":883:959   */\n      swap2\n      swap1\n      pop\n      jump\t// out\n        /* \"#utility.yul\":965:1145   */\n    tag_31:\n        /* \"#utility.yul\":1013:1090   */\n      0x4e487b7100000000000000000000000000000000000000000000000000000000\n        /* \"#utility.yul\":1010:1011   */\n      0x00\n        /* \"#utility.yul\":1003:1091   */\n      mstore\n        /* \"#utility.yul\":1110:1114   */\n      0x11\n        /* \"#utility.yul\":1107:1108   */\n      0x04\n        /* \"#utility.yul\":1100:1115   */\n      mstore\n        /* \"#utility.yul\":1134:1138   */\n      0x24\n        /* \"#utility.yul\":1131:1132   */\n      0x00\n        /* \"#utility.yul\":1124:1139   */\n      revert\n\n    auxdata: 0xa26469706673582212208749429df17cfd36d201838c133974099a3c54d025addccf34af0eb76f7eb68f64736f6c63430008070033\n}\n",
				"bytecode": {
					"linkReferences": {},
					"object": "60806040526000805534801561001457600080fd5b506101d9806100246000396000f3fe608060405234801561001057600080fd5b50600436106100415760003560e01c80637e4380721461004657806391f5de3814610050578063a72548b41461006e575b600080fd5b61004e610078565b005b61005861008f565b60405161006591906100bb565b60405180910390f35b610076610095565b005b600160005461008791906100d6565b600081905550565b60005481565b60016000546100a491906100d6565b600081905550565b6100b58161016a565b82525050565b60006020820190506100d060008301846100ac565b92915050565b60006100e18261016a565b91506100ec8361016a565b9250817f7fffffffffffffffffffffffffffffffffffffffffffffffffffffffffffffff0383136000831215161561012757610126610174565b5b817f800000000000000000000000000000000000000000000000000000000000000003831260008312161561015f5761015e610174565b5b828201905092915050565b6000819050919050565b7f4e487b7100000000000000000000000000000000000000000000000000000000600052601160045260246000fdfea26469706673582212208749429df17cfd36d201838c133974099a3c54d025addccf34af0eb76f7eb68f64736f6c63430008070033",
					"opcodes": "PUSH1 0x80 PUSH1 0x40 MSTORE PUSH1 0x0 DUP1 SSTORE CALLVALUE DUP1 ISZERO PUSH2 0x14 JUMPI PUSH1 0x0 DUP1 REVERT JUMPDEST POP PUSH2 0x1D9 DUP1 PUSH2 0x24 PUSH1 0x0 CODECOPY PUSH1 0x0 RETURN INVALID PUSH1 0x80 PUSH1 0x40 MSTORE CALLVALUE DUP1 ISZERO PUSH2 0x10 JUMPI PUSH1 0x0 DUP1 REVERT JUMPDEST POP PUSH1 0x4 CALLDATASIZE LT PUSH2 0x41 JUMPI PUSH1 0x0 CALLDATALOAD PUSH1 0xE0 SHR DUP1 PUSH4 0x7E438072 EQ PUSH2 0x46 JUMPI DUP1 PUSH4 0x91F5DE38 EQ PUSH2 0x50 JUMPI DUP1 PUSH4 0xA72548B4 EQ PUSH2 0x6E JUMPI JUMPDEST PUSH1 0x0 DUP1 REVERT JUMPDEST PUSH2 0x4E PUSH2 0x78 JUMP JUMPDEST STOP JUMPDEST PUSH2 0x58 PUSH2 0x8F JUMP JUMPDEST PUSH1 0x40 MLOAD PUSH2 0x65 SWAP2 SWAP1 PUSH2 0xBB JUMP JUMPDEST PUSH1 0x40 MLOAD DUP1 SWAP2 SUB SWAP1 RETURN JUMPDEST PUSH2 0x76 PUSH2 0x95 JUMP JUMPDEST STOP JUMPDEST PUSH1 0x1 PUSH1 0x0 SLOAD PUSH2 0x87 SWAP2 SWAP1 PUSH2 0xD6 JUMP JUMPDEST PUSH1 0x0 DUP2 SWAP1 SSTORE POP JUMP JUMPDEST PUSH1 0x0 SLOAD DUP2 JUMP JUMPDEST PUSH1 0x1 PUSH1 0x0 SLOAD PUSH2 0xA4 SWAP2 SWAP1 PUSH2 0xD6 JUMP JUMPDEST PUSH1 0x0 DUP2 SWAP1 SSTORE POP JUMP JUMPDEST PUSH2 0xB5 DUP2 PUSH2 0x16A JUMP JUMPDEST DUP3 MSTORE POP POP JUMP JUMPDEST PUSH1 0x0 PUSH1 0x20 DUP3 ADD SWAP1 POP PUSH2 0xD0 PUSH1 0x0 DUP4 ADD DUP5 PUSH2 0xAC JUMP JUMPDEST SWAP3 SWAP2 POP POP JUMP JUMPDEST PUSH1 0x0 PUSH2 0xE1 DUP3 PUSH2 0x16A JUMP JUMPDEST SWAP2 POP PUSH2 0xEC DUP4 PUSH2 0x16A JUMP JUMPDEST SWAP3 POP DUP2 PUSH32 0x7FFFFFFFFFFFFFFFFFFFFFFFFFFFFFFFFFFFFFFFFFFFFFFFFFFFFFFFFFFFFFFF SUB DUP4 SGT PUSH1 0x0 DUP4 SLT ISZERO AND ISZERO PUSH2 0x127 JUMPI PUSH2 0x126 PUSH2 0x174 JUMP JUMPDEST JUMPDEST DUP2 PUSH32 0x8000000000000000000000000000000000000000000000000000000000000000 SUB DUP4 SLT PUSH1 0x0 DUP4 SLT AND ISZERO PUSH2 0x15F JUMPI PUSH2 0x15E PUSH2 0x174 JUMP JUMPDEST JUMPDEST DUP3 DUP3 ADD SWAP1 POP SWAP3 SWAP2 POP POP JUMP JUMPDEST PUSH1 0x0 DUP2 SWAP1 POP SWAP2 SWAP1 POP JUMP JUMPDEST PUSH32 0x4E487B7100000000000000000000000000000000000000000000000000000000 PUSH1 0x0 MSTORE PUSH1 0x11 PUSH1 0x4 MSTORE PUSH1 0x24 PUSH1 0x0 REVERT INVALID LOG2 PUSH5 0x6970667358 0x22 SLT KECCAK256 DUP8 0x49 TIMESTAMP SWAP14 CALL PUSH29 0xFD36D201838C133974099A3C54D025ADDCCF34AF0EB76F7EB68F64736F PUSH13 0x63430008070033000000000000 "
				},
				"gasEstimates": {
					"creation": {
						"codeDepositCost": "94600",
						"executionCost": "5147",
						"totalCost": "99747"
					},
					"external": {
						"incrementa()": "infinite",
						"incrementaExterno()": "infinite",
						"numero()": "2429"
					},
					"internal": {
						"incrementaInterno()": "infinite",
						"incrementaPrivado()": "infinite"
					}
				},
				"methodIdentifiers": {
					"incrementa()": "a72548b4",
					"incrementaExterno()": "7e438072",
					"numero()": "91f5de38"
				}
			},
			"storageLayout": {
				"storage": [
					{
						"astId": 4,
						"contract": "contracts/VisibilidadeFunc.sol:visibilidadeFunc",
						"label": "numero",
						"offset": 0,
						"slot": "0",
						"type": "t_int256"
					}
				],
				"types": {
					"t_int256": {
						"encoding": "inplace",
						"label": "int256",
						"numberOfBytes": "32"
					}
				}
			},
			"userdoc": {
				"kind": "user",
				"methods": {},
				"version": 1
			}
		}
	}
}