{
	"contracts/Tipos.sol": {
		"Tipos": {
			"abi": [
				{
					"inputs": [],
					"name": "booleano",
					"outputs": [
						{
							"internalType": "bool",
							"name": "",
							"type": "bool"
						}
					],
					"stateMutability": "view",
					"type": "function"
				},
				{
					"inputs": [],
					"name": "endereco",
					"outputs": [
						{
							"internalType": "address",
							"name": "",
							"type": "address"
						}
					],
					"stateMutability": "view",
					"type": "function"
				},
				{
					"inputs": [],
					"name": "inteiro",
					"outputs": [
						{
							"internalType": "int152",
							"name": "",
							"type": "int152"
						}
					],
					"stateMutability": "view",
					"type": "function"
				},
				{
					"inputs": [],
					"name": "uinteiro",
					"outputs": [
						{
							"internalType": "uint248",
							"name": "",
							"type": "uint248"
						}
					],
					"stateMutability": "view",
					"type": "function"
				},
				{
					"inputs": [],
					"name": "valorBytes",
					"outputs": [
						{
							"internalType": "bytes2",
							"name": "",
							"type": "bytes2"
						}
					],
					"stateMutability": "view",
					"type": "function"
				},
				{
					"inputs": [],
					"name": "valorBytesMais",
					"outputs": [
						{
							"internalType": "bytes3",
							"name": "",
							"type": "bytes3"
						}
					],
					"stateMutability": "view",
					"type": "function"
				}
			],
			"devdoc": {
				"kind": "dev",
				"methods": {},
				"version": 1
			},
			"evm": {
				"assembly": "    /* \"contracts/Tipos.sol\":59:350  contract Tipos {\r... */\n  mstore(0x40, 0x80)\n    /* \"contracts/Tipos.sol\":107:112  78593 */\n  0x013301\n    /* \"contracts/Tipos.sol\":83:112  int152 public inteiro = 78593 */\n  0x00\n  dup1\n  0x0100\n  exp\n  dup2\n  sload\n  dup2\n  0xffffffffffffffffffffffffffffffffffffff\n  mul\n  not\n  and\n  swap1\n  dup4\n  0x12\n  signextend\n  0xffffffffffffffffffffffffffffffffffffff\n  and\n  mul\n  or\n  swap1\n  sstore\n  pop\n    /* \"contracts/Tipos.sol\":145:147  10 */\n  0x0a\n    /* \"contracts/Tipos.sol\":119:147  uint248 public uinteiro = 10 */\n  0x01\n  exp(0x0100, 0x00)\n  dup2\n  sload\n  dup2\n  0xffffffffffffffffffffffffffffffffffffffffffffffffffffffffffffff\n  mul\n  not\n  and\n  swap1\n  dup4\n  0xffffffffffffffffffffffffffffffffffffffffffffffffffffffffffffff\n  and\n  mul\n  or\n  swap1\n  sstore\n  pop\n    /* \"contracts/Tipos.sol\":182:188  0x34f4 */\n  0x34f4\n    /* \"contracts/Tipos.sol\":154:188  bytes2 public  valorBytes = 0x34f4 */\n  0xf0\n  shl\n  0x02\n  exp(0x0100, 0x00)\n  dup2\n  sload\n  dup2\n  0xffff\n  mul\n  not\n  and\n  swap1\n  dup4\n  0xf0\n  shr\n  mul\n  or\n  swap1\n  sstore\n  pop\n    /* \"contracts/Tipos.sol\":226:234  0x877654 */\n  0x877654\n    /* \"contracts/Tipos.sol\":195:234  bytes3 public valorBytesMais = 0x877654 */\n  0xe8\n  shl\n  0x02\n  dup1\n  0x0100\n  exp\n  dup2\n  sload\n  dup2\n  0xffffff\n  mul\n  not\n  and\n  swap1\n  dup4\n  0xe8\n  shr\n  mul\n  or\n  swap1\n  sstore\n  pop\n    /* \"contracts/Tipos.sol\":264:269  false */\n  0x00\n    /* \"contracts/Tipos.sol\":241:269  bool public booleano = false */\n  0x02\n  exp(0x0100, 0x05)\n  dup2\n  sload\n  dup2\n  0xff\n  mul\n  not\n  and\n  swap1\n  dup4\n  iszero\n  iszero\n  mul\n  or\n  swap1\n  sstore\n  pop\n    /* \"contracts/Tipos.sol\":302:344  0x5B38Da6a701c568545dCfcB03FcB875f56beddC4 */\n  0x5b38da6a701c568545dcfcb03fcb875f56beddc4\n    /* \"contracts/Tipos.sol\":276:344  address public endereco = 0x5B38Da6a701c568545dCfcB03FcB875f56beddC4 */\n  0x02\n  exp(0x0100, 0x06)\n  dup2\n  sload\n  dup2\n  0xffffffffffffffffffffffffffffffffffffffff\n  mul\n  not\n  and\n  swap1\n  dup4\n  0xffffffffffffffffffffffffffffffffffffffff\n  and\n  mul\n  or\n  swap1\n  sstore\n  pop\n    /* \"contracts/Tipos.sol\":59:350  contract Tipos {\r... */\n  callvalue\n  dup1\n  iszero\n  tag_1\n  jumpi\n  0x00\n  dup1\n  revert\ntag_1:\n  pop\n  dataSize(sub_0)\n  dup1\n  dataOffset(sub_0)\n  0x00\n  codecopy\n  0x00\n  return\nstop\n\nsub_0: assembly {\n        /* \"contracts/Tipos.sol\":59:350  contract Tipos {\r... */\n      mstore(0x40, 0x80)\n      callvalue\n      dup1\n      iszero\n      tag_1\n      jumpi\n      0x00\n      dup1\n      revert\n    tag_1:\n      pop\n      jumpi(tag_2, lt(calldatasize, 0x04))\n      shr(0xe0, calldataload(0x00))\n      dup1\n      0x0a6cda6a\n      eq\n      tag_3\n      jumpi\n      dup1\n      0x95f4651a\n      eq\n      tag_4\n      jumpi\n      dup1\n      0xb624cb54\n      eq\n      tag_5\n      jumpi\n      dup1\n      0xc7e11579\n      eq\n      tag_6\n      jumpi\n      dup1\n      0xd1ac4a09\n      eq\n      tag_7\n      jumpi\n      dup1\n      0xf38b2743\n      eq\n      tag_8\n      jumpi\n    tag_2:\n      0x00\n      dup1\n      revert\n        /* \"contracts/Tipos.sol\":241:269  bool public booleano = false */\n    tag_3:\n      tag_9\n      tag_10\n      jump\t// in\n    tag_9:\n      mload(0x40)\n      tag_11\n      swap2\n      swap1\n      tag_12\n      jump\t// in\n    tag_11:\n      mload(0x40)\n      dup1\n      swap2\n      sub\n      swap1\n      return\n        /* \"contracts/Tipos.sol\":195:234  bytes3 public valorBytesMais = 0x877654 */\n    tag_4:\n      tag_13\n      tag_14\n      jump\t// in\n    tag_13:\n      mload(0x40)\n      tag_15\n      swap2\n      swap1\n      tag_16\n      jump\t// in\n    tag_15:\n      mload(0x40)\n      dup1\n      swap2\n      sub\n      swap1\n      return\n        /* \"contracts/Tipos.sol\":83:112  int152 public inteiro = 78593 */\n    tag_5:\n      tag_17\n      tag_18\n      jump\t// in\n    tag_17:\n      mload(0x40)\n      tag_19\n      swap2\n      swap1\n      tag_20\n      jump\t// in\n    tag_19:\n      mload(0x40)\n      dup1\n      swap2\n      sub\n      swap1\n      return\n        /* \"contracts/Tipos.sol\":119:147  uint248 public uinteiro = 10 */\n    tag_6:\n      tag_21\n      tag_22\n      jump\t// in\n    tag_21:\n      mload(0x40)\n      tag_23\n      swap2\n      swap1\n      tag_24\n      jump\t// in\n    tag_23:\n      mload(0x40)\n      dup1\n      swap2\n      sub\n      swap1\n      return\n        /* \"contracts/Tipos.sol\":154:188  bytes2 public  valorBytes = 0x34f4 */\n    tag_7:\n      tag_25\n      tag_26\n      jump\t// in\n    tag_25:\n      mload(0x40)\n      tag_27\n      swap2\n      swap1\n      tag_28\n      jump\t// in\n    tag_27:\n      mload(0x40)\n      dup1\n      swap2\n      sub\n      swap1\n      return\n        /* \"contracts/Tipos.sol\":276:344  address public endereco = 0x5B38Da6a701c568545dCfcB03FcB875f56beddC4 */\n    tag_8:\n      tag_29\n      tag_30\n      jump\t// in\n    tag_29:\n      mload(0x40)\n      tag_31\n      swap2\n      swap1\n      tag_32\n      jump\t// in\n    tag_31:\n      mload(0x40)\n      dup1\n      swap2\n      sub\n      swap1\n      return\n        /* \"contracts/Tipos.sol\":241:269  bool public booleano = false */\n    tag_10:\n      0x02\n      0x05\n      swap1\n      sload\n      swap1\n      0x0100\n      exp\n      swap1\n      div\n      0xff\n      and\n      dup2\n      jump\t// out\n        /* \"contracts/Tipos.sol\":195:234  bytes3 public valorBytesMais = 0x877654 */\n    tag_14:\n      0x02\n      dup1\n      sload\n      swap1\n      0x0100\n      exp\n      swap1\n      div\n      0xe8\n      shl\n      dup2\n      jump\t// out\n        /* \"contracts/Tipos.sol\":83:112  int152 public inteiro = 78593 */\n    tag_18:\n      0x00\n      dup1\n      sload\n      swap1\n      0x0100\n      exp\n      swap1\n      div\n      0x12\n      signextend\n      dup2\n      jump\t// out\n        /* \"contracts/Tipos.sol\":119:147  uint248 public uinteiro = 10 */\n    tag_22:\n      0x01\n      0x00\n      swap1\n      sload\n      swap1\n      0x0100\n      exp\n      swap1\n      div\n      0xffffffffffffffffffffffffffffffffffffffffffffffffffffffffffffff\n      and\n      dup2\n      jump\t// out\n        /* \"contracts/Tipos.sol\":154:188  bytes2 public  valorBytes = 0x34f4 */\n    tag_26:\n      0x02\n      0x00\n      swap1\n      sload\n      swap1\n      0x0100\n      exp\n      swap1\n      div\n      0xf0\n      shl\n      dup2\n      jump\t// out\n        /* \"contracts/Tipos.sol\":276:344  address public endereco = 0x5B38Da6a701c568545dCfcB03FcB875f56beddC4 */\n    tag_30:\n      0x02\n      0x06\n      swap1\n      sload\n      swap1\n      0x0100\n      exp\n      swap1\n      div\n      0xffffffffffffffffffffffffffffffffffffffff\n      and\n      dup2\n      jump\t// out\n        /* \"#utility.yul\":7:125   */\n    tag_34:\n        /* \"#utility.yul\":94:118   */\n      tag_36\n        /* \"#utility.yul\":112:117   */\n      dup2\n        /* \"#utility.yul\":94:118   */\n      tag_37\n      jump\t// in\n    tag_36:\n        /* \"#utility.yul\":89:92   */\n      dup3\n        /* \"#utility.yul\":82:119   */\n      mstore\n        /* \"#utility.yul\":7:125   */\n      pop\n      pop\n      jump\t// out\n        /* \"#utility.yul\":131:240   */\n    tag_38:\n        /* \"#utility.yul\":212:233   */\n      tag_40\n        /* \"#utility.yul\":227:232   */\n      dup2\n        /* \"#utility.yul\":212:233   */\n      tag_41\n      jump\t// in\n    tag_40:\n        /* \"#utility.yul\":207:210   */\n      dup3\n        /* \"#utility.yul\":200:234   */\n      mstore\n        /* \"#utility.yul\":131:240   */\n      pop\n      pop\n      jump\t// out\n        /* \"#utility.yul\":246:361   */\n    tag_42:\n        /* \"#utility.yul\":331:354   */\n      tag_44\n        /* \"#utility.yul\":348:353   */\n      dup2\n        /* \"#utility.yul\":331:354   */\n      tag_45\n      jump\t// in\n    tag_44:\n        /* \"#utility.yul\":326:329   */\n      dup3\n        /* \"#utility.yul\":319:355   */\n      mstore\n        /* \"#utility.yul\":246:361   */\n      pop\n      pop\n      jump\t// out\n        /* \"#utility.yul\":367:482   */\n    tag_46:\n        /* \"#utility.yul\":452:475   */\n      tag_48\n        /* \"#utility.yul\":469:474   */\n      dup2\n        /* \"#utility.yul\":452:475   */\n      tag_49\n      jump\t// in\n    tag_48:\n        /* \"#utility.yul\":447:450   */\n      dup3\n        /* \"#utility.yul\":440:476   */\n      mstore\n        /* \"#utility.yul\":367:482   */\n      pop\n      pop\n      jump\t// out\n        /* \"#utility.yul\":488:603   */\n    tag_50:\n        /* \"#utility.yul\":573:596   */\n      tag_52\n        /* \"#utility.yul\":590:595   */\n      dup2\n        /* \"#utility.yul\":573:596   */\n      tag_53\n      jump\t// in\n    tag_52:\n        /* \"#utility.yul\":568:571   */\n      dup3\n        /* \"#utility.yul\":561:597   */\n      mstore\n        /* \"#utility.yul\":488:603   */\n      pop\n      pop\n      jump\t// out\n        /* \"#utility.yul\":609:727   */\n    tag_54:\n        /* \"#utility.yul\":696:720   */\n      tag_56\n        /* \"#utility.yul\":714:719   */\n      dup2\n        /* \"#utility.yul\":696:720   */\n      tag_57\n      jump\t// in\n    tag_56:\n        /* \"#utility.yul\":691:694   */\n      dup3\n        /* \"#utility.yul\":684:721   */\n      mstore\n        /* \"#utility.yul\":609:727   */\n      pop\n      pop\n      jump\t// out\n        /* \"#utility.yul\":733:955   */\n    tag_32:\n        /* \"#utility.yul\":826:830   */\n      0x00\n        /* \"#utility.yul\":864:866   */\n      0x20\n        /* \"#utility.yul\":853:862   */\n      dup3\n        /* \"#utility.yul\":849:867   */\n      add\n        /* \"#utility.yul\":841:867   */\n      swap1\n      pop\n        /* \"#utility.yul\":877:948   */\n      tag_59\n        /* \"#utility.yul\":945:946   */\n      0x00\n        /* \"#utility.yul\":934:943   */\n      dup4\n        /* \"#utility.yul\":930:947   */\n      add\n        /* \"#utility.yul\":921:927   */\n      dup5\n        /* \"#utility.yul\":877:948   */\n      tag_34\n      jump\t// in\n    tag_59:\n        /* \"#utility.yul\":733:955   */\n      swap3\n      swap2\n      pop\n      pop\n      jump\t// out\n        /* \"#utility.yul\":961:1171   */\n    tag_12:\n        /* \"#utility.yul\":1048:1052   */\n      0x00\n        /* \"#utility.yul\":1086:1088   */\n      0x20\n        /* \"#utility.yul\":1075:1084   */\n      dup3\n        /* \"#utility.yul\":1071:1089   */\n      add\n        /* \"#utility.yul\":1063:1089   */\n      swap1\n      pop\n        /* \"#utility.yul\":1099:1164   */\n      tag_61\n        /* \"#utility.yul\":1161:1162   */\n      0x00\n        /* \"#utility.yul\":1150:1159   */\n      dup4\n        /* \"#utility.yul\":1146:1163   */\n      add\n        /* \"#utility.yul\":1137:1143   */\n      dup5\n        /* \"#utility.yul\":1099:1164   */\n      tag_38\n      jump\t// in\n    tag_61:\n        /* \"#utility.yul\":961:1171   */\n      swap3\n      swap2\n      pop\n      pop\n      jump\t// out\n        /* \"#utility.yul\":1177:1395   */\n    tag_28:\n        /* \"#utility.yul\":1268:1272   */\n      0x00\n        /* \"#utility.yul\":1306:1308   */\n      0x20\n        /* \"#utility.yul\":1295:1304   */\n      dup3\n        /* \"#utility.yul\":1291:1309   */\n      add\n        /* \"#utility.yul\":1283:1309   */\n      swap1\n      pop\n        /* \"#utility.yul\":1319:1388   */\n      tag_63\n        /* \"#utility.yul\":1385:1386   */\n      0x00\n        /* \"#utility.yul\":1374:1383   */\n      dup4\n        /* \"#utility.yul\":1370:1387   */\n      add\n        /* \"#utility.yul\":1361:1367   */\n      dup5\n        /* \"#utility.yul\":1319:1388   */\n      tag_42\n      jump\t// in\n    tag_63:\n        /* \"#utility.yul\":1177:1395   */\n      swap3\n      swap2\n      pop\n      pop\n      jump\t// out\n        /* \"#utility.yul\":1401:1619   */\n    tag_16:\n        /* \"#utility.yul\":1492:1496   */\n      0x00\n        /* \"#utility.yul\":1530:1532   */\n      0x20\n        /* \"#utility.yul\":1519:1528   */\n      dup3\n        /* \"#utility.yul\":1515:1533   */\n      add\n        /* \"#utility.yul\":1507:1533   */\n      swap1\n      pop\n        /* \"#utility.yul\":1543:1612   */\n      tag_65\n        /* \"#utility.yul\":1609:1610   */\n      0x00\n        /* \"#utility.yul\":1598:1607   */\n      dup4\n        /* \"#utility.yul\":1594:1611   */\n      add\n        /* \"#utility.yul\":1585:1591   */\n      dup5\n        /* \"#utility.yul\":1543:1612   */\n      tag_46\n      jump\t// in\n    tag_65:\n        /* \"#utility.yul\":1401:1619   */\n      swap3\n      swap2\n      pop\n      pop\n      jump\t// out\n        /* \"#utility.yul\":1625:1843   */\n    tag_20:\n        /* \"#utility.yul\":1716:1720   */\n      0x00\n        /* \"#utility.yul\":1754:1756   */\n      0x20\n        /* \"#utility.yul\":1743:1752   */\n      dup3\n        /* \"#utility.yul\":1739:1757   */\n      add\n        /* \"#utility.yul\":1731:1757   */\n      swap1\n      pop\n        /* \"#utility.yul\":1767:1836   */\n      tag_67\n        /* \"#utility.yul\":1833:1834   */\n      0x00\n        /* \"#utility.yul\":1822:1831   */\n      dup4\n        /* \"#utility.yul\":1818:1835   */\n      add\n        /* \"#utility.yul\":1809:1815   */\n      dup5\n        /* \"#utility.yul\":1767:1836   */\n      tag_50\n      jump\t// in\n    tag_67:\n        /* \"#utility.yul\":1625:1843   */\n      swap3\n      swap2\n      pop\n      pop\n      jump\t// out\n        /* \"#utility.yul\":1849:2071   */\n    tag_24:\n        /* \"#utility.yul\":1942:1946   */\n      0x00\n        /* \"#utility.yul\":1980:1982   */\n      0x20\n        /* \"#utility.yul\":1969:1978   */\n      dup3\n        /* \"#utility.yul\":1965:1983   */\n      add\n        /* \"#utility.yul\":1957:1983   */\n      swap1\n      pop\n        /* \"#utility.yul\":1993:2064   */\n      tag_69\n        /* \"#utility.yul\":2061:2062   */\n      0x00\n        /* \"#utility.yul\":2050:2059   */\n      dup4\n        /* \"#utility.yul\":2046:2063   */\n      add\n        /* \"#utility.yul\":2037:2043   */\n      dup5\n        /* \"#utility.yul\":1993:2064   */\n      tag_54\n      jump\t// in\n    tag_69:\n        /* \"#utility.yul\":1849:2071   */\n      swap3\n      swap2\n      pop\n      pop\n      jump\t// out\n        /* \"#utility.yul\":2077:2173   */\n    tag_37:\n        /* \"#utility.yul\":2114:2121   */\n      0x00\n        /* \"#utility.yul\":2143:2167   */\n      tag_71\n        /* \"#utility.yul\":2161:2166   */\n      dup3\n        /* \"#utility.yul\":2143:2167   */\n      tag_72\n      jump\t// in\n    tag_71:\n        /* \"#utility.yul\":2132:2167   */\n      swap1\n      pop\n        /* \"#utility.yul\":2077:2173   */\n      swap2\n      swap1\n      pop\n      jump\t// out\n        /* \"#utility.yul\":2179:2269   */\n    tag_41:\n        /* \"#utility.yul\":2213:2220   */\n      0x00\n        /* \"#utility.yul\":2256:2261   */\n      dup2\n        /* \"#utility.yul\":2249:2262   */\n      iszero\n        /* \"#utility.yul\":2242:2263   */\n      iszero\n        /* \"#utility.yul\":2231:2263   */\n      swap1\n      pop\n        /* \"#utility.yul\":2179:2269   */\n      swap2\n      swap1\n      pop\n      jump\t// out\n        /* \"#utility.yul\":2275:2424   */\n    tag_45:\n        /* \"#utility.yul\":2311:2318   */\n      0x00\n        /* \"#utility.yul\":2351:2417   */\n      0xffff000000000000000000000000000000000000000000000000000000000000\n        /* \"#utility.yul\":2344:2349   */\n      dup3\n        /* \"#utility.yul\":2340:2418   */\n      and\n        /* \"#utility.yul\":2329:2418   */\n      swap1\n      pop\n        /* \"#utility.yul\":2275:2424   */\n      swap2\n      swap1\n      pop\n      jump\t// out\n        /* \"#utility.yul\":2430:2579   */\n    tag_49:\n        /* \"#utility.yul\":2466:2473   */\n      0x00\n        /* \"#utility.yul\":2506:2572   */\n      0xffffff0000000000000000000000000000000000000000000000000000000000\n        /* \"#utility.yul\":2499:2504   */\n      dup3\n        /* \"#utility.yul\":2495:2573   */\n      and\n        /* \"#utility.yul\":2484:2573   */\n      swap1\n      pop\n        /* \"#utility.yul\":2430:2579   */\n      swap2\n      swap1\n      pop\n      jump\t// out\n        /* \"#utility.yul\":2585:2677   */\n    tag_53:\n        /* \"#utility.yul\":2621:2628   */\n      0x00\n        /* \"#utility.yul\":2665:2670   */\n      dup2\n        /* \"#utility.yul\":2661:2663   */\n      0x12\n        /* \"#utility.yul\":2650:2671   */\n      signextend\n        /* \"#utility.yul\":2639:2671   */\n      swap1\n      pop\n        /* \"#utility.yul\":2585:2677   */\n      swap2\n      swap1\n      pop\n      jump\t// out\n        /* \"#utility.yul\":2683:2809   */\n    tag_72:\n        /* \"#utility.yul\":2720:2727   */\n      0x00\n        /* \"#utility.yul\":2760:2802   */\n      0xffffffffffffffffffffffffffffffffffffffff\n        /* \"#utility.yul\":2753:2758   */\n      dup3\n        /* \"#utility.yul\":2749:2803   */\n      and\n        /* \"#utility.yul\":2738:2803   */\n      swap1\n      pop\n        /* \"#utility.yul\":2683:2809   */\n      swap2\n      swap1\n      pop\n      jump\t// out\n        /* \"#utility.yul\":2815:2963   */\n    tag_57:\n        /* \"#utility.yul\":2852:2859   */\n      0x00\n        /* \"#utility.yul\":2892:2956   */\n      0xffffffffffffffffffffffffffffffffffffffffffffffffffffffffffffff\n        /* \"#utility.yul\":2885:2890   */\n      dup3\n        /* \"#utility.yul\":2881:2957   */\n      and\n        /* \"#utility.yul\":2870:2957   */\n      swap1\n      pop\n        /* \"#utility.yul\":2815:2963   */\n      swap2\n      swap1\n      pop\n      jump\t// out\n\n    auxdata: 0xa2646970667358221220c559b4dd0a56f3312c2503c223ee55c097616c3e396364551aef10b4cc6b5a9064736f6c63430008070033\n}\n",
				"bytecode": {
					"linkReferences": {},
					"object": "6080604052620133016000806101000a81548172ffffffffffffffffffffffffffffffffffffff021916908360120b72ffffffffffffffffffffffffffffffffffffff160217905550600a600160006101000a8154817effffffffffffffffffffffffffffffffffffffffffffffffffffffffffffff02191690837effffffffffffffffffffffffffffffffffffffffffffffffffffffffffffff1602179055506134f460f01b600260006101000a81548161ffff021916908360f01c02179055506287765460e81b6002806101000a81548162ffffff021916908360e81c02179055506000600260056101000a81548160ff021916908315150217905550735b38da6a701c568545dcfcb03fcb875f56beddc4600260066101000a81548173ffffffffffffffffffffffffffffffffffffffff021916908373ffffffffffffffffffffffffffffffffffffffff16021790555034801561015f57600080fd5b506103ba8061016f6000396000f3fe608060405234801561001057600080fd5b50600436106100625760003560e01c80630a6cda6a1461006757806395f4651a14610085578063b624cb54146100a3578063c7e11579146100c1578063d1ac4a09146100df578063f38b2743146100fd575b600080fd5b61006f61011b565b60405161007c919061022f565b60405180910390f35b61008d61012e565b60405161009a9190610265565b60405180910390f35b6100ab61013f565b6040516100b89190610280565b60405180910390f35b6100c9610150565b6040516100d6919061029b565b60405180910390f35b6100e7610181565b6040516100f4919061024a565b60405180910390f35b610105610194565b6040516101129190610214565b60405180910390f35b600260059054906101000a900460ff1681565b60028054906101000a900460e81b81565b60008054906101000a900460120b81565b600160009054906101000a90047effffffffffffffffffffffffffffffffffffffffffffffffffffffffffffff1681565b600260009054906101000a900460f01b81565b600260069054906101000a900473ffffffffffffffffffffffffffffffffffffffff1681565b6101c3816102b6565b82525050565b6101d2816102c8565b82525050565b6101e1816102d4565b82525050565b6101f081610300565b82525050565b6101ff8161032c565b82525050565b61020e81610359565b82525050565b600060208201905061022960008301846101ba565b92915050565b600060208201905061024460008301846101c9565b92915050565b600060208201905061025f60008301846101d8565b92915050565b600060208201905061027a60008301846101e7565b92915050565b600060208201905061029560008301846101f6565b92915050565b60006020820190506102b06000830184610205565b92915050565b60006102c182610339565b9050919050565b60008115159050919050565b60007fffff00000000000000000000000000000000000000000000000000000000000082169050919050565b60007fffffff000000000000000000000000000000000000000000000000000000000082169050919050565b60008160120b9050919050565b600073ffffffffffffffffffffffffffffffffffffffff82169050919050565b60007effffffffffffffffffffffffffffffffffffffffffffffffffffffffffffff8216905091905056fea2646970667358221220c559b4dd0a56f3312c2503c223ee55c097616c3e396364551aef10b4cc6b5a9064736f6c63430008070033",
					"opcodes": "PUSH1 0x80 PUSH1 0x40 MSTORE PUSH3 0x13301 PUSH1 0x0 DUP1 PUSH2 0x100 EXP DUP2 SLOAD DUP2 PUSH19 0xFFFFFFFFFFFFFFFFFFFFFFFFFFFFFFFFFFFFFF MUL NOT AND SWAP1 DUP4 PUSH1 0x12 SIGNEXTEND PUSH19 0xFFFFFFFFFFFFFFFFFFFFFFFFFFFFFFFFFFFFFF AND MUL OR SWAP1 SSTORE POP PUSH1 0xA PUSH1 0x1 PUSH1 0x0 PUSH2 0x100 EXP DUP2 SLOAD DUP2 PUSH31 0xFFFFFFFFFFFFFFFFFFFFFFFFFFFFFFFFFFFFFFFFFFFFFFFFFFFFFFFFFFFFFF MUL NOT AND SWAP1 DUP4 PUSH31 0xFFFFFFFFFFFFFFFFFFFFFFFFFFFFFFFFFFFFFFFFFFFFFFFFFFFFFFFFFFFFFF AND MUL OR SWAP1 SSTORE POP PUSH2 0x34F4 PUSH1 0xF0 SHL PUSH1 0x2 PUSH1 0x0 PUSH2 0x100 EXP DUP2 SLOAD DUP2 PUSH2 0xFFFF MUL NOT AND SWAP1 DUP4 PUSH1 0xF0 SHR MUL OR SWAP1 SSTORE POP PUSH3 0x877654 PUSH1 0xE8 SHL PUSH1 0x2 DUP1 PUSH2 0x100 EXP DUP2 SLOAD DUP2 PUSH3 0xFFFFFF MUL NOT AND SWAP1 DUP4 PUSH1 0xE8 SHR MUL OR SWAP1 SSTORE POP PUSH1 0x0 PUSH1 0x2 PUSH1 0x5 PUSH2 0x100 EXP DUP2 SLOAD DUP2 PUSH1 0xFF MUL NOT AND SWAP1 DUP4 ISZERO ISZERO MUL OR SWAP1 SSTORE POP PUSH20 0x5B38DA6A701C568545DCFCB03FCB875F56BEDDC4 PUSH1 0x2 PUSH1 0x6 PUSH2 0x100 EXP DUP2 SLOAD DUP2 PUSH20 0xFFFFFFFFFFFFFFFFFFFFFFFFFFFFFFFFFFFFFFFF MUL NOT AND SWAP1 DUP4 PUSH20 0xFFFFFFFFFFFFFFFFFFFFFFFFFFFFFFFFFFFFFFFF AND MUL OR SWAP1 SSTORE POP CALLVALUE DUP1 ISZERO PUSH2 0x15F JUMPI PUSH1 0x0 DUP1 REVERT JUMPDEST POP PUSH2 0x3BA DUP1 PUSH2 0x16F PUSH1 0x0 CODECOPY PUSH1 0x0 RETURN INVALID PUSH1 0x80 PUSH1 0x40 MSTORE CALLVALUE DUP1 ISZERO PUSH2 0x10 JUMPI PUSH1 0x0 DUP1 REVERT JUMPDEST POP PUSH1 0x4 CALLDATASIZE LT PUSH2 0x62 JUMPI PUSH1 0x0 CALLDATALOAD PUSH1 0xE0 SHR DUP1 PUSH4 0xA6CDA6A EQ PUSH2 0x67 JUMPI DUP1 PUSH4 0x95F4651A EQ PUSH2 0x85 JUMPI DUP1 PUSH4 0xB624CB54 EQ PUSH2 0xA3 JUMPI DUP1 PUSH4 0xC7E11579 EQ PUSH2 0xC1 JUMPI DUP1 PUSH4 0xD1AC4A09 EQ PUSH2 0xDF JUMPI DUP1 PUSH4 0xF38B2743 EQ PUSH2 0xFD JUMPI JUMPDEST PUSH1 0x0 DUP1 REVERT JUMPDEST PUSH2 0x6F PUSH2 0x11B JUMP JUMPDEST PUSH1 0x40 MLOAD PUSH2 0x7C SWAP2 SWAP1 PUSH2 0x22F JUMP JUMPDEST PUSH1 0x40 MLOAD DUP1 SWAP2 SUB SWAP1 RETURN JUMPDEST PUSH2 0x8D PUSH2 0x12E JUMP JUMPDEST PUSH1 0x40 MLOAD PUSH2 0x9A SWAP2 SWAP1 PUSH2 0x265 JUMP JUMPDEST PUSH1 0x40 MLOAD DUP1 SWAP2 SUB SWAP1 RETURN JUMPDEST PUSH2 0xAB PUSH2 0x13F JUMP JUMPDEST PUSH1 0x40 MLOAD PUSH2 0xB8 SWAP2 SWAP1 PUSH2 0x280 JUMP JUMPDEST PUSH1 0x40 MLOAD DUP1 SWAP2 SUB SWAP1 RETURN JUMPDEST PUSH2 0xC9 PUSH2 0x150 JUMP JUMPDEST PUSH1 0x40 MLOAD PUSH2 0xD6 SWAP2 SWAP1 PUSH2 0x29B JUMP JUMPDEST PUSH1 0x40 MLOAD DUP1 SWAP2 SUB SWAP1 RETURN JUMPDEST PUSH2 0xE7 PUSH2 0x181 JUMP JUMPDEST PUSH1 0x40 MLOAD PUSH2 0xF4 SWAP2 SWAP1 PUSH2 0x24A JUMP JUMPDEST PUSH1 0x40 MLOAD DUP1 SWAP2 SUB SWAP1 RETURN JUMPDEST PUSH2 0x105 PUSH2 0x194 JUMP JUMPDEST PUSH1 0x40 MLOAD PUSH2 0x112 SWAP2 SWAP1 PUSH2 0x214 JUMP JUMPDEST PUSH1 0x40 MLOAD DUP1 SWAP2 SUB SWAP1 RETURN JUMPDEST PUSH1 0x2 PUSH1 0x5 SWAP1 SLOAD SWAP1 PUSH2 0x100 EXP SWAP1 DIV PUSH1 0xFF AND DUP2 JUMP JUMPDEST PUSH1 0x2 DUP1 SLOAD SWAP1 PUSH2 0x100 EXP SWAP1 DIV PUSH1 0xE8 SHL DUP2 JUMP JUMPDEST PUSH1 0x0 DUP1 SLOAD SWAP1 PUSH2 0x100 EXP SWAP1 DIV PUSH1 0x12 SIGNEXTEND DUP2 JUMP JUMPDEST PUSH1 0x1 PUSH1 0x0 SWAP1 SLOAD SWAP1 PUSH2 0x100 EXP SWAP1 DIV PUSH31 0xFFFFFFFFFFFFFFFFFFFFFFFFFFFFFFFFFFFFFFFFFFFFFFFFFFFFFFFFFFFFFF AND DUP2 JUMP JUMPDEST PUSH1 0x2 PUSH1 0x0 SWAP1 SLOAD SWAP1 PUSH2 0x100 EXP SWAP1 DIV PUSH1 0xF0 SHL DUP2 JUMP JUMPDEST PUSH1 0x2 PUSH1 0x6 SWAP1 SLOAD SWAP1 PUSH2 0x100 EXP SWAP1 DIV PUSH20 0xFFFFFFFFFFFFFFFFFFFFFFFFFFFFFFFFFFFFFFFF AND DUP2 JUMP JUMPDEST PUSH2 0x1C3 DUP2 PUSH2 0x2B6 JUMP JUMPDEST DUP3 MSTORE POP POP JUMP JUMPDEST PUSH2 0x1D2 DUP2 PUSH2 0x2C8 JUMP JUMPDEST DUP3 MSTORE POP POP JUMP JUMPDEST PUSH2 0x1E1 DUP2 PUSH2 0x2D4 JUMP JUMPDEST DUP3 MSTORE POP POP JUMP JUMPDEST PUSH2 0x1F0 DUP2 PUSH2 0x300 JUMP JUMPDEST DUP3 MSTORE POP POP JUMP JUMPDEST PUSH2 0x1FF DUP2 PUSH2 0x32C JUMP JUMPDEST DUP3 MSTORE POP POP JUMP JUMPDEST PUSH2 0x20E DUP2 PUSH2 0x359 JUMP JUMPDEST DUP3 MSTORE POP POP JUMP JUMPDEST PUSH1 0x0 PUSH1 0x20 DUP3 ADD SWAP1 POP PUSH2 0x229 PUSH1 0x0 DUP4 ADD DUP5 PUSH2 0x1BA JUMP JUMPDEST SWAP3 SWAP2 POP POP JUMP JUMPDEST PUSH1 0x0 PUSH1 0x20 DUP3 ADD SWAP1 POP PUSH2 0x244 PUSH1 0x0 DUP4 ADD DUP5 PUSH2 0x1C9 JUMP JUMPDEST SWAP3 SWAP2 POP POP JUMP JUMPDEST PUSH1 0x0 PUSH1 0x20 DUP3 ADD SWAP1 POP PUSH2 0x25F PUSH1 0x0 DUP4 ADD DUP5 PUSH2 0x1D8 JUMP JUMPDEST SWAP3 SWAP2 POP POP JUMP JUMPDEST PUSH1 0x0 PUSH1 0x20 DUP3 ADD SWAP1 POP PUSH2 0x27A PUSH1 0x0 DUP4 ADD DUP5 PUSH2 0x1E7 JUMP JUMPDEST SWAP3 SWAP2 POP POP JUMP JUMPDEST PUSH1 0x0 PUSH1 0x20 DUP3 ADD SWAP1 POP PUSH2 0x295 PUSH1 0x0 DUP4 ADD DUP5 PUSH2 0x1F6 JUMP JUMPDEST SWAP3 SWAP2 POP POP JUMP JUMPDEST PUSH1 0x0 PUSH1 0x20 DUP3 ADD SWAP1 POP PUSH2 0x2B0 PUSH1 0x0 DUP4 ADD DUP5 PUSH2 0x205 JUMP JUMPDEST SWAP3 SWAP2 POP POP JUMP JUMPDEST PUSH1 0x0 PUSH2 0x2C1 DUP3 PUSH2 0x339 JUMP JUMPDEST SWAP1 POP SWAP2 SWAP1 POP JUMP JUMPDEST PUSH1 0x0 DUP2 ISZERO ISZERO SWAP1 POP SWAP2 SWAP1 POP JUMP JUMPDEST PUSH1 0x0 PUSH32 0xFFFF000000000000000000000000000000000000000000000000000000000000 DUP3 AND SWAP1 POP SWAP2 SWAP1 POP JUMP JUMPDEST PUSH1 0x0 PUSH32 0xFFFFFF0000000000000000000000000000000000000000000000000000000000 DUP3 AND SWAP1 POP SWAP2 SWAP1 POP JUMP JUMPDEST PUSH1 0x0 DUP2 PUSH1 0x12 SIGNEXTEND SWAP1 POP SWAP2 SWAP1 POP JUMP JUMPDEST PUSH1 0x0 PUSH20 0xFFFFFFFFFFFFFFFFFFFFFFFFFFFFFFFFFFFFFFFF DUP3 AND SWAP1 POP SWAP2 SWAP1 POP JUMP JUMPDEST PUSH1 0x0 PUSH31 0xFFFFFFFFFFFFFFFFFFFFFFFFFFFFFFFFFFFFFFFFFFFFFFFFFFFFFFFFFFFFFF DUP3 AND SWAP1 POP SWAP2 SWAP1 POP JUMP INVALID LOG2 PUSH5 0x6970667358 0x22 SLT KECCAK256 0xC5 MSIZE 0xB4 0xDD EXP JUMP RETURN BALANCE 0x2C 0x25 SUB 0xC2 0x23 0xEE SSTORE 0xC0 SWAP8 PUSH2 0x6C3E CODECOPY PUSH4 0x64551AEF LT 0xB4 0xCC PUSH12 0x5A9064736F6C634300080700 CALLER "
				},
				"gasEstimates": {
					"creation": {
						"codeDepositCost": "190800",
						"executionCost": "146004",
						"totalCost": "336804"
					},
					"external": {
						"booleano()": "2499",
						"endereco()": "2652",
						"inteiro()": "2494",
						"uinteiro()": "2515",
						"valorBytes()": "2537",
						"valorBytesMais()": "2518"
					}
				},
				"methodIdentifiers": {
					"booleano()": "0a6cda6a",
					"endereco()": "f38b2743",
					"inteiro()": "b624cb54",
					"uinteiro()": "c7e11579",
					"valorBytes()": "d1ac4a09",
					"valorBytesMais()": "95f4651a"
				}
			},
			"storageLayout": {
				"storage": [
					{
						"astId": 4,
						"contract": "contracts/Tipos.sol:Tipos",
						"label": "inteiro",
						"offset": 0,
						"slot": "0",
						"type": "t_int152"
					},
					{
						"astId": 7,
						"contract": "contracts/Tipos.sol:Tipos",
						"label": "uinteiro",
						"offset": 0,
						"slot": "1",
						"type": "t_uint248"
					},
					{
						"astId": 10,
						"contract": "contracts/Tipos.sol:Tipos",
						"label": "valorBytes",
						"offset": 0,
						"slot": "2",
						"type": "t_bytes2"
					},
					{
						"astId": 13,
						"contract": "contracts/Tipos.sol:Tipos",
						"label": "valorBytesMais",
						"offset": 2,
						"slot": "2",
						"type": "t_bytes3"
					},
					{
						"astId": 16,
						"contract": "contracts/Tipos.sol:Tipos",
						"label": "booleano",
						"offset": 5,
						"slot": "2",
						"type": "t_bool"
					},
					{
						"astId": 19,
						"contract": "contracts/Tipos.sol:Tipos",
						"label": "endereco",
						"offset": 6,
						"slot": "2",
						"type": "t_address"
					}
				],
				"types": {
					"t_address": {
						"encoding": "inplace",
						"label": "address",
						"numberOfBytes": "20"
					},
					"t_bool": {
						"encoding": "inplace",
						"label": "bool",
						"numberOfBytes": "1"
					},
					"t_bytes2": {
						"encoding": "inplace",
						"label": "bytes2",
						"numberOfBytes": "2"
					},
					"t_bytes3": {
						"encoding": "inplace",
						"label": "bytes3",
						"numberOfBytes": "3"
					},
					"t_int152": {
						"encoding": "inplace",
						"label": "int152",
						"numberOfBytes": "19"
					},
					"t_uint248": {
						"encoding": "inplace",
						"label": "uint248",
						"numberOfBytes": "31"
					}
				}
			},
			"userdoc": {
				"kind": "user",
				"methods": {},
				"version": 1
			}
		}
	}
}