{
	"contracts/Envia.sol": {
		"envia": {
			"abi": [
				{
					"inputs": [],
					"stateMutability": "payable",
					"type": "constructor"
				},
				{
					"inputs": [],
					"name": "EnviaEtherTransfer",
					"outputs": [],
					"stateMutability": "nonpayable",
					"type": "function"
				},
				{
					"inputs": [],
					"name": "enviaEtherCall",
					"outputs": [
						{
							"internalType": "bool",
							"name": "",
							"type": "bool"
						}
					],
					"stateMutability": "nonpayable",
					"type": "function"
				},
				{
					"inputs": [],
					"name": "enviaEtherSend",
					"outputs": [
						{
							"internalType": "bool",
							"name": "",
							"type": "bool"
						}
					],
					"stateMutability": "nonpayable",
					"type": "function"
				}
			],
			"devdoc": {
				"kind": "dev",
				"methods": {},
				"version": 1
			},
			"evm": {
				"assembly": "    /* \"contracts/Envia.sol\":59:591  contract envia {\r... */\n  mstore(0x40, 0x80)\n  dataSize(sub_0)\n  dup1\n  dataOffset(sub_0)\n  0x00\n  codecopy\n  0x00\n  return\nstop\n\nsub_0: assembly {\n        /* \"contracts/Envia.sol\":59:591  contract envia {\r... */\n      mstore(0x40, 0x80)\n      callvalue\n      dup1\n      iszero\n      tag_1\n      jumpi\n      0x00\n      dup1\n      revert\n    tag_1:\n      pop\n      jumpi(tag_2, lt(calldatasize, 0x04))\n      shr(0xe0, calldataload(0x00))\n      dup1\n      0x09e06c54\n      eq\n      tag_3\n      jumpi\n      dup1\n      0x13aeccf2\n      eq\n      tag_4\n      jumpi\n      dup1\n      0xaa2500f3\n      eq\n      tag_5\n      jumpi\n    tag_2:\n      0x00\n      dup1\n      revert\n        /* \"contracts/Envia.sol\":258:395  function enviaEtherSend() public returns(bool){\r... */\n    tag_3:\n      tag_6\n      tag_7\n      jump\t// in\n    tag_6:\n      mload(0x40)\n      tag_8\n      swap2\n      swap1\n      tag_9\n      jump\t// in\n    tag_8:\n      mload(0x40)\n      dup1\n      swap2\n      sub\n      swap1\n      return\n        /* \"contracts/Envia.sol\":403:588  function enviaEtherCall() public returns(bool){\r... */\n    tag_4:\n      tag_10\n      tag_11\n      jump\t// in\n    tag_10:\n      mload(0x40)\n      tag_12\n      swap2\n      swap1\n      tag_9\n      jump\t// in\n    tag_12:\n      mload(0x40)\n      dup1\n      swap2\n      sub\n      swap1\n      return\n        /* \"contracts/Envia.sol\":123:250  function EnviaEtherTransfer() public {\r... */\n    tag_5:\n      tag_13\n      tag_14\n      jump\t// in\n    tag_13:\n      stop\n        /* \"contracts/Envia.sol\":258:395  function enviaEtherSend() public returns(bool){\r... */\n    tag_7:\n        /* \"contracts/Envia.sol\":299:303  bool */\n      0x00\n        /* \"contracts/Envia.sol\":330:372  0x0A098Eda01Ce92ff4A4CCb7A4fFFb5A43EBC70DC */\n      0x0a098eda01ce92ff4a4ccb7a4fffb5a43ebc70dc\n        /* \"contracts/Envia.sol\":322:378  payable(0x0A098Eda01Ce92ff4A4CCb7A4fFFb5A43EBC70DC).send */\n      0xffffffffffffffffffffffffffffffffffffffff\n      and\n        /* \"contracts/Envia.sol\":322:387  payable(0x0A098Eda01Ce92ff4A4CCb7A4fFFb5A43EBC70DC).send(1 ether) */\n      0x08fc\n        /* \"contracts/Envia.sol\":379:386  1 ether */\n      0x0de0b6b3a7640000\n        /* \"contracts/Envia.sol\":322:387  payable(0x0A098Eda01Ce92ff4A4CCb7A4fFFb5A43EBC70DC).send(1 ether) */\n      swap1\n      dup2\n      iszero\n      mul\n      swap1\n      mload(0x40)\n      0x00\n      mload(0x40)\n      dup1\n      dup4\n      sub\n      dup2\n      dup6\n      dup9\n      dup9\n      call\n      swap4\n      pop\n      pop\n      pop\n      pop\n        /* \"contracts/Envia.sol\":315:387  return payable(0x0A098Eda01Ce92ff4A4CCb7A4fFFb5A43EBC70DC).send(1 ether) */\n      swap1\n      pop\n        /* \"contracts/Envia.sol\":258:395  function enviaEtherSend() public returns(bool){\r... */\n      swap1\n      jump\t// out\n        /* \"contracts/Envia.sol\":403:588  function enviaEtherCall() public returns(bool){\r... */\n    tag_11:\n        /* \"contracts/Envia.sol\":444:448  bool */\n      0x00\n        /* \"contracts/Envia.sol\":461:473  bool retorna */\n      dup1\n        /* \"contracts/Envia.sol\":487:529  0x0A098Eda01Ce92ff4A4CCb7A4fFFb5A43EBC70DC */\n      0x0a098eda01ce92ff4a4ccb7a4fffb5a43ebc70dc\n        /* \"contracts/Envia.sol\":479:535  payable(0x0A098Eda01Ce92ff4A4CCb7A4fFFb5A43EBC70DC).call */\n      0xffffffffffffffffffffffffffffffffffffffff\n      and\n        /* \"contracts/Envia.sol\":543:550  1 ether */\n      0x0de0b6b3a7640000\n        /* \"contracts/Envia.sol\":479:555  payable(0x0A098Eda01Ce92ff4A4CCb7A4fFFb5A43EBC70DC).call{value: 1 ether}(\"\") */\n      mload(0x40)\n      tag_18\n      swap1\n      tag_19\n      jump\t// in\n    tag_18:\n      0x00\n      mload(0x40)\n      dup1\n      dup4\n      sub\n      dup2\n      dup6\n      dup8\n      gas\n      call\n      swap3\n      pop\n      pop\n      pop\n      returndatasize\n      dup1\n      0x00\n      dup2\n      eq\n      tag_22\n      jumpi\n      mload(0x40)\n      swap2\n      pop\n      and(add(returndatasize, 0x3f), not(0x1f))\n      dup3\n      add\n      0x40\n      mstore\n      returndatasize\n      dup3\n      mstore\n      returndatasize\n      0x00\n      0x20\n      dup5\n      add\n      returndatacopy\n      jump(tag_21)\n    tag_22:\n      0x60\n      swap2\n      pop\n    tag_21:\n      pop\n        /* \"contracts/Envia.sol\":460:555  (bool retorna, ) = payable(0x0A098Eda01Ce92ff4A4CCb7A4fFFb5A43EBC70DC).call{value: 1 ether}(\"\") */\n      pop\n      swap1\n      pop\n        /* \"contracts/Envia.sol\":573:580  retorna */\n      dup1\n        /* \"contracts/Envia.sol\":566:580  return retorna */\n      swap2\n      pop\n      pop\n        /* \"contracts/Envia.sol\":403:588  function enviaEtherCall() public returns(bool){\r... */\n      swap1\n      jump\t// out\n        /* \"contracts/Envia.sol\":123:250  function EnviaEtherTransfer() public {\r... */\n    tag_14:\n        /* \"contracts/Envia.sol\":179:221  0x0A098Eda01Ce92ff4A4CCb7A4fFFb5A43EBC70DC */\n      0x0a098eda01ce92ff4a4ccb7a4fffb5a43ebc70dc\n        /* \"contracts/Envia.sol\":171:231  payable(0x0A098Eda01Ce92ff4A4CCb7A4fFFb5A43EBC70DC).transfer */\n      0xffffffffffffffffffffffffffffffffffffffff\n      and\n        /* \"contracts/Envia.sol\":171:240  payable(0x0A098Eda01Ce92ff4A4CCb7A4fFFb5A43EBC70DC).transfer(1 ether) */\n      0x08fc\n        /* \"contracts/Envia.sol\":232:239  1 ether */\n      0x0de0b6b3a7640000\n        /* \"contracts/Envia.sol\":171:240  payable(0x0A098Eda01Ce92ff4A4CCb7A4fFFb5A43EBC70DC).transfer(1 ether) */\n      swap1\n      dup2\n      iszero\n      mul\n      swap1\n      mload(0x40)\n      0x00\n      mload(0x40)\n      dup1\n      dup4\n      sub\n      dup2\n      dup6\n      dup9\n      dup9\n      call\n      swap4\n      pop\n      pop\n      pop\n      pop\n      iszero\n      dup1\n      iszero\n      tag_25\n      jumpi\n      returndatasize\n      0x00\n      dup1\n      returndatacopy\n      revert(0x00, returndatasize)\n    tag_25:\n      pop\n        /* \"contracts/Envia.sol\":123:250  function EnviaEtherTransfer() public {\r... */\n      jump\t// out\n        /* \"#utility.yul\":7:116   */\n    tag_27:\n        /* \"#utility.yul\":88:109   */\n      tag_29\n        /* \"#utility.yul\":103:108   */\n      dup2\n        /* \"#utility.yul\":88:109   */\n      tag_30\n      jump\t// in\n    tag_29:\n        /* \"#utility.yul\":83:86   */\n      dup3\n        /* \"#utility.yul\":76:110   */\n      mstore\n        /* \"#utility.yul\":7:116   */\n      pop\n      pop\n      jump\t// out\n        /* \"#utility.yul\":122:520   */\n    tag_31:\n        /* \"#utility.yul\":281:284   */\n      0x00\n        /* \"#utility.yul\":302:385   */\n      tag_33\n        /* \"#utility.yul\":383:384   */\n      0x00\n        /* \"#utility.yul\":378:381   */\n      dup4\n        /* \"#utility.yul\":302:385   */\n      tag_34\n      jump\t// in\n    tag_33:\n        /* \"#utility.yul\":295:385   */\n      swap2\n      pop\n        /* \"#utility.yul\":394:487   */\n      tag_35\n        /* \"#utility.yul\":483:486   */\n      dup3\n        /* \"#utility.yul\":394:487   */\n      tag_36\n      jump\t// in\n    tag_35:\n        /* \"#utility.yul\":512:513   */\n      0x00\n        /* \"#utility.yul\":507:510   */\n      dup3\n        /* \"#utility.yul\":503:514   */\n      add\n        /* \"#utility.yul\":496:514   */\n      swap1\n      pop\n        /* \"#utility.yul\":122:520   */\n      swap2\n      swap1\n      pop\n      jump\t// out\n        /* \"#utility.yul\":526:905   */\n    tag_19:\n        /* \"#utility.yul\":710:713   */\n      0x00\n        /* \"#utility.yul\":732:879   */\n      tag_38\n        /* \"#utility.yul\":875:878   */\n      dup3\n        /* \"#utility.yul\":732:879   */\n      tag_31\n      jump\t// in\n    tag_38:\n        /* \"#utility.yul\":725:879   */\n      swap2\n      pop\n        /* \"#utility.yul\":896:899   */\n      dup2\n        /* \"#utility.yul\":889:899   */\n      swap1\n      pop\n        /* \"#utility.yul\":526:905   */\n      swap2\n      swap1\n      pop\n      jump\t// out\n        /* \"#utility.yul\":911:1121   */\n    tag_9:\n        /* \"#utility.yul\":998:1002   */\n      0x00\n        /* \"#utility.yul\":1036:1038   */\n      0x20\n        /* \"#utility.yul\":1025:1034   */\n      dup3\n        /* \"#utility.yul\":1021:1039   */\n      add\n        /* \"#utility.yul\":1013:1039   */\n      swap1\n      pop\n        /* \"#utility.yul\":1049:1114   */\n      tag_40\n        /* \"#utility.yul\":1111:1112   */\n      0x00\n        /* \"#utility.yul\":1100:1109   */\n      dup4\n        /* \"#utility.yul\":1096:1113   */\n      add\n        /* \"#utility.yul\":1087:1093   */\n      dup5\n        /* \"#utility.yul\":1049:1114   */\n      tag_27\n      jump\t// in\n    tag_40:\n        /* \"#utility.yul\":911:1121   */\n      swap3\n      swap2\n      pop\n      pop\n      jump\t// out\n        /* \"#utility.yul\":1127:1274   */\n    tag_34:\n        /* \"#utility.yul\":1228:1239   */\n      0x00\n        /* \"#utility.yul\":1265:1268   */\n      dup2\n        /* \"#utility.yul\":1250:1268   */\n      swap1\n      pop\n        /* \"#utility.yul\":1127:1274   */\n      swap3\n      swap2\n      pop\n      pop\n      jump\t// out\n        /* \"#utility.yul\":1280:1370   */\n    tag_30:\n        /* \"#utility.yul\":1314:1321   */\n      0x00\n        /* \"#utility.yul\":1357:1362   */\n      dup2\n        /* \"#utility.yul\":1350:1363   */\n      iszero\n        /* \"#utility.yul\":1343:1364   */\n      iszero\n        /* \"#utility.yul\":1332:1364   */\n      swap1\n      pop\n        /* \"#utility.yul\":1280:1370   */\n      swap2\n      swap1\n      pop\n      jump\t// out\n        /* \"#utility.yul\":1376:1490   */\n    tag_36:\n      pop\n      jump\t// out\n\n    auxdata: 0xa26469706673582212206bfcfc44a0718558ba2234dde1a68756603e1c29e3c640fbd988e2ef1123413b64736f6c63430008070033\n}\n",
				"bytecode": {
					"linkReferences": {},
					"object": "608060405261028b806100136000396000f3fe608060405234801561001057600080fd5b50600436106100415760003560e01c806309e06c541461004657806313aeccf214610064578063aa2500f314610082575b600080fd5b61004e61008c565b60405161005b9190610220565b60405180910390f35b61006c6100e4565b6040516100799190610220565b60405180910390f35b61008a610174565b005b6000730a098eda01ce92ff4a4ccb7a4fffb5a43ebc70dc73ffffffffffffffffffffffffffffffffffffffff166108fc670de0b6b3a76400009081150290604051600060405180830381858888f19350505050905090565b600080730a098eda01ce92ff4a4ccb7a4fffb5a43ebc70dc73ffffffffffffffffffffffffffffffffffffffff16670de0b6b3a76400006040516101279061020b565b60006040518083038185875af1925050503d8060008114610164576040519150601f19603f3d011682016040523d82523d6000602084013e610169565b606091505b505090508091505090565b730a098eda01ce92ff4a4ccb7a4fffb5a43ebc70dc73ffffffffffffffffffffffffffffffffffffffff166108fc670de0b6b3a76400009081150290604051600060405180830381858888f193505050501580156101d6573d6000803e3d6000fd5b50565b6101e281610246565b82525050565b60006101f560008361023b565b915061020082610252565b600082019050919050565b6000610216826101e8565b9150819050919050565b600060208201905061023560008301846101d9565b92915050565b600081905092915050565b60008115159050919050565b5056fea26469706673582212206bfcfc44a0718558ba2234dde1a68756603e1c29e3c640fbd988e2ef1123413b64736f6c63430008070033",
					"opcodes": "PUSH1 0x80 PUSH1 0x40 MSTORE PUSH2 0x28B DUP1 PUSH2 0x13 PUSH1 0x0 CODECOPY PUSH1 0x0 RETURN INVALID PUSH1 0x80 PUSH1 0x40 MSTORE CALLVALUE DUP1 ISZERO PUSH2 0x10 JUMPI PUSH1 0x0 DUP1 REVERT JUMPDEST POP PUSH1 0x4 CALLDATASIZE LT PUSH2 0x41 JUMPI PUSH1 0x0 CALLDATALOAD PUSH1 0xE0 SHR DUP1 PUSH4 0x9E06C54 EQ PUSH2 0x46 JUMPI DUP1 PUSH4 0x13AECCF2 EQ PUSH2 0x64 JUMPI DUP1 PUSH4 0xAA2500F3 EQ PUSH2 0x82 JUMPI JUMPDEST PUSH1 0x0 DUP1 REVERT JUMPDEST PUSH2 0x4E PUSH2 0x8C JUMP JUMPDEST PUSH1 0x40 MLOAD PUSH2 0x5B SWAP2 SWAP1 PUSH2 0x220 JUMP JUMPDEST PUSH1 0x40 MLOAD DUP1 SWAP2 SUB SWAP1 RETURN JUMPDEST PUSH2 0x6C PUSH2 0xE4 JUMP JUMPDEST PUSH1 0x40 MLOAD PUSH2 0x79 SWAP2 SWAP1 PUSH2 0x220 JUMP JUMPDEST PUSH1 0x40 MLOAD DUP1 SWAP2 SUB SWAP1 RETURN JUMPDEST PUSH2 0x8A PUSH2 0x174 JUMP JUMPDEST STOP JUMPDEST PUSH1 0x0 PUSH20 0xA098EDA01CE92FF4A4CCB7A4FFFB5A43EBC70DC PUSH20 0xFFFFFFFFFFFFFFFFFFFFFFFFFFFFFFFFFFFFFFFF AND PUSH2 0x8FC PUSH8 0xDE0B6B3A7640000 SWAP1 DUP2 ISZERO MUL SWAP1 PUSH1 0x40 MLOAD PUSH1 0x0 PUSH1 0x40 MLOAD DUP1 DUP4 SUB DUP2 DUP6 DUP9 DUP9 CALL SWAP4 POP POP POP POP SWAP1 POP SWAP1 JUMP JUMPDEST PUSH1 0x0 DUP1 PUSH20 0xA098EDA01CE92FF4A4CCB7A4FFFB5A43EBC70DC PUSH20 0xFFFFFFFFFFFFFFFFFFFFFFFFFFFFFFFFFFFFFFFF AND PUSH8 0xDE0B6B3A7640000 PUSH1 0x40 MLOAD PUSH2 0x127 SWAP1 PUSH2 0x20B JUMP JUMPDEST PUSH1 0x0 PUSH1 0x40 MLOAD DUP1 DUP4 SUB DUP2 DUP6 DUP8 GAS CALL SWAP3 POP POP POP RETURNDATASIZE DUP1 PUSH1 0x0 DUP2 EQ PUSH2 0x164 JUMPI PUSH1 0x40 MLOAD SWAP2 POP PUSH1 0x1F NOT PUSH1 0x3F RETURNDATASIZE ADD AND DUP3 ADD PUSH1 0x40 MSTORE RETURNDATASIZE DUP3 MSTORE RETURNDATASIZE PUSH1 0x0 PUSH1 0x20 DUP5 ADD RETURNDATACOPY PUSH2 0x169 JUMP JUMPDEST PUSH1 0x60 SWAP2 POP JUMPDEST POP POP SWAP1 POP DUP1 SWAP2 POP POP SWAP1 JUMP JUMPDEST PUSH20 0xA098EDA01CE92FF4A4CCB7A4FFFB5A43EBC70DC PUSH20 0xFFFFFFFFFFFFFFFFFFFFFFFFFFFFFFFFFFFFFFFF AND PUSH2 0x8FC PUSH8 0xDE0B6B3A7640000 SWAP1 DUP2 ISZERO MUL SWAP1 PUSH1 0x40 MLOAD PUSH1 0x0 PUSH1 0x40 MLOAD DUP1 DUP4 SUB DUP2 DUP6 DUP9 DUP9 CALL SWAP4 POP POP POP POP ISZERO DUP1 ISZERO PUSH2 0x1D6 JUMPI RETURNDATASIZE PUSH1 0x0 DUP1 RETURNDATACOPY RETURNDATASIZE PUSH1 0x0 REVERT JUMPDEST POP JUMP JUMPDEST PUSH2 0x1E2 DUP2 PUSH2 0x246 JUMP JUMPDEST DUP3 MSTORE POP POP JUMP JUMPDEST PUSH1 0x0 PUSH2 0x1F5 PUSH1 0x0 DUP4 PUSH2 0x23B JUMP JUMPDEST SWAP2 POP PUSH2 0x200 DUP3 PUSH2 0x252 JUMP JUMPDEST PUSH1 0x0 DUP3 ADD SWAP1 POP SWAP2 SWAP1 POP JUMP JUMPDEST PUSH1 0x0 PUSH2 0x216 DUP3 PUSH2 0x1E8 JUMP JUMPDEST SWAP2 POP DUP2 SWAP1 POP SWAP2 SWAP1 POP JUMP JUMPDEST PUSH1 0x0 PUSH1 0x20 DUP3 ADD SWAP1 POP PUSH2 0x235 PUSH1 0x0 DUP4 ADD DUP5 PUSH2 0x1D9 JUMP JUMPDEST SWAP3 SWAP2 POP POP JUMP JUMPDEST PUSH1 0x0 DUP2 SWAP1 POP SWAP3 SWAP2 POP POP JUMP JUMPDEST PUSH1 0x0 DUP2 ISZERO ISZERO SWAP1 POP SWAP2 SWAP1 POP JUMP JUMPDEST POP JUMP INVALID LOG2 PUSH5 0x6970667358 0x22 SLT KECCAK256 PUSH12 0xFCFC44A0718558BA2234DDE1 0xA6 DUP8 JUMP PUSH1 0x3E SHR 0x29 0xE3 0xC6 BLOCKHASH 0xFB 0xD9 DUP9 0xE2 0xEF GT 0x23 COINBASE EXTCODESIZE PUSH5 0x736F6C6343 STOP ADDMOD SMOD STOP CALLER "
				},
				"gasEstimates": {
					"creation": {
						"codeDepositCost": "130200",
						"executionCost": "153",
						"totalCost": "130353"
					},
					"external": {
						"EnviaEtherTransfer()": "infinite",
						"enviaEtherCall()": "infinite",
						"enviaEtherSend()": "infinite"
					}
				},
				"methodIdentifiers": {
					"EnviaEtherTransfer()": "aa2500f3",
					"enviaEtherCall()": "13aeccf2",
					"enviaEtherSend()": "09e06c54"
				}
			},
			"storageLayout": {
				"storage": [],
				"types": null
			},
			"userdoc": {
				"kind": "user",
				"methods": {},
				"version": 1
			}
		}
	}
}