{
	"contracts/Transacao.sol": {
		"transacao": {
			"abi": [
				{
					"inputs": [],
					"name": "pegaDados",
					"outputs": [
						{
							"internalType": "bytes",
							"name": "",
							"type": "bytes"
						}
					],
					"stateMutability": "pure",
					"type": "function"
				},
				{
					"inputs": [],
					"name": "pegaEnvio",
					"outputs": [
						{
							"internalType": "address",
							"name": "",
							"type": "address"
						}
					],
					"stateMutability": "view",
					"type": "function"
				},
				{
					"inputs": [],
					"name": "pegaValor",
					"outputs": [
						{
							"internalType": "uint256",
							"name": "",
							"type": "uint256"
						}
					],
					"stateMutability": "payable",
					"type": "function"
				}
			],
			"devdoc": {
				"kind": "dev",
				"methods": {},
				"version": 1
			},
			"evm": {
				"assembly": "    /* \"contracts/Transacao.sol\":59:364  contract transacao {\r... */\n  mstore(0x40, 0x80)\n  callvalue\n  dup1\n  iszero\n  tag_1\n  jumpi\n  0x00\n  dup1\n  revert\ntag_1:\n  pop\n  dataSize(sub_0)\n  dup1\n  dataOffset(sub_0)\n  0x00\n  codecopy\n  0x00\n  return\nstop\n\nsub_0: assembly {\n        /* \"contracts/Transacao.sol\":59:364  contract transacao {\r... */\n      mstore(0x40, 0x80)\n      jumpi(tag_1, lt(calldatasize, 0x04))\n      shr(0xe0, calldataload(0x00))\n      dup1\n      0x3ecfaa1f\n      eq\n      tag_2\n      jumpi\n      dup1\n      0x9a7fded9\n      eq\n      tag_3\n      jumpi\n      dup1\n      0xf0d8b77b\n      eq\n      tag_4\n      jumpi\n    tag_1:\n      0x00\n      dup1\n      revert\n        /* \"contracts/Transacao.sol\":181:265  function pegaValor() public payable returns(uint){\r... */\n    tag_2:\n      tag_5\n      tag_6\n      jump\t// in\n    tag_5:\n      mload(0x40)\n      tag_7\n      swap2\n      swap1\n      tag_8\n      jump\t// in\n    tag_7:\n      mload(0x40)\n      dup1\n      swap2\n      sub\n      swap1\n      return\n        /* \"contracts/Transacao.sol\":273:361  function pegaDados() public pure returns(bytes memory){\r... */\n    tag_3:\n      callvalue\n      dup1\n      iszero\n      tag_9\n      jumpi\n      0x00\n      dup1\n      revert\n    tag_9:\n      pop\n      tag_10\n      tag_11\n      jump\t// in\n    tag_10:\n      mload(0x40)\n      tag_12\n      swap2\n      swap1\n      tag_13\n      jump\t// in\n    tag_12:\n      mload(0x40)\n      dup1\n      swap2\n      sub\n      swap1\n      return\n        /* \"contracts/Transacao.sol\":87:173  function pegaEnvio() public view returns (address){\r... */\n    tag_4:\n      callvalue\n      dup1\n      iszero\n      tag_14\n      jumpi\n      0x00\n      dup1\n      revert\n    tag_14:\n      pop\n      tag_15\n      tag_16\n      jump\t// in\n    tag_15:\n      mload(0x40)\n      tag_17\n      swap2\n      swap1\n      tag_18\n      jump\t// in\n    tag_17:\n      mload(0x40)\n      dup1\n      swap2\n      sub\n      swap1\n      return\n        /* \"contracts/Transacao.sol\":181:265  function pegaValor() public payable returns(uint){\r... */\n    tag_6:\n        /* \"contracts/Transacao.sol\":225:229  uint */\n      0x00\n        /* \"contracts/Transacao.sol\":248:257  msg.value */\n      callvalue\n        /* \"contracts/Transacao.sol\":241:257  return msg.value */\n      swap1\n      pop\n        /* \"contracts/Transacao.sol\":181:265  function pegaValor() public payable returns(uint){\r... */\n      swap1\n      jump\t// out\n        /* \"contracts/Transacao.sol\":273:361  function pegaDados() public pure returns(bytes memory){\r... */\n    tag_11:\n        /* \"contracts/Transacao.sol\":314:326  bytes memory */\n      0x60\n        /* \"contracts/Transacao.sol\":345:353  msg.data */\n      0x00\n      calldatasize\n        /* \"contracts/Transacao.sol\":338:353  return msg.data */\n      dup1\n      dup1\n      0x1f\n      add\n      0x20\n      dup1\n      swap2\n      div\n      mul\n      0x20\n      add\n      mload(0x40)\n      swap1\n      dup2\n      add\n      0x40\n      mstore\n      dup1\n      swap4\n      swap3\n      swap2\n      swap1\n      dup2\n      dup2\n      mstore\n      0x20\n      add\n      dup4\n      dup4\n      dup1\n      dup3\n      dup5\n      calldatacopy\n      0x00\n      dup2\n      dup5\n      add\n      mstore\n      not(0x1f)\n      0x1f\n      dup3\n      add\n      and\n      swap1\n      pop\n      dup1\n      dup4\n      add\n      swap3\n      pop\n      pop\n      pop\n      pop\n      pop\n      pop\n      pop\n      swap1\n      pop\n        /* \"contracts/Transacao.sol\":273:361  function pegaDados() public pure returns(bytes memory){\r... */\n      swap1\n      jump\t// out\n        /* \"contracts/Transacao.sol\":87:173  function pegaEnvio() public view returns (address){\r... */\n    tag_16:\n        /* \"contracts/Transacao.sol\":129:136  address */\n      0x00\n        /* \"contracts/Transacao.sol\":155:165  msg.sender */\n      caller\n        /* \"contracts/Transacao.sol\":148:165  return msg.sender */\n      swap1\n      pop\n        /* \"contracts/Transacao.sol\":87:173  function pegaEnvio() public view returns (address){\r... */\n      swap1\n      jump\t// out\n        /* \"#utility.yul\":7:125   */\n    tag_23:\n        /* \"#utility.yul\":94:118   */\n      tag_25\n        /* \"#utility.yul\":112:117   */\n      dup2\n        /* \"#utility.yul\":94:118   */\n      tag_26\n      jump\t// in\n    tag_25:\n        /* \"#utility.yul\":89:92   */\n      dup3\n        /* \"#utility.yul\":82:119   */\n      mstore\n        /* \"#utility.yul\":7:125   */\n      pop\n      pop\n      jump\t// out\n        /* \"#utility.yul\":131:491   */\n    tag_27:\n        /* \"#utility.yul\":217:220   */\n      0x00\n        /* \"#utility.yul\":245:283   */\n      tag_29\n        /* \"#utility.yul\":277:282   */\n      dup3\n        /* \"#utility.yul\":245:283   */\n      tag_30\n      jump\t// in\n    tag_29:\n        /* \"#utility.yul\":299:369   */\n      tag_31\n        /* \"#utility.yul\":362:368   */\n      dup2\n        /* \"#utility.yul\":357:360   */\n      dup6\n        /* \"#utility.yul\":299:369   */\n      tag_32\n      jump\t// in\n    tag_31:\n        /* \"#utility.yul\":292:369   */\n      swap4\n      pop\n        /* \"#utility.yul\":378:430   */\n      tag_33\n        /* \"#utility.yul\":423:429   */\n      dup2\n        /* \"#utility.yul\":418:421   */\n      dup6\n        /* \"#utility.yul\":411:415   */\n      0x20\n        /* \"#utility.yul\":404:409   */\n      dup7\n        /* \"#utility.yul\":400:416   */\n      add\n        /* \"#utility.yul\":378:430   */\n      tag_34\n      jump\t// in\n    tag_33:\n        /* \"#utility.yul\":455:484   */\n      tag_35\n        /* \"#utility.yul\":477:483   */\n      dup2\n        /* \"#utility.yul\":455:484   */\n      tag_36\n      jump\t// in\n    tag_35:\n        /* \"#utility.yul\":450:453   */\n      dup5\n        /* \"#utility.yul\":446:485   */\n      add\n        /* \"#utility.yul\":439:485   */\n      swap2\n      pop\n        /* \"#utility.yul\":221:491   */\n      pop\n        /* \"#utility.yul\":131:491   */\n      swap3\n      swap2\n      pop\n      pop\n      jump\t// out\n        /* \"#utility.yul\":497:615   */\n    tag_37:\n        /* \"#utility.yul\":584:608   */\n      tag_39\n        /* \"#utility.yul\":602:607   */\n      dup2\n        /* \"#utility.yul\":584:608   */\n      tag_40\n      jump\t// in\n    tag_39:\n        /* \"#utility.yul\":579:582   */\n      dup3\n        /* \"#utility.yul\":572:609   */\n      mstore\n        /* \"#utility.yul\":497:615   */\n      pop\n      pop\n      jump\t// out\n        /* \"#utility.yul\":621:843   */\n    tag_18:\n        /* \"#utility.yul\":714:718   */\n      0x00\n        /* \"#utility.yul\":752:754   */\n      0x20\n        /* \"#utility.yul\":741:750   */\n      dup3\n        /* \"#utility.yul\":737:755   */\n      add\n        /* \"#utility.yul\":729:755   */\n      swap1\n      pop\n        /* \"#utility.yul\":765:836   */\n      tag_42\n        /* \"#utility.yul\":833:834   */\n      0x00\n        /* \"#utility.yul\":822:831   */\n      dup4\n        /* \"#utility.yul\":818:835   */\n      add\n        /* \"#utility.yul\":809:815   */\n      dup5\n        /* \"#utility.yul\":765:836   */\n      tag_23\n      jump\t// in\n    tag_42:\n        /* \"#utility.yul\":621:843   */\n      swap3\n      swap2\n      pop\n      pop\n      jump\t// out\n        /* \"#utility.yul\":849:1158   */\n    tag_13:\n        /* \"#utility.yul\":960:964   */\n      0x00\n        /* \"#utility.yul\":998:1000   */\n      0x20\n        /* \"#utility.yul\":987:996   */\n      dup3\n        /* \"#utility.yul\":983:1001   */\n      add\n        /* \"#utility.yul\":975:1001   */\n      swap1\n      pop\n        /* \"#utility.yul\":1047:1056   */\n      dup2\n        /* \"#utility.yul\":1041:1045   */\n      dup2\n        /* \"#utility.yul\":1037:1057   */\n      sub\n        /* \"#utility.yul\":1033:1034   */\n      0x00\n        /* \"#utility.yul\":1022:1031   */\n      dup4\n        /* \"#utility.yul\":1018:1035   */\n      add\n        /* \"#utility.yul\":1011:1058   */\n      mstore\n        /* \"#utility.yul\":1075:1151   */\n      tag_44\n        /* \"#utility.yul\":1146:1150   */\n      dup2\n        /* \"#utility.yul\":1137:1143   */\n      dup5\n        /* \"#utility.yul\":1075:1151   */\n      tag_27\n      jump\t// in\n    tag_44:\n        /* \"#utility.yul\":1067:1151   */\n      swap1\n      pop\n        /* \"#utility.yul\":849:1158   */\n      swap3\n      swap2\n      pop\n      pop\n      jump\t// out\n        /* \"#utility.yul\":1164:1386   */\n    tag_8:\n        /* \"#utility.yul\":1257:1261   */\n      0x00\n        /* \"#utility.yul\":1295:1297   */\n      0x20\n        /* \"#utility.yul\":1284:1293   */\n      dup3\n        /* \"#utility.yul\":1280:1298   */\n      add\n        /* \"#utility.yul\":1272:1298   */\n      swap1\n      pop\n        /* \"#utility.yul\":1308:1379   */\n      tag_46\n        /* \"#utility.yul\":1376:1377   */\n      0x00\n        /* \"#utility.yul\":1365:1374   */\n      dup4\n        /* \"#utility.yul\":1361:1378   */\n      add\n        /* \"#utility.yul\":1352:1358   */\n      dup5\n        /* \"#utility.yul\":1308:1379   */\n      tag_37\n      jump\t// in\n    tag_46:\n        /* \"#utility.yul\":1164:1386   */\n      swap3\n      swap2\n      pop\n      pop\n      jump\t// out\n        /* \"#utility.yul\":1392:1490   */\n    tag_30:\n        /* \"#utility.yul\":1443:1449   */\n      0x00\n        /* \"#utility.yul\":1477:1482   */\n      dup2\n        /* \"#utility.yul\":1471:1483   */\n      mload\n        /* \"#utility.yul\":1461:1483   */\n      swap1\n      pop\n        /* \"#utility.yul\":1392:1490   */\n      swap2\n      swap1\n      pop\n      jump\t// out\n        /* \"#utility.yul\":1496:1664   */\n    tag_32:\n        /* \"#utility.yul\":1579:1590   */\n      0x00\n        /* \"#utility.yul\":1613:1619   */\n      dup3\n        /* \"#utility.yul\":1608:1611   */\n      dup3\n        /* \"#utility.yul\":1601:1620   */\n      mstore\n        /* \"#utility.yul\":1653:1657   */\n      0x20\n        /* \"#utility.yul\":1648:1651   */\n      dup3\n        /* \"#utility.yul\":1644:1658   */\n      add\n        /* \"#utility.yul\":1629:1658   */\n      swap1\n      pop\n        /* \"#utility.yul\":1496:1664   */\n      swap3\n      swap2\n      pop\n      pop\n      jump\t// out\n        /* \"#utility.yul\":1670:1766   */\n    tag_26:\n        /* \"#utility.yul\":1707:1714   */\n      0x00\n        /* \"#utility.yul\":1736:1760   */\n      tag_50\n        /* \"#utility.yul\":1754:1759   */\n      dup3\n        /* \"#utility.yul\":1736:1760   */\n      tag_51\n      jump\t// in\n    tag_50:\n        /* \"#utility.yul\":1725:1760   */\n      swap1\n      pop\n        /* \"#utility.yul\":1670:1766   */\n      swap2\n      swap1\n      pop\n      jump\t// out\n        /* \"#utility.yul\":1772:1898   */\n    tag_51:\n        /* \"#utility.yul\":1809:1816   */\n      0x00\n        /* \"#utility.yul\":1849:1891   */\n      0xffffffffffffffffffffffffffffffffffffffff\n        /* \"#utility.yul\":1842:1847   */\n      dup3\n        /* \"#utility.yul\":1838:1892   */\n      and\n        /* \"#utility.yul\":1827:1892   */\n      swap1\n      pop\n        /* \"#utility.yul\":1772:1898   */\n      swap2\n      swap1\n      pop\n      jump\t// out\n        /* \"#utility.yul\":1904:1981   */\n    tag_40:\n        /* \"#utility.yul\":1941:1948   */\n      0x00\n        /* \"#utility.yul\":1970:1975   */\n      dup2\n        /* \"#utility.yul\":1959:1975   */\n      swap1\n      pop\n        /* \"#utility.yul\":1904:1981   */\n      swap2\n      swap1\n      pop\n      jump\t// out\n        /* \"#utility.yul\":1987:2294   */\n    tag_34:\n        /* \"#utility.yul\":2055:2056   */\n      0x00\n        /* \"#utility.yul\":2065:2178   */\n    tag_55:\n        /* \"#utility.yul\":2079:2085   */\n      dup4\n        /* \"#utility.yul\":2076:2077   */\n      dup2\n        /* \"#utility.yul\":2073:2086   */\n      lt\n        /* \"#utility.yul\":2065:2178   */\n      iszero\n      tag_57\n      jumpi\n        /* \"#utility.yul\":2164:2165   */\n      dup1\n        /* \"#utility.yul\":2159:2162   */\n      dup3\n        /* \"#utility.yul\":2155:2166   */\n      add\n        /* \"#utility.yul\":2149:2167   */\n      mload\n        /* \"#utility.yul\":2145:2146   */\n      dup2\n        /* \"#utility.yul\":2140:2143   */\n      dup5\n        /* \"#utility.yul\":2136:2147   */\n      add\n        /* \"#utility.yul\":2129:2168   */\n      mstore\n        /* \"#utility.yul\":2101:2103   */\n      0x20\n        /* \"#utility.yul\":2098:2099   */\n      dup2\n        /* \"#utility.yul\":2094:2104   */\n      add\n        /* \"#utility.yul\":2089:2104   */\n      swap1\n      pop\n        /* \"#utility.yul\":2065:2178   */\n      jump(tag_55)\n    tag_57:\n        /* \"#utility.yul\":2196:2202   */\n      dup4\n        /* \"#utility.yul\":2193:2194   */\n      dup2\n        /* \"#utility.yul\":2190:2203   */\n      gt\n        /* \"#utility.yul\":2187:2288   */\n      iszero\n      tag_58\n      jumpi\n        /* \"#utility.yul\":2276:2277   */\n      0x00\n        /* \"#utility.yul\":2267:2273   */\n      dup5\n        /* \"#utility.yul\":2262:2265   */\n      dup5\n        /* \"#utility.yul\":2258:2274   */\n      add\n        /* \"#utility.yul\":2251:2278   */\n      mstore\n        /* \"#utility.yul\":2187:2288   */\n    tag_58:\n        /* \"#utility.yul\":2036:2294   */\n      pop\n        /* \"#utility.yul\":1987:2294   */\n      pop\n      pop\n      pop\n      jump\t// out\n        /* \"#utility.yul\":2300:2402   */\n    tag_36:\n        /* \"#utility.yul\":2341:2347   */\n      0x00\n        /* \"#utility.yul\":2392:2394   */\n      0x1f\n        /* \"#utility.yul\":2388:2395   */\n      not\n        /* \"#utility.yul\":2383:2385   */\n      0x1f\n        /* \"#utility.yul\":2376:2381   */\n      dup4\n        /* \"#utility.yul\":2372:2386   */\n      add\n        /* \"#utility.yul\":2368:2396   */\n      and\n        /* \"#utility.yul\":2358:2396   */\n      swap1\n      pop\n        /* \"#utility.yul\":2300:2402   */\n      swap2\n      swap1\n      pop\n      jump\t// out\n\n    auxdata: 0xa2646970667358221220f656c759380bdb09dd1d6df71b1ede9767934ae897e4eb2b2d94b6aabfb1effc64736f6c63430008070033\n}\n",
				"bytecode": {
					"linkReferences": {},
					"object": "608060405234801561001057600080fd5b5061028b806100206000396000f3fe6080604052600436106100345760003560e01c80633ecfaa1f146100395780639a7fded914610057578063f0d8b77b14610082575b600080fd5b6100416100ad565b60405161004e919061019e565b60405180910390f35b34801561006357600080fd5b5061006c6100b5565b604051610079919061017c565b60405180910390f35b34801561008e57600080fd5b50610097610102565b6040516100a49190610161565b60405180910390f35b600034905090565b60606000368080601f016020809104026020016040519081016040528093929190818152602001838380828437600081840152601f19601f82011690508083019250505050505050905090565b600033905090565b610113816101d5565b82525050565b6000610124826101b9565b61012e81856101c4565b935061013e818560208601610211565b61014781610244565b840191505092915050565b61015b81610207565b82525050565b6000602082019050610176600083018461010a565b92915050565b600060208201905081810360008301526101968184610119565b905092915050565b60006020820190506101b36000830184610152565b92915050565b600081519050919050565b600082825260208201905092915050565b60006101e0826101e7565b9050919050565b600073ffffffffffffffffffffffffffffffffffffffff82169050919050565b6000819050919050565b60005b8381101561022f578082015181840152602081019050610214565b8381111561023e576000848401525b50505050565b6000601f19601f830116905091905056fea2646970667358221220f656c759380bdb09dd1d6df71b1ede9767934ae897e4eb2b2d94b6aabfb1effc64736f6c63430008070033",
					"opcodes": "PUSH1 0x80 PUSH1 0x40 MSTORE CALLVALUE DUP1 ISZERO PUSH2 0x10 JUMPI PUSH1 0x0 DUP1 REVERT JUMPDEST POP PUSH2 0x28B DUP1 PUSH2 0x20 PUSH1 0x0 CODECOPY PUSH1 0x0 RETURN INVALID PUSH1 0x80 PUSH1 0x40 MSTORE PUSH1 0x4 CALLDATASIZE LT PUSH2 0x34 JUMPI PUSH1 0x0 CALLDATALOAD PUSH1 0xE0 SHR DUP1 PUSH4 0x3ECFAA1F EQ PUSH2 0x39 JUMPI DUP1 PUSH4 0x9A7FDED9 EQ PUSH2 0x57 JUMPI DUP1 PUSH4 0xF0D8B77B EQ PUSH2 0x82 JUMPI JUMPDEST PUSH1 0x0 DUP1 REVERT JUMPDEST PUSH2 0x41 PUSH2 0xAD JUMP JUMPDEST PUSH1 0x40 MLOAD PUSH2 0x4E SWAP2 SWAP1 PUSH2 0x19E JUMP JUMPDEST PUSH1 0x40 MLOAD DUP1 SWAP2 SUB SWAP1 RETURN JUMPDEST CALLVALUE DUP1 ISZERO PUSH2 0x63 JUMPI PUSH1 0x0 DUP1 REVERT JUMPDEST POP PUSH2 0x6C PUSH2 0xB5 JUMP JUMPDEST PUSH1 0x40 MLOAD PUSH2 0x79 SWAP2 SWAP1 PUSH2 0x17C JUMP JUMPDEST PUSH1 0x40 MLOAD DUP1 SWAP2 SUB SWAP1 RETURN JUMPDEST CALLVALUE DUP1 ISZERO PUSH2 0x8E JUMPI PUSH1 0x0 DUP1 REVERT JUMPDEST POP PUSH2 0x97 PUSH2 0x102 JUMP JUMPDEST PUSH1 0x40 MLOAD PUSH2 0xA4 SWAP2 SWAP1 PUSH2 0x161 JUMP JUMPDEST PUSH1 0x40 MLOAD DUP1 SWAP2 SUB SWAP1 RETURN JUMPDEST PUSH1 0x0 CALLVALUE SWAP1 POP SWAP1 JUMP JUMPDEST PUSH1 0x60 PUSH1 0x0 CALLDATASIZE DUP1 DUP1 PUSH1 0x1F ADD PUSH1 0x20 DUP1 SWAP2 DIV MUL PUSH1 0x20 ADD PUSH1 0x40 MLOAD SWAP1 DUP2 ADD PUSH1 0x40 MSTORE DUP1 SWAP4 SWAP3 SWAP2 SWAP1 DUP2 DUP2 MSTORE PUSH1 0x20 ADD DUP4 DUP4 DUP1 DUP3 DUP5 CALLDATACOPY PUSH1 0x0 DUP2 DUP5 ADD MSTORE PUSH1 0x1F NOT PUSH1 0x1F DUP3 ADD AND SWAP1 POP DUP1 DUP4 ADD SWAP3 POP POP POP POP POP POP POP SWAP1 POP SWAP1 JUMP JUMPDEST PUSH1 0x0 CALLER SWAP1 POP SWAP1 JUMP JUMPDEST PUSH2 0x113 DUP2 PUSH2 0x1D5 JUMP JUMPDEST DUP3 MSTORE POP POP JUMP JUMPDEST PUSH1 0x0 PUSH2 0x124 DUP3 PUSH2 0x1B9 JUMP JUMPDEST PUSH2 0x12E DUP2 DUP6 PUSH2 0x1C4 JUMP JUMPDEST SWAP4 POP PUSH2 0x13E DUP2 DUP6 PUSH1 0x20 DUP7 ADD PUSH2 0x211 JUMP JUMPDEST PUSH2 0x147 DUP2 PUSH2 0x244 JUMP JUMPDEST DUP5 ADD SWAP2 POP POP SWAP3 SWAP2 POP POP JUMP JUMPDEST PUSH2 0x15B DUP2 PUSH2 0x207 JUMP JUMPDEST DUP3 MSTORE POP POP JUMP JUMPDEST PUSH1 0x0 PUSH1 0x20 DUP3 ADD SWAP1 POP PUSH2 0x176 PUSH1 0x0 DUP4 ADD DUP5 PUSH2 0x10A JUMP JUMPDEST SWAP3 SWAP2 POP POP JUMP JUMPDEST PUSH1 0x0 PUSH1 0x20 DUP3 ADD SWAP1 POP DUP2 DUP2 SUB PUSH1 0x0 DUP4 ADD MSTORE PUSH2 0x196 DUP2 DUP5 PUSH2 0x119 JUMP JUMPDEST SWAP1 POP SWAP3 SWAP2 POP POP JUMP JUMPDEST PUSH1 0x0 PUSH1 0x20 DUP3 ADD SWAP1 POP PUSH2 0x1B3 PUSH1 0x0 DUP4 ADD DUP5 PUSH2 0x152 JUMP JUMPDEST SWAP3 SWAP2 POP POP JUMP JUMPDEST PUSH1 0x0 DUP2 MLOAD SWAP1 POP SWAP2 SWAP1 POP JUMP JUMPDEST PUSH1 0x0 DUP3 DUP3 MSTORE PUSH1 0x20 DUP3 ADD SWAP1 POP SWAP3 SWAP2 POP POP JUMP JUMPDEST PUSH1 0x0 PUSH2 0x1E0 DUP3 PUSH2 0x1E7 JUMP JUMPDEST SWAP1 POP SWAP2 SWAP1 POP JUMP JUMPDEST PUSH1 0x0 PUSH20 0xFFFFFFFFFFFFFFFFFFFFFFFFFFFFFFFFFFFFFFFF DUP3 AND SWAP1 POP SWAP2 SWAP1 POP JUMP JUMPDEST PUSH1 0x0 DUP2 SWAP1 POP SWAP2 SWAP1 POP JUMP JUMPDEST PUSH1 0x0 JUMPDEST DUP4 DUP2 LT ISZERO PUSH2 0x22F JUMPI DUP1 DUP3 ADD MLOAD DUP2 DUP5 ADD MSTORE PUSH1 0x20 DUP2 ADD SWAP1 POP PUSH2 0x214 JUMP JUMPDEST DUP4 DUP2 GT ISZERO PUSH2 0x23E JUMPI PUSH1 0x0 DUP5 DUP5 ADD MSTORE JUMPDEST POP POP POP POP JUMP JUMPDEST PUSH1 0x0 PUSH1 0x1F NOT PUSH1 0x1F DUP4 ADD AND SWAP1 POP SWAP2 SWAP1 POP JUMP INVALID LOG2 PUSH5 0x6970667358 0x22 SLT KECCAK256 0xF6 JUMP 0xC7 MSIZE CODESIZE SIGNEXTEND 0xDB MULMOD 0xDD SAR PUSH14 0xF71B1EDE9767934AE897E4EB2B2D SWAP5 0xB6 0xAA 0xBF 0xB1 0xEF 0xFC PUSH5 0x736F6C6343 STOP ADDMOD SMOD STOP CALLER "
				},
				"gasEstimates": {
					"creation": {
						"codeDepositCost": "130200",
						"executionCost": "177",
						"totalCost": "130377"
					},
					"external": {
						"pegaDados()": "infinite",
						"pegaEnvio()": "407",
						"pegaValor()": "290"
					}
				},
				"methodIdentifiers": {
					"pegaDados()": "9a7fded9",
					"pegaEnvio()": "f0d8b77b",
					"pegaValor()": "3ecfaa1f"
				}
			},
			"storageLayout": {
				"storage": [],
				"types": null
			},
			"userdoc": {
				"kind": "user",
				"methods": {},
				"version": 1
			}
		}
	}
}