{
	"data": {
		"bytecode": {
			"linkReferences": {},
			"object": "608060405234801561001057600080fd5b5061014e806100206000396000f3fe608060405234801561001057600080fd5b506004361061002b5760003560e01c80639ee4bacd14610030575b600080fd5b61003861004e565b60405161004591906100c4565b60405180910390f35b6000806040518060600160405280600281526020016004815260200160088152509050600081905060108160026003811061008c5761008b6100e9565b5b602002018181525050816002600381106100a9576100a86100e9565b5b60200201519250505090565b6100be816100df565b82525050565b60006020820190506100d960008301846100b5565b92915050565b6000819050919050565b7f4e487b7100000000000000000000000000000000000000000000000000000000600052603260045260246000fdfea2646970667358221220e7af56f1936d84cb1968b879f3737e0022c734a1e025df89891d98d4d6a2676a64736f6c63430008070033",
			"opcodes": "PUSH1 0x80 PUSH1 0x40 MSTORE CALLVALUE DUP1 ISZERO PUSH2 0x10 JUMPI PUSH1 0x0 DUP1 REVERT JUMPDEST POP PUSH2 0x14E DUP1 PUSH2 0x20 PUSH1 0x0 CODECOPY PUSH1 0x0 RETURN INVALID PUSH1 0x80 PUSH1 0x40 MSTORE CALLVALUE DUP1 ISZERO PUSH2 0x10 JUMPI PUSH1 0x0 DUP1 REVERT JUMPDEST POP PUSH1 0x4 CALLDATASIZE LT PUSH2 0x2B JUMPI PUSH1 0x0 CALLDATALOAD PUSH1 0xE0 SHR DUP1 PUSH4 0x9EE4BACD EQ PUSH2 0x30 JUMPI JUMPDEST PUSH1 0x0 DUP1 REVERT JUMPDEST PUSH2 0x38 PUSH2 0x4E JUMP JUMPDEST PUSH1 0x40 MLOAD PUSH2 0x45 SWAP2 SWAP1 PUSH2 0xC4 JUMP JUMPDEST PUSH1 0x40 MLOAD DUP1 SWAP2 SUB SWAP1 RETURN JUMPDEST PUSH1 0x0 DUP1 PUSH1 0x40 MLOAD DUP1 PUSH1 0x60 ADD PUSH1 0x40 MSTORE DUP1 PUSH1 0x2 DUP2 MSTORE PUSH1 0x20 ADD PUSH1 0x4 DUP2 MSTORE PUSH1 0x20 ADD PUSH1 0x8 DUP2 MSTORE POP SWAP1 POP PUSH1 0x0 DUP2 SWAP1 POP PUSH1 0x10 DUP2 PUSH1 0x2 PUSH1 0x3 DUP2 LT PUSH2 0x8C JUMPI PUSH2 0x8B PUSH2 0xE9 JUMP JUMPDEST JUMPDEST PUSH1 0x20 MUL ADD DUP2 DUP2 MSTORE POP POP DUP2 PUSH1 0x2 PUSH1 0x3 DUP2 LT PUSH2 0xA9 JUMPI PUSH2 0xA8 PUSH2 0xE9 JUMP JUMPDEST JUMPDEST PUSH1 0x20 MUL ADD MLOAD SWAP3 POP POP POP SWAP1 JUMP JUMPDEST PUSH2 0xBE DUP2 PUSH2 0xDF JUMP JUMPDEST DUP3 MSTORE POP POP JUMP JUMPDEST PUSH1 0x0 PUSH1 0x20 DUP3 ADD SWAP1 POP PUSH2 0xD9 PUSH1 0x0 DUP4 ADD DUP5 PUSH2 0xB5 JUMP JUMPDEST SWAP3 SWAP2 POP POP JUMP JUMPDEST PUSH1 0x0 DUP2 SWAP1 POP SWAP2 SWAP1 POP JUMP JUMPDEST PUSH32 0x4E487B7100000000000000000000000000000000000000000000000000000000 PUSH1 0x0 MSTORE PUSH1 0x32 PUSH1 0x4 MSTORE PUSH1 0x24 PUSH1 0x0 REVERT INVALID LOG2 PUSH5 0x6970667358 0x22 SLT KECCAK256 0xE7 0xAF JUMP CALL SWAP4 PUSH14 0x84CB1968B879F3737E0022C734A1 0xE0 0x25 0xDF DUP10 DUP10 SAR SWAP9 0xD4 0xD6 LOG2 PUSH8 0x6A64736F6C634300 ADDMOD SMOD STOP CALLER "
		},
		"gasEstimates": {
			"creation": {
				"codeDepositCost": "66800",
				"executionCost": "117",
				"totalCost": "66917"
			},
			"external": {
				"teste()": "508"
			}
		},
		"methodIdentifiers": {
			"teste()": "9ee4bacd"
		}
	},
	"abi": [
		{
			"inputs": [],
			"name": "teste",
			"outputs": [
				{
					"internalType": "uint256",
					"name": "",
					"type": "uint256"
				}
			],
			"stateMutability": "pure",
			"type": "function"
		}
	]
}