{
	"data": {
		"bytecode": {
			"linkReferences": {},
			"object": "608060405234801561001057600080fd5b506106c8806100206000396000f3fe608060405234801561001057600080fd5b50600436106100365760003560e01c80634847e01b1461003b578063a2f9eac614610057575b600080fd5b61005560048036038101906100509190610392565b610089565b005b610071600480360381019061006c919061041d565b610120565b60405161008093929190610492565b60405180910390f35b60006040518060600160405280858152602001848152602001838152509050600081908060018154018082558091505060019003906000526020600020906003020160009091909190915060008201518160000190805190602001906100f092919061026a565b50602082015181600101908051906020019061010d92919061026a565b5060408201518160020155505050505050565b6000818154811061013057600080fd5b906000526020600020906003020160009150905080600001805461015390610595565b80601f016020809104026020016040519081016040528092919081815260200182805461017f90610595565b80156101cc5780601f106101a1576101008083540402835291602001916101cc565b820191906000526020600020905b8154815290600101906020018083116101af57829003601f168201915b5050505050908060010180546101e190610595565b80601f016020809104026020016040519081016040528092919081815260200182805461020d90610595565b801561025a5780601f1061022f5761010080835404028352916020019161025a565b820191906000526020600020905b81548152906001019060200180831161023d57829003601f168201915b5050505050908060020154905083565b82805461027690610595565b90600052602060002090601f01602090048101928261029857600085556102df565b82601f106102b157805160ff19168380011785556102df565b828001600101855582156102df579182015b828111156102de5782518255916020019190600101906102c3565b5b5090506102ec91906102f0565b5090565b5b808211156103095760008160009055506001016102f1565b5090565b600061032061031b846104fc565b6104d7565b90508281526020810184848401111561033c5761033b61065b565b5b610347848285610553565b509392505050565b600082601f83011261036457610363610656565b5b813561037484826020860161030d565b91505092915050565b60008135905061038c8161067b565b92915050565b6000806000606084860312156103ab576103aa610665565b5b600084013567ffffffffffffffff8111156103c9576103c8610660565b5b6103d58682870161034f565b935050602084013567ffffffffffffffff8111156103f6576103f5610660565b5b6104028682870161034f565b92505060406104138682870161037d565b9150509250925092565b60006020828403121561043357610432610665565b5b60006104418482850161037d565b91505092915050565b60006104558261052d565b61045f8185610538565b935061046f818560208601610562565b6104788161066a565b840191505092915050565b61048c81610549565b82525050565b600060608201905081810360008301526104ac818661044a565b905081810360208301526104c0818561044a565b90506104cf6040830184610483565b949350505050565b60006104e16104f2565b90506104ed82826105c7565b919050565b6000604051905090565b600067ffffffffffffffff82111561051757610516610627565b5b6105208261066a565b9050602081019050919050565b600081519050919050565b600082825260208201905092915050565b6000819050919050565b82818337600083830152505050565b60005b83811015610580578082015181840152602081019050610565565b8381111561058f576000848401525b50505050565b600060028204905060018216806105ad57607f821691505b602082108114156105c1576105c06105f8565b5b50919050565b6105d08261066a565b810181811067ffffffffffffffff821117156105ef576105ee610627565b5b80604052505050565b7f4e487b7100000000000000000000000000000000000000000000000000000000600052602260045260246000fd5b7f4e487b7100000000000000000000000000000000000000000000000000000000600052604160045260246000fd5b600080fd5b600080fd5b600080fd5b600080fd5b6000601f19601f8301169050919050565b61068481610549565b811461068f57600080fd5b5056fea264697066735822122015dd69ea5b4100da18874775f128e1499f213f43986de1fc451f452d409505dd64736f6c63430008070033",
			"opcodes": "PUSH1 0x80 PUSH1 0x40 MSTORE CALLVALUE DUP1 ISZERO PUSH2 0x10 JUMPI PUSH1 0x0 DUP1 REVERT JUMPDEST POP PUSH2 0x6C8 DUP1 PUSH2 0x20 PUSH1 0x0 CODECOPY PUSH1 0x0 RETURN INVALID PUSH1 0x80 PUSH1 0x40 MSTORE CALLVALUE DUP1 ISZERO PUSH2 0x10 JUMPI PUSH1 0x0 DUP1 REVERT JUMPDEST POP PUSH1 0x4 CALLDATASIZE LT PUSH2 0x36 JUMPI PUSH1 0x0 CALLDATALOAD PUSH1 0xE0 SHR DUP1 PUSH4 0x4847E01B EQ PUSH2 0x3B JUMPI DUP1 PUSH4 0xA2F9EAC6 EQ PUSH2 0x57 JUMPI JUMPDEST PUSH1 0x0 DUP1 REVERT JUMPDEST PUSH2 0x55 PUSH1 0x4 DUP1 CALLDATASIZE SUB DUP2 ADD SWAP1 PUSH2 0x50 SWAP2 SWAP1 PUSH2 0x392 JUMP JUMPDEST PUSH2 0x89 JUMP JUMPDEST STOP JUMPDEST PUSH2 0x71 PUSH1 0x4 DUP1 CALLDATASIZE SUB DUP2 ADD SWAP1 PUSH2 0x6C SWAP2 SWAP1 PUSH2 0x41D JUMP JUMPDEST PUSH2 0x120 JUMP JUMPDEST PUSH1 0x40 MLOAD PUSH2 0x80 SWAP4 SWAP3 SWAP2 SWAP1 PUSH2 0x492 JUMP JUMPDEST PUSH1 0x40 MLOAD DUP1 SWAP2 SUB SWAP1 RETURN JUMPDEST PUSH1 0x0 PUSH1 0x40 MLOAD DUP1 PUSH1 0x60 ADD PUSH1 0x40 MSTORE DUP1 DUP6 DUP2 MSTORE PUSH1 0x20 ADD DUP5 DUP2 MSTORE PUSH1 0x20 ADD DUP4 DUP2 MSTORE POP SWAP1 POP PUSH1 0x0 DUP2 SWAP1 DUP1 PUSH1 0x1 DUP2 SLOAD ADD DUP1 DUP3 SSTORE DUP1 SWAP2 POP POP PUSH1 0x1 SWAP1 SUB SWAP1 PUSH1 0x0 MSTORE PUSH1 0x20 PUSH1 0x0 KECCAK256 SWAP1 PUSH1 0x3 MUL ADD PUSH1 0x0 SWAP1 SWAP2 SWAP1 SWAP2 SWAP1 SWAP2 POP PUSH1 0x0 DUP3 ADD MLOAD DUP2 PUSH1 0x0 ADD SWAP1 DUP1 MLOAD SWAP1 PUSH1 0x20 ADD SWAP1 PUSH2 0xF0 SWAP3 SWAP2 SWAP1 PUSH2 0x26A JUMP JUMPDEST POP PUSH1 0x20 DUP3 ADD MLOAD DUP2 PUSH1 0x1 ADD SWAP1 DUP1 MLOAD SWAP1 PUSH1 0x20 ADD SWAP1 PUSH2 0x10D SWAP3 SWAP2 SWAP1 PUSH2 0x26A JUMP JUMPDEST POP PUSH1 0x40 DUP3 ADD MLOAD DUP2 PUSH1 0x2 ADD SSTORE POP POP POP POP POP POP JUMP JUMPDEST PUSH1 0x0 DUP2 DUP2 SLOAD DUP2 LT PUSH2 0x130 JUMPI PUSH1 0x0 DUP1 REVERT JUMPDEST SWAP1 PUSH1 0x0 MSTORE PUSH1 0x20 PUSH1 0x0 KECCAK256 SWAP1 PUSH1 0x3 MUL ADD PUSH1 0x0 SWAP2 POP SWAP1 POP DUP1 PUSH1 0x0 ADD DUP1 SLOAD PUSH2 0x153 SWAP1 PUSH2 0x595 JUMP JUMPDEST DUP1 PUSH1 0x1F ADD PUSH1 0x20 DUP1 SWAP2 DIV MUL PUSH1 0x20 ADD PUSH1 0x40 MLOAD SWAP1 DUP2 ADD PUSH1 0x40 MSTORE DUP1 SWAP3 SWAP2 SWAP1 DUP2 DUP2 MSTORE PUSH1 0x20 ADD DUP3 DUP1 SLOAD PUSH2 0x17F SWAP1 PUSH2 0x595 JUMP JUMPDEST DUP1 ISZERO PUSH2 0x1CC JUMPI DUP1 PUSH1 0x1F LT PUSH2 0x1A1 JUMPI PUSH2 0x100 DUP1 DUP4 SLOAD DIV MUL DUP4 MSTORE SWAP2 PUSH1 0x20 ADD SWAP2 PUSH2 0x1CC JUMP JUMPDEST DUP3 ADD SWAP2 SWAP1 PUSH1 0x0 MSTORE PUSH1 0x20 PUSH1 0x0 KECCAK256 SWAP1 JUMPDEST DUP2 SLOAD DUP2 MSTORE SWAP1 PUSH1 0x1 ADD SWAP1 PUSH1 0x20 ADD DUP1 DUP4 GT PUSH2 0x1AF JUMPI DUP3 SWAP1 SUB PUSH1 0x1F AND DUP3 ADD SWAP2 JUMPDEST POP POP POP POP POP SWAP1 DUP1 PUSH1 0x1 ADD DUP1 SLOAD PUSH2 0x1E1 SWAP1 PUSH2 0x595 JUMP JUMPDEST DUP1 PUSH1 0x1F ADD PUSH1 0x20 DUP1 SWAP2 DIV MUL PUSH1 0x20 ADD PUSH1 0x40 MLOAD SWAP1 DUP2 ADD PUSH1 0x40 MSTORE DUP1 SWAP3 SWAP2 SWAP1 DUP2 DUP2 MSTORE PUSH1 0x20 ADD DUP3 DUP1 SLOAD PUSH2 0x20D SWAP1 PUSH2 0x595 JUMP JUMPDEST DUP1 ISZERO PUSH2 0x25A JUMPI DUP1 PUSH1 0x1F LT PUSH2 0x22F JUMPI PUSH2 0x100 DUP1 DUP4 SLOAD DIV MUL DUP4 MSTORE SWAP2 PUSH1 0x20 ADD SWAP2 PUSH2 0x25A JUMP JUMPDEST DUP3 ADD SWAP2 SWAP1 PUSH1 0x0 MSTORE PUSH1 0x20 PUSH1 0x0 KECCAK256 SWAP1 JUMPDEST DUP2 SLOAD DUP2 MSTORE SWAP1 PUSH1 0x1 ADD SWAP1 PUSH1 0x20 ADD DUP1 DUP4 GT PUSH2 0x23D JUMPI DUP3 SWAP1 SUB PUSH1 0x1F AND DUP3 ADD SWAP2 JUMPDEST POP POP POP POP POP SWAP1 DUP1 PUSH1 0x2 ADD SLOAD SWAP1 POP DUP4 JUMP JUMPDEST DUP3 DUP1 SLOAD PUSH2 0x276 SWAP1 PUSH2 0x595 JUMP JUMPDEST SWAP1 PUSH1 0x0 MSTORE PUSH1 0x20 PUSH1 0x0 KECCAK256 SWAP1 PUSH1 0x1F ADD PUSH1 0x20 SWAP1 DIV DUP2 ADD SWAP3 DUP3 PUSH2 0x298 JUMPI PUSH1 0x0 DUP6 SSTORE PUSH2 0x2DF JUMP JUMPDEST DUP3 PUSH1 0x1F LT PUSH2 0x2B1 JUMPI DUP1 MLOAD PUSH1 0xFF NOT AND DUP4 DUP1 ADD OR DUP6 SSTORE PUSH2 0x2DF JUMP JUMPDEST DUP3 DUP1 ADD PUSH1 0x1 ADD DUP6 SSTORE DUP3 ISZERO PUSH2 0x2DF JUMPI SWAP2 DUP3 ADD JUMPDEST DUP3 DUP2 GT ISZERO PUSH2 0x2DE JUMPI DUP3 MLOAD DUP3 SSTORE SWAP2 PUSH1 0x20 ADD SWAP2 SWAP1 PUSH1 0x1 ADD SWAP1 PUSH2 0x2C3 JUMP JUMPDEST JUMPDEST POP SWAP1 POP PUSH2 0x2EC SWAP2 SWAP1 PUSH2 0x2F0 JUMP JUMPDEST POP SWAP1 JUMP JUMPDEST JUMPDEST DUP1 DUP3 GT ISZERO PUSH2 0x309 JUMPI PUSH1 0x0 DUP2 PUSH1 0x0 SWAP1 SSTORE POP PUSH1 0x1 ADD PUSH2 0x2F1 JUMP JUMPDEST POP SWAP1 JUMP JUMPDEST PUSH1 0x0 PUSH2 0x320 PUSH2 0x31B DUP5 PUSH2 0x4FC JUMP JUMPDEST PUSH2 0x4D7 JUMP JUMPDEST SWAP1 POP DUP3 DUP2 MSTORE PUSH1 0x20 DUP2 ADD DUP5 DUP5 DUP5 ADD GT ISZERO PUSH2 0x33C JUMPI PUSH2 0x33B PUSH2 0x65B JUMP JUMPDEST JUMPDEST PUSH2 0x347 DUP5 DUP3 DUP6 PUSH2 0x553 JUMP JUMPDEST POP SWAP4 SWAP3 POP POP POP JUMP JUMPDEST PUSH1 0x0 DUP3 PUSH1 0x1F DUP4 ADD SLT PUSH2 0x364 JUMPI PUSH2 0x363 PUSH2 0x656 JUMP JUMPDEST JUMPDEST DUP2 CALLDATALOAD PUSH2 0x374 DUP5 DUP3 PUSH1 0x20 DUP7 ADD PUSH2 0x30D JUMP JUMPDEST SWAP2 POP POP SWAP3 SWAP2 POP POP JUMP JUMPDEST PUSH1 0x0 DUP2 CALLDATALOAD SWAP1 POP PUSH2 0x38C DUP2 PUSH2 0x67B JUMP JUMPDEST SWAP3 SWAP2 POP POP JUMP JUMPDEST PUSH1 0x0 DUP1 PUSH1 0x0 PUSH1 0x60 DUP5 DUP7 SUB SLT ISZERO PUSH2 0x3AB JUMPI PUSH2 0x3AA PUSH2 0x665 JUMP JUMPDEST JUMPDEST PUSH1 0x0 DUP5 ADD CALLDATALOAD PUSH8 0xFFFFFFFFFFFFFFFF DUP2 GT ISZERO PUSH2 0x3C9 JUMPI PUSH2 0x3C8 PUSH2 0x660 JUMP JUMPDEST JUMPDEST PUSH2 0x3D5 DUP7 DUP3 DUP8 ADD PUSH2 0x34F JUMP JUMPDEST SWAP4 POP POP PUSH1 0x20 DUP5 ADD CALLDATALOAD PUSH8 0xFFFFFFFFFFFFFFFF DUP2 GT ISZERO PUSH2 0x3F6 JUMPI PUSH2 0x3F5 PUSH2 0x660 JUMP JUMPDEST JUMPDEST PUSH2 0x402 DUP7 DUP3 DUP8 ADD PUSH2 0x34F JUMP JUMPDEST SWAP3 POP POP PUSH1 0x40 PUSH2 0x413 DUP7 DUP3 DUP8 ADD PUSH2 0x37D JUMP JUMPDEST SWAP2 POP POP SWAP3 POP SWAP3 POP SWAP3 JUMP JUMPDEST PUSH1 0x0 PUSH1 0x20 DUP3 DUP5 SUB SLT ISZERO PUSH2 0x433 JUMPI PUSH2 0x432 PUSH2 0x665 JUMP JUMPDEST JUMPDEST PUSH1 0x0 PUSH2 0x441 DUP5 DUP3 DUP6 ADD PUSH2 0x37D JUMP JUMPDEST SWAP2 POP POP SWAP3 SWAP2 POP POP JUMP JUMPDEST PUSH1 0x0 PUSH2 0x455 DUP3 PUSH2 0x52D JUMP JUMPDEST PUSH2 0x45F DUP2 DUP6 PUSH2 0x538 JUMP JUMPDEST SWAP4 POP PUSH2 0x46F DUP2 DUP6 PUSH1 0x20 DUP7 ADD PUSH2 0x562 JUMP JUMPDEST PUSH2 0x478 DUP2 PUSH2 0x66A JUMP JUMPDEST DUP5 ADD SWAP2 POP POP SWAP3 SWAP2 POP POP JUMP JUMPDEST PUSH2 0x48C DUP2 PUSH2 0x549 JUMP JUMPDEST DUP3 MSTORE POP POP JUMP JUMPDEST PUSH1 0x0 PUSH1 0x60 DUP3 ADD SWAP1 POP DUP2 DUP2 SUB PUSH1 0x0 DUP4 ADD MSTORE PUSH2 0x4AC DUP2 DUP7 PUSH2 0x44A JUMP JUMPDEST SWAP1 POP DUP2 DUP2 SUB PUSH1 0x20 DUP4 ADD MSTORE PUSH2 0x4C0 DUP2 DUP6 PUSH2 0x44A JUMP JUMPDEST SWAP1 POP PUSH2 0x4CF PUSH1 0x40 DUP4 ADD DUP5 PUSH2 0x483 JUMP JUMPDEST SWAP5 SWAP4 POP POP POP POP JUMP JUMPDEST PUSH1 0x0 PUSH2 0x4E1 PUSH2 0x4F2 JUMP JUMPDEST SWAP1 POP PUSH2 0x4ED DUP3 DUP3 PUSH2 0x5C7 JUMP JUMPDEST SWAP2 SWAP1 POP JUMP JUMPDEST PUSH1 0x0 PUSH1 0x40 MLOAD SWAP1 POP SWAP1 JUMP JUMPDEST PUSH1 0x0 PUSH8 0xFFFFFFFFFFFFFFFF DUP3 GT ISZERO PUSH2 0x517 JUMPI PUSH2 0x516 PUSH2 0x627 JUMP JUMPDEST JUMPDEST PUSH2 0x520 DUP3 PUSH2 0x66A JUMP JUMPDEST SWAP1 POP PUSH1 0x20 DUP2 ADD SWAP1 POP SWAP2 SWAP1 POP JUMP JUMPDEST PUSH1 0x0 DUP2 MLOAD SWAP1 POP SWAP2 SWAP1 POP JUMP JUMPDEST PUSH1 0x0 DUP3 DUP3 MSTORE PUSH1 0x20 DUP3 ADD SWAP1 POP SWAP3 SWAP2 POP POP JUMP JUMPDEST PUSH1 0x0 DUP2 SWAP1 POP SWAP2 SWAP1 POP JUMP JUMPDEST DUP3 DUP2 DUP4 CALLDATACOPY PUSH1 0x0 DUP4 DUP4 ADD MSTORE POP POP POP JUMP JUMPDEST PUSH1 0x0 JUMPDEST DUP4 DUP2 LT ISZERO PUSH2 0x580 JUMPI DUP1 DUP3 ADD MLOAD DUP2 DUP5 ADD MSTORE PUSH1 0x20 DUP2 ADD SWAP1 POP PUSH2 0x565 JUMP JUMPDEST DUP4 DUP2 GT ISZERO PUSH2 0x58F JUMPI PUSH1 0x0 DUP5 DUP5 ADD MSTORE JUMPDEST POP POP POP POP JUMP JUMPDEST PUSH1 0x0 PUSH1 0x2 DUP3 DIV SWAP1 POP PUSH1 0x1 DUP3 AND DUP1 PUSH2 0x5AD JUMPI PUSH1 0x7F DUP3 AND SWAP2 POP JUMPDEST PUSH1 0x20 DUP3 LT DUP2 EQ ISZERO PUSH2 0x5C1 JUMPI PUSH2 0x5C0 PUSH2 0x5F8 JUMP JUMPDEST JUMPDEST POP SWAP2 SWAP1 POP JUMP JUMPDEST PUSH2 0x5D0 DUP3 PUSH2 0x66A JUMP JUMPDEST DUP2 ADD DUP2 DUP2 LT PUSH8 0xFFFFFFFFFFFFFFFF DUP3 GT OR ISZERO PUSH2 0x5EF JUMPI PUSH2 0x5EE PUSH2 0x627 JUMP JUMPDEST JUMPDEST DUP1 PUSH1 0x40 MSTORE POP POP POP JUMP JUMPDEST PUSH32 0x4E487B7100000000000000000000000000000000000000000000000000000000 PUSH1 0x0 MSTORE PUSH1 0x22 PUSH1 0x4 MSTORE PUSH1 0x24 PUSH1 0x0 REVERT JUMPDEST PUSH32 0x4E487B7100000000000000000000000000000000000000000000000000000000 PUSH1 0x0 MSTORE PUSH1 0x41 PUSH1 0x4 MSTORE PUSH1 0x24 PUSH1 0x0 REVERT JUMPDEST PUSH1 0x0 DUP1 REVERT JUMPDEST PUSH1 0x0 DUP1 REVERT JUMPDEST PUSH1 0x0 DUP1 REVERT JUMPDEST PUSH1 0x0 DUP1 REVERT JUMPDEST PUSH1 0x0 PUSH1 0x1F NOT PUSH1 0x1F DUP4 ADD AND SWAP1 POP SWAP2 SWAP1 POP JUMP JUMPDEST PUSH2 0x684 DUP2 PUSH2 0x549 JUMP JUMPDEST DUP2 EQ PUSH2 0x68F JUMPI PUSH1 0x0 DUP1 REVERT JUMPDEST POP JUMP INVALID LOG2 PUSH5 0x6970667358 0x22 SLT KECCAK256 ISZERO 0xDD PUSH10 0xEA5B4100DA18874775F1 0x28 0xE1 0x49 SWAP16 0x21 EXTCODEHASH NUMBER SWAP9 PUSH14 0xE1FC451F452D409505DD64736F6C PUSH4 0x43000807 STOP CALLER "
		},
		"gasEstimates": {
			"creation": {
				"codeDepositCost": "347200",
				"executionCost": "386",
				"totalCost": "347586"
			},
			"external": {
				"addPerson(string,string,uint256)": "infinite",
				"persons(uint256)": "infinite"
			}
		},
		"methodIdentifiers": {
			"addPerson(string,string,uint256)": "4847e01b",
			"persons(uint256)": "a2f9eac6"
		}
	},
	"abi": [
		{
			"inputs": [
				{
					"internalType": "string",
					"name": "_firstName",
					"type": "string"
				},
				{
					"internalType": "string",
					"name": "_lastName",
					"type": "string"
				},
				{
					"internalType": "uint256",
					"name": "_age",
					"type": "uint256"
				}
			],
			"name": "addPerson",
			"outputs": [],
			"stateMutability": "nonpayable",
			"type": "function"
		},
		{
			"inputs": [
				{
					"internalType": "uint256",
					"name": "",
					"type": "uint256"
				}
			],
			"name": "persons",
			"outputs": [
				{
					"internalType": "string",
					"name": "firstName",
					"type": "string"
				},
				{
					"internalType": "string",
					"name": "lastName",
					"type": "string"
				},
				{
					"internalType": "uint256",
					"name": "age",
					"type": "uint256"
				}
			],
			"stateMutability": "view",
			"type": "function"
		}
	]
}